:020000040002F8
:1060000000690020C1630200C9630200CB63020083
:10601000CD630200CF630200D163020000000000E4
:10602000000000000000000000000000D363020038
:10603000D563020000000000D7630200D9630200AC
:106040001D9B0200DB630200999F0200219C02005D
:10605000DB630200DB63020055990200DB63020090
:10606000DB630200DB630200DB630200DB63020030
:10607000DB630200759B0200DB630200DB6302004E
:10608000DB6302009D9B0200DB630200DB63020016
:10609000759C0200DB630200799C0200DB63020056
:1060A000DB630200DB630200DB630200DB630200F0
:1060B000DB630200DB630200000000000000000060
:1060C000DB630200DB630200DB630200DB630200D0
:1060D000DB630200DB630200DB6302000000000000
:1060E00000000000000000000000000000000000B0
:1060F00000000000000000000000000000000000A0
:10610000000000000000000000000000000000008F
:10611000000000000000000000000000000000007F
:10612000000000000000000000000000000000006F
:10613000000000000000000000000000000000005F
:10614000000000000000000000000000000000004F
:10615000000000000000000000000000000000003F
:10616000000000000000000000000000000000002F
:10617000000000000000000000000000000000001F
:10618000000000000000000000000000000000000F
:1061900000000000000000000000000000000000FF
:1061A00000000000000000000000000000000000EF
:1061B00000000000000000000000000000000000DF
:1061C00000000000000000000000000000000000CF
:1061D00000000000000000000000000000000000BF
:1061E00000000000000000000000000000000000AF
:1061F000000000000000000000000000000000009F
:10620000DFF80CD001F07AFC0048004759E70200A3
:106210000069002030B450E8012F93B2C4892344B0
:106220008489A34228BF1B1B0489A34202BFBFF37A
:106230002F8F002007E0C3EA020340E80134002C5E
:10624000E9D14FF001000A6030BC704750E8012FDF
:10625000C2EA024240E801210029F7D1704730B478
:1062600050E8022F1FFAA2F3C488A34202BFBFF373
:106270002F8F00200DE0C48923448489A34228BFC6
:106280001B1BC2EA034340E80234002CE8D14FF064
:1062900001000A6030BC704750E8022FC2EA224277
:1062A00040E802210029F7D17047034653E8022F46
:1062B000D988B2EB324F4FF0000017BF92B241EADB
:1062C000014142EA014104E05A68B2EB324F08BF93
:1062D000012043E80212002AE8D1704730B4044696
:1062E00054E8000F0D4644E80053002BF8D1156028
:1062F00030BC704730B4044654E8000F40EA010552
:1063000044E80053002BF7D1156030BC704730B41F
:10631000044654E8000F00EA010544E80053002B4E
:10632000F7D1156030BC704730B4044654E8000F14
:1063300080EA010544E80053002BF7D1156030BC1A
:10634000704730B4044654E8000F00EB010544E800
:106350000053002BF7D1156030BC704730B40446B1
:1063600054E8000FA0EB010544E80053002BF7D1DF
:10637000156030BC704770B404464FF0000054E81C
:10638000006F0D68AE4207BF44E80023012044E8D7
:1063900000630E60002B1CBF0020F0E770BC70474C
:1063A00030B4044654E8000F88422CBF451A054615
:1063B00044E80053002BF5D1156030BC7047000055
:1063C0000648804706480047FEE7FEE7FEE7FEE78F
:1063D000FEE7FEE7FEE7FEE7FEE7FEE77D9C020044
:1063E0000162020030B44FF0000310F8014B11F8C5
:1063F000015B013A84EA050443EA0403F5D1A3F101
:1064000001034FEAD37030BC70474FF0000310F81F
:10641000012B013943EA0203F9D1A3F101034FEA49
:10642000D37070472DE9F00791E8F807B2E8021041
:106430005B1854EB0C04B2E802104D4156EB0C060D
:10644000B2E802104F4158EB0C08B2E8021059EBC9
:1064500001095AEB0C0A4FF0260261EB010122EA16
:1064600001015B1854F1000455F1000556F10006D6
:1064700057F1000758F1000859F100095AF1000AD4
:1064800061EB010122EA01010B4480E8F807BDE855
:10649000F00770472DE9F00791E8F807B2E802101D
:1064A0005B1A74EB0C04B2E802108D4176EB0C061B
:1064B000B2E802108F4178EB0C08B2E8021079EBD9
:1064C00001097AEB0C0A4FF0260261EB010102EAA6
:1064D00001015B1A74F1000475F1000576F1000604
:1064E00077F1000778F1000879F100097AF1000AE4
:1064F00061EB010102EA0101A3EB010380E8F80767
:10650000BDE8F00770470A462DE9F04F92E8F00F1A
:106510002DE9F30F87B091E839000999A0FB0178C4
:106520004FF00009E3FB01894FF0000AE4FB019AF8
:106530004FF0000BE5FB01AB0D994FF0000CE0FBB9
:1065400001BC4FF0000EE3FB01CE4FF00002E4FB74
:1065500001E24FF00006E5FB012600970A994FF093
:106560000007E0FB018719EB07094FF0000747EB35
:106570000707E3FB01971AEB070A4FF0000747EB09
:106580000707E4FB01A71BEB070B4FF0000747EBE6
:106590000707E5FB01B70E991CEB070C4FF000074E
:1065A00047EB0707E0FB01C71EEB070E4FF00007A4
:1065B00047EB0707E3FB01E7D2194FF0000747EB72
:1065C0000707E4FB0127F6194FF0000747EB070721
:1065D000E5FB0167CDF804800B994FF00008E0FB64
:1065E00001981AEB080A4FF0000848EB0808E3FB93
:1065F00001A81BEB080B4FF0000848EB0808E4FB70
:1066000001B81CEB080C4FF0000848EB0808E5FB4C
:1066100001C80F991EEB080E4FF0000848EB080860
:10662000E0FB01E812EB08024FF0000848EB080815
:10663000E3FB012816EB08064FF0000848EB0808BA
:10664000E4FB016817EB08074FF0000848EB080867
:10665000E5FB0178CDF808900C994FF00009E0FBBC
:1066600001A91BEB090B4FF0000949EB0909E3FBFA
:1066700001B91CEB090C4FF0000949EB0909E4FBD7
:1066800001C91EEB090E4FF0000949EB0909E5FBB2
:1066900001E9109912EB09024FF0000949EB0909D1
:1066A000E0FB012916EB09064FF0000949EB090947
:1066B000E3FB016917EB09074FF0000949EB0909F2
:1066C000E4FB017918EB09084FF0000949EB0909CF
:1066D000E5FB0189CDF80CA0089901F1100191E8C2
:1066E000390009994FF0000AE0FB01BA1CEB0A0CD3
:1066F0004FF0000A4AEB0A0AE3FB01CA1EEB0A0E3E
:106700004FF0000A4AEB0A0AE4FB01EA12EB0A0224
:106710004FF0000A4AEB0A0AE5FB012A0D9916EB35
:106720000A064FF0000A4AEB0A0AE0FB016A17EB7F
:106730000A074FF0000A4AEB0A0AE3FB017A18EB5A
:106740000A084FF0000A4AEB0A0AE4FB018A19EB37
:106750000A094FF0000A4AEB0A0AE5FB019ACDF854
:1067600010B00A994FF0000BE0FB01CB1EEB0B0EB3
:106770004FF0000B4BEB0B0BE3FB01EB12EB0B02AF
:106780004FF0000B4BEB0B0BE4FB012B16EB0B0656
:106790004FF0000B4BEB0B0BE5FB016B0E9917EB6E
:1067A0000B074FF0000B4BEB0B0BE0FB017B18EBE7
:1067B0000B084FF0000B4BEB0B0BE3FB018B19EBC2
:1067C0000B094FF0000B4BEB0B0BE4FB019B1AEB9F
:1067D0000B0A4FF0000B4BEB0B0BE5FB01ABCDF8BD
:1067E00014C00B994FF0000CE0FB01EC12EB0C0213
:1067F0004FF0000C4CEB0C0CE3FB012C16EB0C06E1
:106800004FF0000C4CEB0C0CE4FB016C17EB0C078D
:106810004FF0000C4CEB0C0CE5FB017C0F9918EBD6
:106820000C084FF0000C4CEB0C0CE0FB018C19EB4E
:106830000C094FF0000C4CEB0C0CE3FB019C1AEB29
:106840000C0A4FF0000C4CEB0C0CE4FB01AC1BEB06
:106850000C0B4FF0000C4CEB0C0CE5FB01BCCDF825
:1068600018E00C994FF0000EE0FB012E16EB0E061F
:106870004FF0000E4EEB0E0EE3FB016E17EB0E0712
:106880004FF0000E4EEB0E0EE4FB017E18EB0E08EF
:106890004FF0000E4EEB0E0EE5FB018E109919EB3A
:1068A0000E094FF0000E4EEB0E0EE0FB019E1AEBB0
:1068B0000E0A4FF0000E4EEB0E0EE3FB01AE1BEB8B
:1068C0000E0B4FF0000E4EEB0E0EE4FB01BE1CEB68
:1068D0000E0C4FF0000E4EEB0E0EE5FB01CE4FF00E
:1068E0002601DDE900344FF00000E6FB01302418FA
:1068F0004FF0000040EB0000E7FB0140DDE90256ED
:106900002D184FF0000040EB0000E8FB0150361856
:106910004FF0000040EB0000E9FB0160DDE9048975
:1069200018EB00084FF0000040EB0000EAFB01808C
:1069300019EB00094FF0000040EB0000EBFB019069
:10694000DDF818A01AEB000A4FF0000040EB000041
:10695000ECFB01A012184FF0000040EB0000EEFB32
:10696000012000FB01F01B1854F1000455F1000553
:1069700056F1000658F1000759F100085AF10009D4
:1069800052F1000A60EB000021EA0000034407987E
:1069900080E8F80711B0BDE8F08F2DE9F00791E825
:1069A000F0174EF6A1514FEA4101A4FB01234FF02D
:1069B0000004E5FB01344FF00005E6FB01454FF014
:1069C0000006E7FB01564FF00007E8FB01674FF0B8
:1069D0000008E9FB01784FF00009EAFB01894FF05C
:1069E000000AECFB019A4FF026010AFB01FA12EBB8
:1069F0000A0253F1000354F1000455F1000556F169
:106A0000000657F1000758F1000859F100096AEB38
:106A10000A0A21EA0A010A4480E8FC03BDE8F007FB
:106A200070472DE9F00390E8F8134FEAEC7202F09A
:106A300013022CF0004C02F11301591854F100011B
:106A400055F1000156F1000157F1000158F1000124
:106A500059F100015CF100014FEAE17101F013010D
:106A600011445B1854F1000455F1000556F100067D
:106A700057F1000758F1000859F100094CF1000CDA
:106A80002CF0004C80E8F813BDE8F003704700BF1D
:106A90002DE9F00791E8F807B2E802105B1854EB13
:106AA0000C04B2E802104D4156EB0C06B2E802109D
:106AB0004F4158EB0C08B2E8021059EB01095AEBB0
:106AC0000C0A8941B3F1FF3374F1FF3475F1FF35DE
:106AD00076F1000677F1000778F1000879F10109F5
:106AE0007AF1FF3A51F100014A425B184C414D41A5
:106AF00056F1000657F1000758F1000859EB02095A
:106B00005AEB010A80E8F807BDE8F00770472DE965
:106B1000F00791E8F807B2E802105B1A74EB0C0476
:106B2000B2E802108D4176EB0C06B2E802108F41FC
:106B300078EB0C08B2E8021079EB01097AEB0C0A49
:106B400089414A425B184C414D4156F1000657F1CC
:106B5000000758F1000859EB02095AEB010A80E8D6
:106B6000F807BDE8F00770470A462DE9F04F92E8B4
:106B7000F00F2DE9F30F87B091E839000999A0FBD8
:106B800001784FF00009E3FB01894FF0000AE4FBB4
:106B9000019A4FF0000BE5FB01AB0D994FF0000C93
:106BA000E0FB01BC4FF0000EE3FB01CE4FF0000212
:106BB000E4FB01E24FF00006E5FB012600970A998D
:106BC0004FF00007E0FB018719EB07094FF00007C2
:106BD00047EB0707E3FB01971AEB070A4FF00007A3
:106BE00047EB0707E4FB01A71BEB070B4FF0000780
:106BF00047EB0707E5FB01B70E991CEB070C4FF0BD
:106C0000000747EB0707E0FB01C71EEB070E4FF03D
:106C1000000747EB0707E3FB01E7D2194FF0000736
:106C200047EB0707E4FB0127F6194FF0000747EB96
:106C30000707E5FB0167CDF804800B994FF00008CA
:106C4000E0FB01981AEB080A4FF0000848EB08082F
:106C5000E3FB01A81BEB080B4FF0000848EB08080A
:106C6000E4FB01B81CEB080C4FF0000848EB0808E7
:106C7000E5FB01C80F991EEB080E4FF0000848EB2A
:106C80000808E0FB01E812EB08024FF0000848EBAF
:106C90000808E3FB012816EB08064FF0000848EB54
:106CA0000808E4FB016817EB08074FF0000848EB01
:106CB0000808E5FB0178CDF808900C994FF0000921
:106CC000E0FB01A91BEB090B4FF0000949EB090997
:106CD000E3FB01B91CEB090C4FF0000949EB090972
:106CE000E4FB01C91EEB090E4FF0000949EB09094D
:106CF000E5FB01E9109912EB09024FF0000949EB9D
:106D00000909E0FB012916EB09064FF0000949EBE0
:106D10000909E3FB016917EB09074FF0000949EB8B
:106D20000909E4FB017918EB09084FF0000949EB68
:106D30000909E5FB0189CDF80CA0089901F11001C2
:106D400091E8390009994FF0000AE0FB01BA1CEB09
:106D50000A0C4FF0000A4AEB0A0AE3FB01CA1EEBD9
:106D60000A0E4FF0000A4AEB0A0AE4FB01EA12EBB2
:106D70000A024FF0000A4AEB0A0AE5FB012A0D99C4
:106D800016EB0A064FF0000A4AEB0A0AE0FB016A1A
:106D900017EB0A074FF0000A4AEB0A0AE3FB017AF5
:106DA00018EB0A084FF0000A4AEB0A0AE4FB018AD2
:106DB00019EB0A094FF0000A4AEB0A0AE5FB019AAF
:106DC000CDF810B00A994FF0000BE0FB01CB1EEBA1
:106DD0000B0E4FF0000B4BEB0B0BE3FB01EB12EB3D
:106DE0000B024FF0000B4BEB0B0BE4FB012B16EBF4
:106DF0000B064FF0000B4BEB0B0BE5FB016B0E99F9
:106E000017EB0B074FF0000B4BEB0B0BE0FB017B81
:106E100018EB0B084FF0000B4BEB0B0BE3FB018B5C
:106E200019EB0B094FF0000B4BEB0B0BE4FB019B39
:106E30001AEB0B0A4FF0000B4BEB0B0BE5FB01AB16
:106E4000CDF814C00B994FF0000CE0FB01EC12EBF5
:106E50000C024FF0000C4CEB0C0CE3FB012C16EB7E
:106E60000C064FF0000C4CEB0C0CE4FB016C17EB28
:106E70000C074FF0000C4CEB0C0CE5FB017C0F9960
:106E800018EB0C084FF0000C4CEB0C0CE0FB018CE9
:106E900019EB0C094FF0000C4CEB0C0CE3FB019CC4
:106EA0001AEB0C0A4FF0000C4CEB0C0CE4FB01ACA1
:106EB0001BEB0C0B4FF0000C4CEB0C0CE5FB01BC7E
:106EC000CDF818E00C994FF0000EE0FB012E16EB08
:106ED0000E064FF0000E4EEB0E0EE3FB016E17EBAD
:106EE0000E074FF0000E4EEB0E0EE4FB017E18EB8A
:106EF0000E084FF0000E4EEB0E0EE5FB018E1099C2
:106F000019EB0E094FF0000E4EEB0E0EE0FB019E4A
:106F10001AEB0E0A4FF0000E4EEB0E0EE3FB01AE25
:106F20001BEB0E0B4FF0000E4EEB0E0EE4FB01BE02
:106F30001CEB0E0C4FF0000E4EEB0E0EE5FB01CEDF
:106F4000DDE90434069913EB0A0354EB0B0451EB0F
:106F50000C0152EB0E02002040F1000013EB0B037A
:106F600054EB0C0451EB0E0152EB0E024641002093
:106F7000474158EB000859EB0A0940F10000B3EB18
:106F80000E0374F1000471F1000172EB0A0276EB5A
:106F90000B0677EB0C0778EB0A0879EB0C0960F12C
:106FA0000000B2EB0B0276EB0C0677EB0E0778EBEA
:106FB0000B0879EB0E0960F100005FEAE07C7FEAE4
:106FC0000C0CDCF1000EB3EB0C0374EB0C0471EB56
:106FD0000C0172F1000276F1000677F1000778EB00
:106FE0000E0879EB0C0960F100005FEAE07CDCF14F
:106FF000000E13EB0C0354EB0C0451EB0C0152F19B
:10700000000256F1000657F1000758EB0E0859EB45
:107010000C0940F100005FEAE07CDCF1000E13EBAC
:107020000C0354EB0C0451EB0C0152F1000256F12D
:10703000000657F1000758EB0E0859EB0C09DDE983
:1070400000ABDDE902CE1AEB060A5BEB070B5CEB4B
:10705000080C5EEB090E002040F100001AEB070A55
:107060005BEB080B5CEB090C5EEB090E4341002067
:1070700044414141724140F10000BAEB090A7BF101
:10708000000B7CF1000C7EEB060EBB4174EB080498
:10709000B14172EB080260F10000BEEB070E73EB2A
:1070A000080374EB0904B94172EB090260F10000B6
:1070B0005FEAE0787FEA0808D8F10009BAEB080A2D
:1070C0007BEB080B7CEB080C7EF1000E73F10003E8
:1070D00074F1000471EB090172EB080260F1000029
:1070E0005FEAE078D8F100091AEB080A5BEB080BBD
:1070F0005CEB080C5EF1000E53F1000354F1000448
:1071000051EB090152EB080240F100005FEAE07820
:10711000D8F100091AEB080A5BEB080B5CEB080CD2
:107120005EF1000E53F1000354F1000451EB09012C
:1071300052EB08020798A0E8005C18C080E806003F
:1071400011B0BDE8F08F00BF70B491E87800B2E8EC
:1071500002105B1854EB0C04B2E802104D4156EBE0
:107160000C0680E878008041013070BC70472DE942
:10717000F00791E8F807B2E802105B1854EB0C0432
:10718000B2E802104D4156EB0C06B2E802104F4136
:1071900058EB0C08B2E8021059EB01095AEB0C0A43
:1071A00080E8F80780410130BDE8F00770472DE91D
:1071B000F00791E8F807B2E802105B1A74EB0C04D0
:1071C000B2E802108D4176EB0C06B2E802108F4156
:1071D00078EB0C08B2E8021079EB01097AEB0C0AA3
:1071E00080E8F80780414042BDE8F00770472DE98C
:1071F000F007524290E87800B1E880071740DB19A9
:1072000018EA020854EB080419EA020955EB0905CB
:107210001AEA020A56EB0A0678C090E87800B1E84C
:10722000800717407B4118EA020854EB080419EA6A
:10723000020955EB09051AEA020A56EB0A0678C05C
:1072400080410130BDE8F00770472DE9F007524258
:1072500090E87800B1E880071740DB1B18EA0208C5
:1072600074EB080419EA020975EB09051AEA020A27
:1072700076EB0A0678C090E87800B1E880071740FE
:10728000BB4118EA020874EB080419EA020975EB1D
:1072900009051AEA020A76EB0A0678C080414042E4
:1072A000BDE8F007704790E8300091E8C000A31BEC
:1072B0001340E41AF618EB1B1340ED1AFF1830C008
:1072C000C0C17047F0B55242FFF7EDFFFFF7EBFF8B
:1072D000FFF7E9FFFFF7E7FFF0BD2DE9F0073AC937
:1072E0001668A1FB069A4FF0000CE3FB06AC4FF0CA
:1072F0000007E4FB06C74FF00008E5FB067840F8FE
:10730000049B56684FF00009E1FB06A91CEB090C31
:107310004FF0000949EB0909E3FB06C917EB090720
:107320004FF0000949EB0909E4FB067918EB09085D
:107330004FF0000949EB0909E5FB068940F804AB69
:1073400096684FF0000AE1FB06CA17EB0A074FF0F8
:10735000000A4AEB0A0AE3FB067A18EB0A084FF028
:10736000000A4AEB0A0AE4FB068A19EB0A094FF005
:10737000000A4AEB0A0AE5FB069A40F804CBD668F5
:107380004FF0000CE1FB067C18EB0C084FF0000CF2
:107390004CEB0C0CE3FB068C19EB0C094FF0000CCA
:1073A0004CEB0C0CE4FB069C1AEB0C0A4FF0000CA7
:1073B0004CEB0C0CE5FB06AC80E88017BDE8F00751
:1073C00070470A462DE9F04F92E8F00F2DE9F30FD0
:1073D00087B091E839000999A0FB01784FF00009C6
:1073E000E3FB01894FF0000AE4FB019A4FF0000B28
:1073F000E5FB01AB0D994FF0000CE0FB01BC4FF039
:10740000000EE3FB01CE4FF00002E4FB01E24FF07F
:107410000006E5FB012600970A994FF00007E0FB04
:10742000018719EB07094FF0000747EB0707E3FB5C
:1074300001971AEB070A4FF0000747EB0707E4FB39
:1074400001A71BEB070B4FF0000747EB0707E5FB16
:1074500001B70E991CEB070C4FF0000747EB07072D
:10746000E0FB01C71EEB070E4FF0000747EB0707D5
:10747000E3FB01E7D2194FF0000747EB0707E4FBF6
:107480000127F6194FF0000747EB0707E5FB0167F7
:10749000CDF804800B994FF00008E0FB01981AEB3F
:1074A000080A4FF0000848EB0808E3FB01A81BEBB3
:1074B000080B4FF0000848EB0808E4FB01B81CEB90
:1074C000080C4FF0000848EB0808E5FB01C80F99CD
:1074D0001EEB080E4FF0000848EB0808E0FB01E83F
:1074E00012EB08024FF0000848EB0808E3FB012804
:1074F00016EB08064FF0000848EB0808E4FB0168AB
:1075000017EB08074FF0000848EB0808E5FB017887
:10751000CDF808900C994FF00009E0FB01A91BEB96
:10752000090B4FF0000949EB0909E3FB01B91CEB1A
:10753000090C4FF0000949EB0909E4FB01C91EEBF6
:10754000090E4FF0000949EB0909E5FB01E9109923
:1075500012EB09024FF0000949EB0909E0FB012990
:1075600016EB09064FF0000949EB0909E3FB016935
:1075700017EB09074FF0000949EB0909E4FB017912
:1075800018EB09084FF0000949EB0909E5FB0189EF
:10759000CDF80CA0089901F1100191E83900099982
:1075A0004FF0000AE0FB01BA1CEB0A0C4FF0000A96
:1075B0004AEB0A0AE3FB01CA1EEB0A0E4FF0000A6F
:1075C0004AEB0A0AE4FB01EA12EB0A024FF0000A56
:1075D0004AEB0A0AE5FB012A0D9916EB0A064FF061
:1075E000000A4AEB0A0AE0FB016A17EB0A074FF0B0
:1075F000000A4AEB0A0AE3FB017A18EB0A084FF08B
:10760000000A4AEB0A0AE4FB018A19EB0A094FF067
:10761000000A4AEB0A0AE5FB019ACDF810B00A9974
:107620004FF0000BE0FB01CB1EEB0B0E4FF0000BFD
:107630004BEB0B0BE3FB01EB12EB0B024FF0000BE0
:107640004BEB0B0BE4FB012B16EB0B064FF0000B87
:107650004BEB0B0BE5FB016B0E9917EB0B074FF098
:10766000000B4BEB0B0BE0FB017B18EB0B084FF017
:10767000000B4BEB0B0BE3FB018B19EB0B094FF0F2
:10768000000B4BEB0B0BE4FB019B1AEB0B0A4FF0CF
:10769000000B4BEB0B0BE5FB01ABCDF814C00B99CA
:1076A0004FF0000CE0FB01EC12EB0C024FF0000C71
:1076B0004CEB0C0CE3FB012C16EB0C064FF0000C12
:1076C0004CEB0C0CE4FB016C17EB0C074FF0000CBF
:1076D0004CEB0C0CE5FB017C0F9918EB0C084FF000
:1076E000000C4CEB0C0CE0FB018C19EB0C094FF07F
:1076F000000C4CEB0C0CE3FB019C1AEB0C0A4FF05A
:10770000000C4CEB0C0CE4FB01AC1BEB0C0B4FF036
:10771000000C4CEB0C0CE5FB01BCCDF818E00C990F
:107720004FF0000EE0FB012E16EB0E064FF0000EA0
:107730004EEB0E0EE3FB016E17EB0E074FF0000E43
:107740004EEB0E0EE4FB017E18EB0E084FF0000E20
:107750004EEB0E0EE5FB018E109919EB0E094FF062
:10776000000E4EEB0E0EE0FB019E1AEB0E0A4FF0E0
:10777000000E4EEB0E0EE3FB01AE1BEB0E0B4FF0BB
:10778000000E4EEB0E0EE4FB01BE1CEB0E0C4FF098
:10779000000E4EEB0E0EE5FB01CE079800F11C012A
:1077A00081E8C45FBDE8F80380E8F8030AB0BDE8EB
:1077B000F08F00BF2DE9F05F0546002092469B4602
:1077C00088460646814640241BE0284641464746F7
:1077D000224600F025F953465A46C01A914110D36B
:1077E00011461846224600F016F82D1A67EB0108DC
:1077F0004F4622460120002100F00DF817EB00094A
:107800004E41201EA4F10104DFDC484631462A46E1
:107810004346BDE8F09F202A04DB203A00FA02F13B
:10782000002070479140C2F1200320FA03F319436E
:1078300090407047004870471484030010B5441A04
:107840000346944209D28418114403E011F8013D23
:1078500004F8013D521EF9D210BD40EA0104A4070C
:1078600003D009E010C9121F10C3042AFAD203E0A2
:1078700011F8014B03F8014B521EF9D210BDD2B2E0
:1078800001E000F8012B491EFBD270470022F6E709
:1078900010B513460A4604461946FFF7F0FF204686
:1078A00010BD421C10F8011B0029FBD1801A704743
:1078B00030B504460020034600E05B1C934203D22F
:1078C000E05CCD5C401BF8D030BD034611F8012BC5
:1078D00000F8012B002AF9D1184670472DE9FE4F18
:1078E00081EA030404F0004421F0004100944FF0C9
:1078F000000B23F0004350EA01045ED052EA030477
:107900005BD0C3F30A54C1F30A552C44A4F2F334F8
:107910000194A0FB0254C1F3130141F48011C3F39D
:10792000130343F4801301FB024400FB034E840A5B
:10793000970A44EA815447EA8357A4FB07680295F3
:107940008D0A05FB07854FEA932C04FB0C54270591
:10795000029D4FEA065847EA1637B5EB08056EEB6D
:10796000070C870E920E47EA811742EA8312A7FBA3
:107970000201B6EB0B0164EB00042B0D43EA0C3360
:107980005E1844EB1C50DA465146E7FB0201C5F392
:1079900013044FEA0B3343EA14534FEA0432019CB9
:1079A00043EA0603A4F10C040294009CCDE900B460
:1079B00000F055F803B0BDE8F08F00200146F9E76C
:1079C0000EB5C10F80EAE0700844CA07002140F2FA
:1079D00033438DE80E000A460B4600F040F803B032
:1079E00000BD70B5C1F30A5201F000450024C1F397
:1079F000130140F2FF3341F480119A4201DA002072
:107A000070BD40F233439A42A2F2334203DC524249
:107A100000F006F800E090402C43F1D0404270BDE9
:107A2000202A04DB203A21FA02F00021704721FAD3
:107A300002F3D040C2F1200291400843194670473A
:107A400010B5141E73F1000408DA401C41F1000166
:107A500092185B411A4301D120F0010010BD2DE9BD
:107A6000F04D92469B4611B1B1FA81F202E0B0FAB4
:107A700080F220329046FFF7CEFE04460F4640EAE1
:107A80000A0041EA0B0153465A46084313D01146F7
:107A900053EA010019D0C8F140025046FFF7C0FF79
:107AA00005460E46504659464246FFF7B4FE084387
:107AB00005D0012004E020463946BDE8F08D0020C5
:107AC000054346EAE0762C4337430A986305E40A07
:107AD000A0EB08000022FD0A44EA47540A3002D510
:107AE00000200146E9E7010510196941DDE9084573
:107AF00000196941BDE8F04DA2E70000064C074DB2
:107B000006E0E06840F0010394E80700984710346D
:107B1000AC42F6D3FEF778FB40A3030060A303005A
:107B200070B58C1810F8015B15F0070301D110F83F
:107B3000013B2A1106D110F8012B03E010F8016B6C
:107B400001F8016B5B1EF9D12B0705D40023521EEF
:107B50000DD401F8013BFAE710F8013BCB1A921C57
:107B600003E013F8015B01F8015B521EF9D5A14255
:107B7000D8D3002070BD00002DE9F047CA17A0B08F
:107B8000064600F120098C180F46544001464A462B
:107B9000684606F1400A06F16008FEF7B5FC51465A
:107BA000424608A8FEF7B0FC651E5246494610A89A
:107BB000FEF7AAFCED174246314618A8FEF7A4FCD2
:107BC000ED43064A2C40FB0F6946304602EB841217
:107BD00000F0B2F820B0BDE8F08700BF609C030061
:107BE0002DE9F047CA17A0B0054600F1200A8C180D
:107BF0000F46544001465246684605F1400905F1DA
:107C00006008FEF781FC4946424608A8FEF77CFC66
:107C1000661E4A46514610A8FEF776FCF617424605
:107C2000294618A8FEF770FCF6430834054A34408C
:107C3000FB0F6946284602EB841200F07DF820B065
:107C4000BDE8F087609C03002DE9F047CA17A0B09B
:107C5000054600F1200A8C180F4654400146524652
:107C6000684605F1400905F16008FEF74DFC4946FC
:107C7000424608A8FEF748FC661E4A46514610A830
:107C8000FEF742FCF6174246294618A8FEF73CFCD0
:107C9000F6431034054A3440FB0F6946284602EB90
:107CA000841200F049F820B0BDE8F087609C030022
:107CB00070B5A0B0044601F1200668460D46FEF7F7
:107CC00022FC314608A8FEF71EFC05F1400110A871
:107CD000FEF719FC10AA11461046FEF7A3FB6946F1
:107CE00018A800F045FB324629462046FEF79AFBCD
:107CF00021462046FEF707FC6A4621462046FEF74D
:107D0000C9FB04F1400508AA21462046FEF7C2FB44
:107D1000284608AA18A9FEF785FB10AA294604F1EF
:107D20002000FEF7B7FB08AA18A904F16000FEF7CF
:107D3000B1FB20B070BD00BF2DE9F0430D46A1B0EE
:107D400001F120091646044649462A4668469846E7
:107D500006F12007FEF79EFB49462A4608A8FEF7D3
:107D600061FB3946324610A8FEF794FB394632468D
:107D700018A8FEF757FB424618A910A8FFF7A2FA69
:107D800010AA69466846FEF7BFFB08A918AA08466C
:107D9000FEF7BAFB3A46314610A8FEF7B5FB10A92C
:107DA00005F160020846FEF7AFFB10A90846144A29
:107DB000FEF7AAFB05F14002114618A8FEF732FBB8
:107DC0006A4608A92046FEF765FB04F120056A46CD
:107DD00008A904F16000FEF725FB4034284610AAEC
:107DE00018A9FEF757FB10AA18A92046FEF71AFBA0
:107DF000424629462046FFF765FA21B0BDE8F083E8
:107E0000A0A203002DE9F047CC7F0D78C0B00B464F
:107E100025F0070504F03F0493F8028049788DF8B7
:107E2000405044F040041D7F93F803C0D3F804E0B1
:107E30009F68D3F810A0DE688DF841108DF85F4080
:107E400011469C695A698DF842808DF85C5093F810
:107E50001D809B7F8DF843C081466D466846CDF8F6
:107E600044E01297CDF850A0159216948DF85D80DD
:107E70008DF85E30139600F055FA0FCD18AC0FC494
:107E800095E80F0084E80F006846012100F066FACB
:107E900018AD08A8002100F061FA0FCD20AC0FC486
:107EA00095E80F0084E80F0028A8012100F056FA99
:107EB00018AF0DF140084FF0060A002417F8016DC5
:107EC00046FA0AF505F001056C40224620A96846ED
:107ED000FFF7F8F9224628A908A8FFF7F3F908AA3E
:107EE000694630A8FEF79EFA08AA10466946FEF7D2
:107EF000D1FA28AA20A938A8FEF794FA28AA104691
:107F000020A9FEF7C7FA38A9084608AAFEF7FCFA26
:107F100028A9084630AAFEF7F7FA38AA28A920A807
:107F2000FEF780FA28A938AA0846FEF7B3FA20A976
:107F30000846FEF7E8FA28A90846FEF7E4FA28A959
:107F400018AA0846FEF7E0FA30A90846FEF7DBFA61
:107F500008A938A8FEF7D7FA38AA30A96846FEF76C
:107F6000D3FA30A938AA0846FEF794FA30A908A82F
:107F7000FEF713FD08A9084638AAFEF753FA08A928
:107F80000AF1FF3A30AA0846FEF7BEFABAF1FF3FFF
:107F90002C4695D147454FF0070A8FD108A90846CE
:107FA000012200F0F7F908AA69466846FEF7ACFA24
:107FB0006946484600F0FCFA40B0BDE8F08700BFD3
:107FC000014AFFF71FBF00BF3C9903002DE9F047AE
:107FD000B8B08A468146114610A8514AFFF7E7F823
:107FE0005049024610A8FFF702F9179F4C4900EAD2
:107FF000D7778046C7F1010210A8FFF7F8F8179D60
:10800000524628A918A8ED4301F098F8ED0F20A9D1
:10801000C5F10102084600F0E3FAC8F10108FE26A6
:108020006A4618A928A801F03DF8731138AA02EB96
:10803000830306F01F0253F8A04CD44004F001045F
:1080400065402A4628A918A8FFF73CF92A4630A916
:1080500020A8FFF737F9013E28A918A800F0BCFFB7
:10806000731C2546DCD1C4F1010208A820A900F048
:10807000B7FA7D406A4618A928A801F013F828A984
:108080002A4618A8FFF71EF92A4630A920A8FFF7AC
:1080900019F908A96A460846FEF767FD08A90846C7
:1080A00000F0C2FA08A909F120040AF120020846EA
:1080B000FEF75BFD20A908AA2046FEF756FD08AA98
:1080C00018A96846FEF751FD69466846FEF74CFD63
:1080D00018AA694608A8FEF748FD21466846FEF73B
:1080E00043FD08AA69461046FEF711FD08A90E4A8D
:1080F0006846FEF70CFD20462021FEF786F908A908
:1081000043420246684643EA0808FFF7DBF8484660
:108110006946064AFEF729FD404638B0BDE8F087BB
:1081200020A30300209C0300E0A203003C2F0020BA
:108130000A460149FFF74ABF5C99030038B5044677
:108140000D4600F021FB05F1200104F12000BDE8FF
:10815000384000F019BB00BF30B599B005466846FD
:1081600000F084FB694608A8FFF7E2FF08A904466F
:108170002846FFF7E3FF204619B030BD10B5202296
:10818000B0B004460DEB020000F09AFB9DF83F30C2
:108190009DF8202003F07F0343F0400322F0070204
:1081A00008A968468DF83F308DF8202000F006FBC6
:1081B000694618A800F028F818A9204600F002F82F
:1081C00030B010BD30B599B004460D4610A840310E
:1081D000012200F0DFF810AA29466846FEF794F95C
:1081E00010AA05F1200108A8FEF78EF908A920467B
:1081F00000F0DEF9684600F0A9F8E37F83EAC010DA
:10820000E07719B030BD00BF2DE9F041B0B00446B1
:10821000684600F00BFB9DF93F30414DDA171344DF
:108220005340012B03F110021346B8BF002305EBA6
:1082300083150FCD27460FC70FCD0FC70FCD0FC723
:1082400095E80F0004F1400687E80F003046012151
:1082500000F084F8E84604F120070DF115052146E9
:1082600010A8FFF725FD18AA10A92046FEF74CF923
:1082700028AA20A93846FEF747F920AA18A93046AF
:10828000FEF742F9214610A8FFF712FD18AA10A91F
:108290002046FEF739F928AA20A93846FEF734F916
:1082A00020AA18A93046FEF72FF9214610A8FFF79B
:1082B000FFFC18AA10A92046FEF726F928AA20A933
:1082C0003846FEF721F920AA18A93046FEF71CF916
:1082D000214610A8FFF7ECFC15F9011D10A8FFF7C7
:1082E0004BFC95F9151010A8FFF77AFC95F92A10A8
:1082F00010A8FFF7A9FC18AA10A92046FEF704F958
:1083000028AA20A93846FEF7FFF820AA18A9304667
:10831000FEF7FAF8A845A2D130B0BDE8F08100BF61
:10832000609C03000B6803604B6843608B6883604C
:10833000CB68C3600B6903614B6943618B698361DF
:10834000CB6923F00043C361704700BF10B50446FA
:10835000FEF767FB206800F0010010BD002380E8F5
:108360000A008360C360036143618361C361704736
:1083700000B589B000230A46694600930193029331
:1083800003930493059306930793FEF783F809B0CC
:108390005DF804FBF0B5A1B00546684617460E46E9
:1083A000FEF7B1F8694618A8FEF7ADF818A9084617
:1083B000FEF7A9F8324618A908A8FEF7A5F86A46FC
:1083C00008A96846FEF7A0F8694618A8FEF79BF8CA
:1083D00008AA104618A9FEF797F808A918A8FEF7EA
:1083E00092F818A90846FEF78EF818A90846FEF775
:1083F0008AF818A90846FEF786F818A90846FEF775
:1084000082F808AA18A91046FEF77EF8022408A9E7
:1084100018A8FEF778F818A90846FEF774F818A906
:108420000846FEF770F818A90846FEF76CF818A978
:108430000846FEF768F8013C18A9E9D110A808AA77
:10844000FEF762F8042410A918A8FEF75CF818A932
:108450000846FEF758F818A90846FEF754F818A978
:108460000846FEF750F818A90846FEF74CF8013CFC
:1084700018A9E9D110AA0846FEF746F8022418A95F
:108480000846FEF740F818A90846FEF73CF818A978
:108490000846FEF738F818A90846FEF734F818A978
:1084A0000846FEF730F8013CE9D118A908AA10A83F
:1084B000FEF72AF80A2410A918A8FEF724F818A92C
:1084C0000846FEF720F818A90846FEF71CF818A978
:1084D0000846FEF718F818A90846FEF714F8013CFC
:1084E00018A9E9D110AA08A8FEF70EF8142408A9C3
:1084F00018A8FEF708F818A90846FEF704F818A906
:108500000846FEF700F818A90846FDF7FCFF18A971
:108510000846FDF7F8FF013C18A9E9D108AA08466A
:10852000FDF7F2FF0A2418A90846FDF7ECFF18A989
:108530000846FDF7E8FF18A90846FDF7E4FF18A96B
:108540000846FDF7E0FF18A90846FDF7DCFF013CEF
:10855000E9D118A9084610AAFDF7D6FF18A90846C0
:1085600067B9FDF7D0FF18A90846FDF7CCFF3246E2
:1085700018A92846FDF7C8FF21B0F0BDFDF7C3FFDD
:1085800018A90846FDF7BFFF18A90846FDF7BBFF6D
:1085900018A90846FDF7B7FF18A90846FDF7B3FF6D
:1085A0006A4618A92846FDF7AFFF21B0F0BD00BF0D
:1085B00038B50C4605460846FEF733FA23682B60AB
:1085C00063686B60A368AB60E368EB6023692B6151
:1085D00063696B61A369AB61E369EB6138BD00BF9F
:1085E0002DE9F0410D4606460F4690460FCD344624
:1085F0000FC495E80F0088B084E80F0000233A46C6
:10860000694668460093019302930393049305938C
:1086100006930793FEF77BFA424669463046FEF71B
:1086200051FE08B0BDE8F08170B598B00D46064621
:1086300010A8FEF799FA2A4610A96846FEF795FA9F
:10864000694610A8FEF790FA10A90846FEF78CFAC2
:108650006A4610A908A8FEF788FA08A910A8FEF72C
:1086600083FA10A90846FEF77FFA10A90846FEF71C
:108670007BFA10A90846FEF777FA10A908AA08465F
:10868000FEF773FA10A90846FEF76EFA10A908461D
:10869000FEF76AFA10A96A4608A8FEF766FA0524EA
:1086A00008A910A8FEF760FA10A90846FEF75CFAC0
:1086B000013C10A9F5D108AA0846FEF756FA052490
:1086C00010A90846FEF750FA10A90846FEF74CFA22
:1086D000013CF5D110A908AA0846FEF746FA10A9F0
:1086E00008A8FEF741FA08A90846FEF73DFA08A9CE
:1086F0006A466846FEF739FA1024694610A8FEF764
:1087000033FA10A90846FEF72FFA013C10A9F5D15B
:108710002A460846FEF729FA402410A90846FEF723
:1087200023FA10A90846FEF71FFA013CF5D110A95B
:108730006A460846FEF719FA102410A90846FEF703
:1087400013FA10A90846FEF70FFA013CF5D110A95B
:108750006A460846FEF709FA102410A90846FEF7F3
:1087600003FA10A90846FEF7FFF9013CF5D110A95C
:1087700008AA0846FEF7F9F92A4610A93046FEF77E
:10878000F4F918B070BD00BFCB691BBA03608B69E8
:108790001BBA43604B691BBA83600B691BBAC36089
:1087A000CB681BBA03618B681BBA43614B681BBA69
:1087B00083610B681BBAC361704700BFF0B50B46FD
:1087C00099B0DA69184D149218A9120F04465F681F
:1087D0009E68186941F85C2DDA68D3F800E00E97BE
:1087E0000F965F699E69109200232A46119005A892
:1087F000CDF834E0179316931593049303930293E3
:1088000012971396FEF769FD019B05AA1B070DA998
:1088100020460C93FEF7CBFCE2692946D20F204696
:10882000FEF7E5FC19B0F0BD409C0300F0B4002554
:10883000471E2C462A46E30814F0070F08BF51F8DC
:10884000235005F00F03134403F108021209013409
:10885000D6B2A3EB06133F2C4FEA151507F8013FDC
:10886000E9D1354480F83F50F0BC704738B50B680B
:10887000114D1BBAC3614B681BBA83618B681BBA6D
:108880004361CB681BBA03610B691BBAC3604B69B8
:108890001BBA83608B691BBA4360CB691BBA2A463B
:1088A000036001460446FEF782FC29460246204644
:1088B000BDE83840FEF79BBC00A3030000000000A9
:1088C0002DE9F04F0FF2B83BDBE900ABEEA7D7E99B
:1088D0000067B3B0EEA5D5E90045CDE900ABCDE921
:1088E00002670FF2B43BDBE900ABEDA7D7E9006705
:1088F000CDE90445ECA5D5E90045CDE906ABCDE9C8
:1089000008670FF2AC3BDBE900ABEBA7D7E90067E8
:10891000CDE90A45002480461546CDE90CABCDE9EA
:108920000E6731923094002A40F0798180238DF8CF
:10893000403032ABC3F1870303F0030302224FF050
:1089400041094FF07A0E01246E4610AF2046002BED
:1089500040F030817B2AAEEB030EC0F17A00AEF11D
:10896000040188BF00208908C01A013102284FEA9B
:10897000810C0CD903EB0902002332441846013361
:108980008B4242F8040BFAD3F445644412D032A966
:10899000631C214400227B2B01F8882C0AD032A9C9
:1089A0000B4402347B2C03F8882C03D032AB1C44DC
:1089B00004F8882C6A0B6B0939466C0D30466E0F33
:1089C000ED008DF8BB608DF8BC408DF8BD208DF8B2
:1089D000BE308DF8BF5000F0F5FD04A80FC893FA23
:1089E00083F9089B029D039C009F019EC8F8189084
:1089F00093FA83FE099BC8F824E02DBA24BA00BA82
:108A000009BA12BA93FA83FCC8F80C50C8F80840A7
:108A10000A9D0B9CC8F81400C8F810100C980D990A
:108A2000C8F81C200F9B0E9AC8F820C03FBA36BA6F
:108A30002DBA24BA00BA09BA12BA1BBAC8F804701F
:108A4000C8F80060C8F82C50C8F82840C8F83400AE
:108A5000C8F83010C8F83C20C8F8383033B0BDE84A
:108A6000F08F224610AF32A810440C7800F8884CE2
:108A7000501C83420CD932AC204402324C7800F8AE
:108A8000884C934204D932A80244897802F8881CA1
:108A900032AA581C1A4480217028309302F8881C8E
:108AA00073D97F286BD832AA1044991C00228029E0
:108AB00000F8882C63D032A80844D91C802900F81B
:108AC000882C5CD032A80844191D802900F8882C15
:108AD00055D032A80844591D802900F8882C4ED062
:108AE00032A80844991D802900F8882C47D032A864
:108AF0000844D91D802900F8882C40D032A80844A9
:108B000003F10801802900F8882C38D032A80844E5
:108B100003F10901802900F8882C30D032AA5018BE
:108B200003F10A010022802900F8882C27D032A8FE
:108B3000084403F10B01802900F8882C1FD032A8CB
:108B4000084403F10C01802900F8882C17D032A8C2
:108B5000084403F10D01802900F8882C0FD032A8B9
:108B6000084403F10E01802900F8882C07D032A8B0
:108B70000144702B01F8882C01D18DF8BF203946B3
:108B8000304600F01FFD7A286CD800F1400906EB52
:108B90000901421C7B2AC1F10001C0F17B0301F0F5
:108BA000030188BF0123994228BF1946062B319D36
:108BB0009E4659D832AC04440021012B04F8881C8D
:108BC0004ED00DF1C80C9444022B02F101040CF8B4
:108BD000881C20D00DF1C80CA444032B02F1020420
:108BE0000CF8881C17D00DF1C80CA444042B02F11A
:108BF00003040CF8881C0ED00DF1C80CA444062BFD
:108C000002F104040CF8881C05D10DF1C80CA44431
:108C1000541D0CF8881C73457FF49CAECAE6684668
:108C20000F4600F0E7FA291A6E4603463944F0B1C0
:108C3000043880085D1E0130022D4FEA80027FF665
:108C400010AF10AFBE460D46013455F804CB4EF8B8
:108C500004CB8442F8D39A4211447FF404AF17E75F
:108C60001446D8E7319DA5E604460B466EE632AFC2
:108C70008022309007F8882D012086E7AFF300802E
:108C800008C9BCF367E6096A3BA7CA8485AE67BB1F
:108C90002BF894FE72F36E3CF1361D5F3AF54FA54A
:108CA000D182E6AD7F520E511F6C3E2B8C68059B26
:108CB0006BBD41FBABD9831F79217E1319CDE05BDE
:108CC0002DE9F04F9FB0A1F108031C93D2E90E34B7
:108CD000CDE91634D2E90C34CDE90234D2E90A34B4
:108CE000CDE90034D2E90634CDE91834D2E90234B2
:108CF000CDE90634D2E90434CDE9043400F180032F
:108D0000D2E908ABD2E900891D9309909646014645
:108D100006E0CDE90689B2468946BB46804619463B
:108D2000F1E802451C9F09914FEA9A3242EA8B42D0
:108D3000F7E902010A924FEA9A434FEA9B364FEA5B
:108D40009B4243EA8B3346EA8A4642EA8A320C93D4
:108D50000D924FEACB530B96CDE91A0143EA5A2202
:108D6000DDE90C011C974FEACA53DDE90A670F924F
:108D700043EA5B220E9246404F40DDE90E0170400F
:108D8000794006460F464FEA1873DDE91A0143EAB7
:108D900009124FEA8973109243EA9802001913925C
:108DA0004FEA887269414FEA197342EA9902CDE9A4
:108DB0001A0143EA0815DDE900011292DDE90223F8
:108DC0004FEA4964119544EAD81515954240DDE90A
:108DD00002454B40DDE91A0103EA0B03801902EA60
:108DE0000A0285EA03054FEA486C79415440DDE9FF
:108DF00006672B464CEAD91514952246DDE9044551
:108E000046EA080647EA0907121804EA060405EAD2
:108E100007054B4126462F46DDE91001DDE91245E5
:108E20006040694004460D46DDE914016040694038
:108E300004460D46DDE9060100EA080001EA0901E1
:108E400030433943DDE91667B6185F4132463B4689
:108E5000DDE9186700196941B6185F41801859416A
:108E6000DDE90023DDE90245CEE90C23DDE9042339
:108E7000CEE90E45CEE90623CDE91645DDE9062308
:108E8000DDE90445CEE90423CDE90423CDE9184505
:108E9000099B1D9ADDE900459342CEE90AABCEE974
:108EA0000289CEE90867CDE90245CEE90001CDE9A6
:108EB00000AB7FF42EAF1FB0BDE8F08F2DE9F04F6F
:108EC0008FB0A0F108014FF0000E03917346AEF190
:108ED00002020EF1010E02F00F020EF00F0400EB81
:108EE000C20600EBC40550F834706D68746850F821
:108EF00032604FEA172AF90900914FEAD64C4AEA44
:108F0000056106914CEA4431089100994FEA550BEE
:108F100041EA45614FEA152A00914BEAC7717A0888
:108F200005914AEA0761039F0791D7E902AB42EA3C
:108F3000C5724FEAD44C4CEA46310492F700E20085
:108F400042EA56724FEA9618CDE90CAB0991DDE979
:108F500006AB47EA5471DDE904670B920A9186EA91
:108F60000A06E90987EA0B0748EA8468DDE90AABE3
:108F70004FEA9419DDE90845019184EA0A0485EA7B
:108F80000B05DDE900AB073B03F00F038AEA060A95
:108F90008BEA070B00EBC303D3E9002356465F4679
:108FA000DDE90CAB1AEB020A4BEB030B84EA080475
:108FB0001AEB06024BEB07030399121985EA090520
:108FC0006B41E1E90223BEF1100F03917FF47EAF04
:108FD0000FB0BDE8F08F00BFF0B599B004460E4663
:108FE0000A4601466846FDF792FD69466846FDF768
:108FF000BBFD6A46214608A806F1200504F12007BA
:10900000FDF7B3FD6A4631466846FDF7AEFD3946C9
:109010002A4610A8FDF73CFD2A4639462846FDF7AA
:1090200076FD29463046FDF79FFD6A4608A9204691
:10903000FDF72EFD224631463046FDF768FD6A46B3
:1090400008A96846FDF763FD6A4639463846FDF7CC
:109050008CFD324608A96846FDF759FD6A46294647
:109060002846FDF782FD3A4629462846FDF74FFD82
:1090700010A96846FDF778FD224669462046FDF7AF
:1090800046FD08A922460846FDF741FD10A908AA99
:109090000846FDF76AFD3A4610A93846FDF737FD48
:1090A00019B0F0BD2DE9F0410C4688B00546904658
:1090B000014622466846FDF72AFD69466846FDF7E7
:1090C00053FD6A462946284604F12006FDF74DFD6A
:1090D00005F120076A4621466846FDF746FD3246FF
:1090E00030463946FDF713FD31462046FDF73CFD7D
:1090F0002A4621462046FDF70AFD6A4621462046BB
:10910000FDF705FD6A4629464046FDF700FD42464B
:1091100039463846FDF729FD224629466846FDF7BF
:10912000F6FC6A4631463046FDF71FFD3A463146A9
:109130003046FDF7ECFC08B0BDE8F0812DE9F041C8
:1091400088B00D46074602F12001684607F1200667
:109150009046FDF709FD6A4669466846FDF798FCAA
:1091600030466946FDF700FD32463146304605F18E
:109170002004FDF78DFC6A4669466846FDF788FCC9
:1091800020464146FDF7F0FC6A4641463846FDF769
:10919000ECFC224621466846FDF77AFC22466946E9
:1091A0006846FDF775FC69466846114AFDF770FC94
:1091B00069462846FDF7D8FC3A4629462846FDF779
:1091C000A6FC3A4629462846FDF7A1FC2A46394620
:1091D0002046FDF79CFC6A4621462046FDF7C5FC6B
:1091E000324621462046FDF792FC08B0BDE8F081EA
:1091F000C0A203002DE9F04FE3B07F2A2F9240F286
:10920000D981D0E90467CDE90067D0E90667CDE9E7
:109210000267D0E90867CDE90467D0E90A67CDE9BC
:109220000667D0E90C678B46D0E902451146CDE9C7
:109230002C67D0E90023D0E90E67CDE90A23CDE9F8
:109240000867CDE90C4581462E91DBF80000DBF87C
:109250000810DBF81060DBF80CA0DBF814C0DBF8BA
:109260001CE0DBF834200BBA90FA80F8DBF8180029
:10927000DBF820100F9333BA1193DBF8286003BAA0
:109280001393DBF830000BBA1593DBF8381033BAC0
:10929000179303BA19930BBA1B93DDE90A34CDE98E
:1092A0003234DDE90C340027DBF82400DBF82C1025
:1092B0000E97CDE934341097129714971697189794
:1092C0001A97DBF83C30DBF80460DDE90045CDE9B6
:1092D0003645DDE90245CDE93845DDE90E459AFA26
:1092E0008AFA44EA0A040DF5887ACAE90045DDE9FC
:1092F0000445CDE93A45DDE910459CFA8CFC44EA89
:109300000C040DF58C7CCCE90045DDE912459EFA94
:109310008EFE44EA0E040DF5907ECEE90045DDE9AF
:109320000645CDE93C45DDE9144500BA44EA0004B0
:109330004AA8C0E90045DDE9164509BA44EA010436
:109340004CA9C1E90045DDE92C01DDE91845CDE96D
:109350003E01DDE91A0112BA1BBA44EA020440EAEE
:109360000300DDE9082336BA0DF5807ECEE900233F
:1093700047EA06024EAEC6E9004550ACC4E900011A
:10938000434642A9C1E90023DBF84030DBF8442022
:109390000C93DBF848A0DBF8501000911BBA1D932A
:1093A000009BDBF8580002901BBA2193029BDBF86C
:1093B000604004941BBA2393049BDBF86850069525
:1093C0001BBA2593069BDBF8706008961BBA27939F
:1093D000089BDBF878100A919AFA8AFA1BBADBF834
:1093E0004C40DBF85450DBF85C60DBF864E0DBF801
:1093F0006CC0DBF87400DBF87C10CDF87CA02993FE
:109400000A9B1C971BBA2B9394FA84FADDE91C344F
:1094100012BA43EA02031E9752AAC2E90034DDE9F8
:109420001E34209743EA0A0354AAC2E90034DDE956
:1094300020342DBA43EA0503229756AAC2E9003424
:10944000DDE9223436BA43EA0603249758AAC2E972
:109450000034DDE924349EFA8EFE43EA0E0326979B
:109460005AAAC2E90034DDE926349CFA8CFC43EAAE
:109470000C0328975CAAC2E900342A97DDE9283456
:10948000DDE92A5600BA43EA000309BA5EAAC2E936
:10949000003445EA010560AB32AA42A94748474C6F
:1094A000C3E90056FFF70CFC0BF1800B803442A897
:1094B000FFF704FD204632AA42A9FFF701FC404B0A
:1094C0009C42F3D1D9E90001DDE93223D9E9024513
:1094D000CDE90045141843EB0105D9E90A23DDE97C
:1094E0000001CDE90623DDE9342380185941024605
:1094F0000B46CDE90C23DDE93601D9E90423121826
:109500004B41CDE90A45CDE90023D9E90601DDE962
:109510003834C0186141CDE90201DDE93A34D9E9B6
:109520000801C0186141CDE90401DDE90634DDE937
:109530003C011B184C411846214640ABD9E90C456B
:10954000CDE90601D3E90001DDE93E23A4185D4120
:10955000D9E90E2312184B412E9ECDE90823DDE9EF
:109560000A12803EC9E900122E96CDE92C45DDE9AC
:109570000C23DDE90201C9E90223C9E90601DDE99D
:109580000023DDE90401C9E90423C9E90801DDE993
:109590000823DDE906017F2EC9E90A01C9E90C4566
:1095A000C9E90E233FF651AE2F9B03F07F0063B055
:1095B000BDE8F08F104663B0BDE8F08FA0990300BE
:1095C000A09B03002DE9F04F0E68D1F808C0D1F838
:1095D0000C908D69D1F810E0D1F82080B5B0044628
:1095E00033BA002001930090DDE900AB9CFA8CF3C4
:1095F00099FA89F94AEA0906C869D1F814C01F46E0
:10960000CDE916672FBA4D6A9EFA8EF300BA00268E
:10961000002246EA00069B462DBA98FA88F3D4E960
:109620000089CDE91A679CFA8CFC42EA05061F46C0
:109630004AEA0C0A4868CDE91C67DDE90067CDE914
:1096400018ABCDE90489D4E902ABD4E9068900BAA4
:1096500046EA0006CDE91467CDE906ABD4E9046714
:10966000D4E908ABCDE90A89D4E90C89CDE90867CA
:10967000CDE90CABD4E90A67D4E90EABCDE910898A
:10968000D1F82C908D6AD1F830C0886B0B6CD1F872
:1096900050E0D1F8588099FA89F9CDE90E6742EA8D
:1096A0000906D1F83490CDE912AB95FA85FB5F46F7
:1096B00099FA89F9CDE91E6742EA0906D1F83C908A
:1096C0008D6CD1F870A09CFA8CFB5F4699FA89F9F1
:1096D00090FA80FBCDE920671BBA42EA09065F4693
:1096E000CDE922671F464B6CD1F860C0886E1646E4
:1096F0001BBA46EA03062BBACDE924671F46CB6C9A
:109700008D6F002216461BBA46EA03069EFA8EF3B8
:10971000CDE926671F464B6DD1F85CE00022164666
:109720001BBA46EA030698FA88F3DDE90089CDE919
:1097300028679EFA8EFE1F4646464B6E46EA0E0688
:10974000CDE92A671BBA9CFA8CF748EA0308B946A8
:1097500090FA80FCCDE92C89C86ED1F874E0CB6F0B
:109760004FF0000B01BA4BEA01069AFA8AF2DDE9E2
:1097700000AB9EFA8EFE1BBA91463F482ABA4AEACF
:109780000E0867464AEA030A934614A904AACDE9DB
:109790002E670546CDE93089CDE932ABFFF790FA67
:1097A00005F50076803514A8FFF788FB284604AA43
:1097B00014A9FFF785FAB542F4D1D4E90001D4E940
:1097C0000256DDE90423CDE90056161843EB0107E4
:1097D000DDE90689DDE9002312EB080243EB09030A
:1097E000D4E904ABCDE90023DDE9082312EB0A023A
:1097F00043EB0B03DDE90A0192469B46D4E90623BD
:1098000012184B41D4E90889C4E90623DDE90C2389
:1098100012EB080243EB0903DDE90E01904699467D
:10982000D4E90A2312184B4110461946C4E90067CF
:10983000DDE91023D4E90C56AD185E41CDE902569E
:10984000DDE90056D4E90E23C4E90256DDE91267CA
:1098500092197B4116461F46DDE90223C4E90A013D
:109860000020C4E904ABC4E90889C4E90C23C4E9B5
:109870000E6735B0BDE8F08FA099030070B50023E6
:109880004FEA030431F8025B30F8026915FB063336
:10989000641CA12CF6DBB3F1804F02DB6FF0404378
:1098A00004E04FF04040834200DA0346D8131080B2
:1098B00070BD00002DE9F843224F0646A7F1580479
:1098C000214DA08989464FF0000850B10020414643
:1098D00025F81010401C80B2A128F9D3E181218223
:1098E000A181B4F90E00FEF76BF89FED181B53EC45
:1098F000112BFDF7F3FFFEF774F83188228A8A1ADC
:10990000104400B2E0812182861060896A4639469F
:1099100025F8106005EB4000FFF7B0FF208925F81F
:109920001060BDF80020A9F800206189401C491C86
:1099300080B261812081A02802D1A4F808806081D2
:10994000BDE8F883E82B0020F02F00205839B4C878
:1099500076BEEF3F2DE9F04700268AB0DFF8509140
:10996000B0464FF48075012437460696284607F026
:1099700075F938B1D9F80403204203D0284607F01E
:1099800063F926432D1D64007F1CADB2082FEDD373
:109990004FF4BE74204607F061F948B1204607F045
:1099A00053F946F0004606AA0121002007F038F9D5
:1099B000404D16F0FF0F15D00127002437420DD07F
:1099C00009EB8401D1F81005D1F81015C0F304207B
:1099D00055F82420C1F3014102B190477F00641C77
:1099E000082CEBD3002E5FDA4FF0FF30CDF810805B
:1099F00054E0281910F8507F90F9000027F0C008B3
:109A0000401C3BD007A9404605F039FF10B34FEA90
:109A10009719404602F08EFD55F820701FB1B9F13C
:109A2000030F03D006E0B9F1030F27D104A9404684
:109A300005F02DFF4FF0A04101EB8800D0F80007A2
:109A400006A9C0F3014A404605F019FF18B1BAF162
:109A5000020F03D012E0BAF1030F0FD1B9F1030FD7
:109A600008D1BAF1020F1DD00221404607F0AEF82E
:109A7000761CF6B217B149464046B847641C042C20
:109A8000B7D3002E10D06A460121002007F0C8F895
:109A900006990098884207D006900498002634461C
:109AA0000790A6E70321E0E70AB0BDE8F0870000D1
:109AB00000600040603D002000F01F020121914045
:109AC0004009800000F1E020C0F88012704700F0EB
:109AD0001F02012191404009800000F1E020C0F800
:109AE0000011704700F01F020121914040098000E1
:109AF00000F1E020C0F8001270474907090E002865
:109B000006DA00F00F0000F1E02080F8141D704725
:109B100000F1E02080F800147047000070B54FF4A9
:109B20008076304606F00AF9114CB50560B1304632
:109B300006F00BF90120C5F80803607920B901206F
:109B400060712168002088474FF48276304606F025
:109B5000F5F800280AD0304606F0F7F80220C5F8DC
:109B600008032168BDE870400120084770BD00006F
:109B70006C2E0020064882B0002101600068009031
:109B8000044800680449C0B2496802B008470000B0
:109B900000D1004008D500407C2E0020074800215D
:109BA000C0F84011C0F84411C0F84811C0F84C1179
:109BB000C0F80011C0F804110BF0AABB001001405E
:109BC00000F0F0B970B50E46144900EB400001EB0F
:109BD000C0051446E86A183520B101280FD00228C4
:109BE00005D113E0284600F011FAA04201D200246A
:109BF00011E022463146284600F040FA0BE02846A4
:109C000000F004FAA042F4D20446F2E731462846B6
:109C100000F007FA0446204670BD00007846002098
:109C2000F8B51248124E04464FF48C7107F0B3FE9B
:109C300000281AD00025C4F81851D4F81801009053
:109C4000F07F3446FF2806D0A17F11B106F0CFFF88
:109C500001E006F0D3FF65772572D4E9002101B059
:109C600004F10800BDE8F0401047F8BD00300040A6
:109C7000BC3D00200BF09ABA07F022BEF0B5B54803
:109C80000023021D0178101D01254FF08054062984
:109C90000BD11678360708D10678C6F30316032EC3
:109CA00006D0042E04D0052E02D0062907D00EE0DF
:109CB000B4F82463A84FC6F304263E6002E0167889
:109CC000360704D10678C6F30316032E02D0062900
:109CD00004D00FE0A24FA14E7E670EE01678360743
:109CE00008D10678C6F30316032E06D0042E04D03E
:109CF000052E02D0062907D00EE0D4F84462994F11
:109D0000C6F342363E6002E01678360704D1067884
:109D1000C6F30316032E02D0062906D011E0924E98
:109D2000376827F0807737600EE01678360708D15D
:109D30000678C6F30316032E06D0042E04D0052E93
:109D400002D006290AD011E04FF08046C6F80C3147
:109D5000C6F81031834E361F336002E0167836079E
:109D600004D10678C6F30316032E02D0062905D0C7
:109D70000CE07C4F032664373E600AE01678360715
:109D800004D10678C6F30316032E02D006290DD09F
:109D900014E0764F05263E60744E78363560734E7B
:109DA000083633603F263F1D3E6002E016783607D6
:109DB00004D10678C6F30316052E02D0062957D023
:109DC00062E06B4E36686B4F3E60694E361D3668FA
:109DD0003F1D3E60664E083636683F1D3E60644E4D
:109DE0000C3636683F1D3E60614E103636683F1DAA
:109DF0003E605F4E143636683F1D3E605C4E18363E
:109E000036685C4F20373E60594E1C3636683F1D21
:109E10003E60574E203636683F1D3E60544E243615
:109E200036683F1D3E60524E283636683F1D3E6004
:109E30004F4E2C3636683F1D3E604D4E30363668EC
:109E40004C4F40373E604A4E343636683F1D3E60C8
:109E5000474E383636683F1D3E60454E3C363668C4
:109E60003F1D3E60424E403636683F1D3E6002E078
:109E70001678360708D10678C6F30316032E06D0E7
:109E8000042E04D0052E02D0062907D019E0D4F8FC
:109E90005812394A01F04F01116002E011780907A8
:109EA0000FD10078C0F30310032803D0042801D099
:109EB000052806D131480168C90702D06FF00101B9
:109EC0000160D4F83001062808D1D4F834010628FE
:109ED00004D12B48016841F4806101602248743844
:109EE000016841F470010160BFF34F8FBFF36F8FC2
:109EF0004FF01021D1F80002002803DBD1F8040252
:109F0000002822DA1F4A15601F480468002CFCD084
:109F10001524C1F800420568002DFCD0C1F80442A8
:109F200001680029FCD0136001680029FCD0BFF350
:109F30004F8F0D48F0380168144A01F4E061114375
:109F40000160BFF34F8F00BFFDE712491048086062
:109F5000F0BD0000E00F00F0403501400DF0ADBA5B
:109F600000C007403C050040FCED00E010560040FA
:109F70000404001020C50040E40E0040000400402E
:109F80003C17004004E5014000E401400400FA05EC
:109F90000090D003382F00200148006800470000DF
:109FA000742E002010B5124C02202061606111A0B7
:109FB000A06104F17800E0614FF40070206200209D
:109FC000A06260620BA1A164E06204F51E71E1640D
:109FD0001021A065C4E91410E06509A1E01DFDF79A
:109FE00074FC08A12046FDF770FC2020A07110BD74
:109FF000784600205465726D696E616C0000000047
:10A000005254540053454747455200000269C16805
:10A010008A4203D88068401A104400E0501A401E5B
:10A0200070472DE9F047C4681746894606464FF049
:10A0300000083069A04201D9051B02E0B168201A6E
:10A040000D1AB0686D1E001BA84200D80546BD421F
:10A0500000D33D4670682A4620444946FDF7EEFB92
:10A06000B0687F1B2C44A844A944A04200D100241E
:10A07000F460002FDDD14046BDE8F0872DE9F041C6
:10A0800004468846D4E90207C51BE16860681646A5
:10A090000844B54206D94146FDF7D0FBB819E06047
:10A0A000BDE8F0812A464146FDF7C8FB761B08EB68
:10A0B000050132466068FDF7C1FBE660F0E702E0AB
:10A0C00008C8121F08C1002AFAD170477047002043
:10A0D00001E001C1121F002AFBD170470121202895
:10A0E00003DA81400548014003E0402802DA2038C5
:10A0F000814009B10120704700207047FC06FFBD78
:10A10000082806D20121814011F0EC0F01D0012076
:10A1100070470020704700002DE9F843804643F265
:10A12000020659B9694608F0DBFEB04202D008B118
:10A1300000F014FB9DF80000800744D40021404645
:10A1400008F00AFF05003ED0112D3CD01F482049E1
:10A15000401AC708022000EB07440D2D0AD00B2D32
:10A160001DD0B5421FD11B4920464246BDE8F843E9
:10A1700006F068BF20464246174906F063FF1321E8
:10A18000404676DF00281ED007F030FC024601B0C2
:10A1900020464346BDE8F04310A106F05ABF2046D2
:10A1A00042461C49E2E7284607F020FC024601200F
:10A1B00000EB0740434618A106F04BFF2846BDE8D8
:10A1C000F84300F0CBBABDE8F8830000C0A3030059
:10A1D00078A30300CC8B0300588B030073645F6289
:10A1E0006C655F6761705F646973636F6E6E6563F2
:10A1F0007428292072657475726E65642025732039
:10A200006F6E20636F6E6E5F68616E646C65202593
:10A21000642E0000188C0300417373657274696EBC
:10A22000672E20706D5F636F6E6E5F73656375720E
:10A230006528292072657475726E65642025732007
:10A240006F6E20636F6E6E5F68616E646C65202553
:10A25000642E000010B560B159B102780B78520835
:10A26000B2EB530F05D10622401C491CFDF720FB21
:10A2700008B1002010BD012010BD800701D00020D2
:10A28000704701207047C3688B4206D811440069AB
:10A29000491E814201D8012070470020704700000C
:10A2A0002DE9FF41C74C01A9A0690190102007F0DA
:10A2B000E9FC102007F046FD642005F0FDFFE06991
:10A2C000029002A9102007F0DDFC102007F0D2FC5C
:10A2D000642005F0F1FF206A039003A9102007F025
:10A2E000D1FC102007F02EFD642005F0E5FFB648F4
:10A2F000B6490327401AC00807EB0040B4A106F096
:10A300009DFEB94D062001262870B84B32462946DD
:10A3100004F14800009606F0D7F808B100F01EFAE4
:10A32000642005F0C9FF4FF01108A64885F80080A9
:10A33000AE4B0122AC494830009606F0C5F808B192
:10A3400000F00CFA642005F0B7FF422028700024CA
:10A350009C4823460122A4494830009406F0B4F8F2
:10A3600008B100F0FBF90A2005F0A6FF95482C7013
:10A37000002301229C494830009406F0A5F808B15A
:10A3800000F0ECF90A2005F097FFE02028708D48D6
:10A390000023012294494830009406F095F808B152
:10A3A00000F0DCF90A2005F087FF4320287085487B
:10A3B000002301228C494830009406F085F808B14A
:10A3C00000F0CCF90A2005F077FF7E482C700023BE
:10A3D000012285494830009406F076F808B100F073
:10A3E000BDF90A2005F068FFF020287075480023A9
:10A3F00001227D494830009406F066F808B100F06B
:10A40000ADF90A2005F058FF462028706D4800235A
:10A41000012275494830009406F056F808B100F062
:10A420009DF90A2005F048FF66482C7000230122A0
:10A430006D494830009406F047F808B100F08EF9F5
:10A440000A2005F039FF2C2028705E4800230122E5
:10A4500065494830009406F037F808B100F07EF9FD
:10A460000A2005F029FF47202870564800230122C2
:10A470005D494830009406F027F808B100F06EF905
:10A480000A2005F019FF4F482C700023012256497D
:10A490004830009406F018F808B100F05FF90A207F
:10A4A00005F00AFF0F2028704648002301224E497C
:10A4B0004830009406F008F808B100F04FF90A207F
:10A4C00005F0FAFE492028703E4800230122464943
:10A4D0004830009405F0F8FF08B100F03FF90A2079
:10A4E00005F0EAFE37482C70002301223E4948302F
:10A4F000009405F0E9FF08B100F030F90A2005F0FA
:10A50000DBFE022028702F48002301223649483004
:10A51000009405F0D9FF08B100F020F90A2005F0F9
:10A52000CBFE4A2028702748002301222E494830BC
:10A53000009405F0C9FF08B100F010F90A2005F0F9
:10A54000BBFE20482C70002301222749483000948C
:10A5500005F0BAFF08B100F001F90A2005F0ACFEE1
:10A5600018482F70002301221F494830009405F03D
:10A57000ABFF08B100F0F2F80A2005F09DFE1020B4
:10A5800028701048194B012217494830009605F0F1
:10A590009BFF08B100F0E2F8642005F08DFE094849
:10A5A00085F80080114B01220F494830009605F0D4
:10A5B0008BFF08B100F0D2F8642005F07DFEBDE805
:10A5C000FF810000705B030040A4030078A3030038
:10A5D000535049206578616D706C652073746172A9
:10A5E0007465642E00000000A22B0020743200204D
:10A5F00010B501220221002001F0F2FD08B1072868
:10A6000010D107220221012001F0EAFD08B107283C
:10A6100008D100210A22084601F0E2FD08B107280E
:10A6200000D1002010BD000010B560B10B480C49EE
:10A63000401AC008032101EB00400AA106F0FEFC0D
:10A6400009F0D6F903E003210A4800F029FE0028AA
:10A6500003D0BDE8104000F081B810BD40A4030055
:10A6600078A30300457261736520626F6E64732185
:10A67000000000001C33002070B58CB015460E465B
:10A6800000236C46C3F10F01415CE1545B1C102BAD
:10A69000F8D30D2104F11000FDF7F8F80020C0F107
:10A6A0000F02315C2244401C11740328F7D3684622
:10A6B00046DF0020C0F10F01214491F820102954F9
:10A6C000401C0328F6D30CB070BD00000149C978C6
:10A6D00001F044B8F42D002072B606F06FFD00BF03
:10A6E00006F092FB0028FBD111481249401AC40819
:10A6F000012000EB044010A106F0A0FC1148006806
:10A70000C00700D000BE022000EB04400EA106F0FE
:10A7100095FCBFF34F8F0B48E43801680E4A01F4F3
:10A72000E06111430160BFF34F8F00BFFDE7000000
:10A7300040A4030078A30300466174616C20657235
:10A74000726F7200F0ED00E053797374656D2072E2
:10A7500065736574000000000400FA050EB5002161
:10A760000091CDE901106A4644F20100FFF7B4FF01
:10A770000EBD401A20F07F4070470000014800687D
:10A780007047000004150140084B9B7823B12AB1A3
:10A7900020B10068037C1BB1082070470720704778
:10A7A000002303744174426118467047F83D00204D
:10A7B00070B509F0FDFC104800240B2104704470B2
:10A7C0000E4D817014206C602C706C70FFF774F962
:10A7D00007211420FFF791F91420FFF778F90848B2
:10A7E000046007211120FFF788F90548001F006861
:10A7F000A860002070BD0000F83D0020842E0020DD
:10A80000081501402DE9FC47DFF8789099F80230EF
:10A8100073B368B3052902D20720BDE8FC874369FA
:10A8200033B3437C012B25D00027044600258846FE
:10A8300016468DF80050684600F038F801A80AF076
:10A84000ABFEC8B1012101700F4944600968C0E93D
:10A850000218C0E904769DF8040089F801009DF80B
:10A86000000000F047F81420FFF73CF92846D4E731
:10A870000820D2E70F46D8E704259DF8000000F035
:10A8800039F8F3E7F83D00200415014006498978BE
:10A8900039B130B1416921B10021017402210AF0BE
:10A8A00013BD082070470000F83D002030B5EFF3DD
:10A8B000108172B60D4A9468012324B103700029F7
:10A8C00000D162B630BD93604FF0E023D3F88051E1
:10A8D000074C25401560C3F88041D3F8844154608B
:10A8E0005A17C3F8842100220270E8E7043F0020D1
:10A8F000FC06FFBD0B498A68002A11D000280FD141
:10A90000EFF3108072B60B684FF0E022C2F800310E
:10A910004B68C2F8043100228A60002800D162B678
:10A9200070470000043F002010B5144C00224FF483
:10A930008031606AFFF766FF08B1FFF70FFF002262
:10A9400040F28F21A06AFFF75DFF08B1FFF706FF15
:10A95000002242F26661E06AFFF754FF08B1FFF798
:10A96000FDFE00224FF42031206BFFF74BFF002843
:10A9700003D0BDE81040FFF7F1BE10BD705B0300CF
:10A9800003F0BABD2DE9FC5F04464FF008084FF014
:10A990000109694603F0BAF902004F484F49A0EB9C
:10A9A00001004FEAD0014FF0020000EB01450AD050
:10A9B000104607F01BF8024628462346484906F091
:10A9C00048FBBDE8FC9FDFF81CB1DBF80000FFF797
:10A9D0005DFF28B107F00AF80246284642A177E059
:10A9E000FFF7CCFE484E3168FFF7C3FE00F066FA71
:10A9F0000446FFF7C3FEDFF814A10027C6F80000E5
:10AA000007EB87000AEB8006B07C58B30622711C66
:10AA10000DF10100FCF74CFF18BB307C4FF47A615C
:10AA200001FA00F2B2F57A4F00DA401C30740022CD
:10AA30008140C817B260C20342EA5142C8034FF4D2
:10AA4000FA71401842F100014FF47A720023FCF7CA
:10AA5000B1FEF060A04200D80446012070744FF0AF
:10AA6000000900E0B8467F1C082FC9D3B9F1000FD8
:10AA70001FD0B8F1080F18D208EB88010AEB81004B
:10AA800000990160BDF8041081809DF80610817165
:10AA90000021017481604FF40031C1608C4200D309
:10AAA0000C4601214174817403E019A1284606F087
:10AAB000C5FA601C85D022461146DBF80000FFF77E
:10AAC000A1FE0028F6D006F091FF02461AA1284602
:10AAD00006F0B8FA75E7000078A3030078A3030036
:10AAE000708403000C5C03006170705F74696D65B5
:10AAF000725F73746F7028292072657475726E6549
:10AB00006420257300000000442D00203036002012
:10AB10004E6F20737061636520746F20626C616397
:10AB20006B6C69737420616E6F74686572207065F8
:10AB300065722049440000006170705F74696D6542
:10AB4000725F737461727428292072657475726EF5
:10AB50006564202573000000024A00210248FFF7C7
:10AB600013BE000049AE02000C5C03002DE9FC415D
:10AB70000446694603F0CAF870B106F037FF024692
:10AB8000124813492346401AC008022101EB004035
:10AB9000104906F05EFA11E00F4E00244FEA0D074F
:10ABA00004EB840006EB8005A87C50B10622691CEA
:10ABB000781CFCF77DFE20B9687C10B10120BDE84F
:10ABC000FC81641C082CEBD30020F8E778A3030079
:10ABD00078A3030070840300303600202DE9F0478D
:10ABE000814605884A484FF000088AB001784246FD
:10ABF000284600F0CBFD99F80500400701D400215C
:10AC000076E005F58077B8B201AB0122072107F0A5
:10AC1000DDFD04003F48404A4FF00101A0EB020077
:10AC20004FEAD00001EB00460AD0204606F0DEFED7
:10AC3000024630462B46394906F00BFA214629E0F8
:10AC4000284603F0A3F94FF6FF71044688422BD142
:10AC50008A46029803F004F90446504510D0014694
:10AC6000284603F073F92846FFF730FDE0B928467F
:10AC700009F0AEFC2846FFF729FD0028BFD013E0FD
:10AC800007F070FF0446504508D1304624A106F075
:10AC9000D5F90421284609F0C9FCB0E70146284649
:10ACA00003F054F94FF00108B8B22246072107F02B
:10ACB00005FE07001BD0862F1ED006F097FE024629
:10ACC00030462B462349009406F0CBF939462846F6
:10ACD00009F0ACFC0021484607F06CFCB8F1000F0D
:10ACE00002D0204603F03CF90AB0BDE8F08701210C
:10ACF000484607F05FFCF7E71822174903A8FCF75E
:10AD00009DFDADF80E5003A802F0ECF8EFE700004F
:10AD1000F42D0020C8A3030078A30300B48E030021
:10AD2000436F756C64206E6F7420616C6C6F63612F
:10AD30007465206E657720706565725F6964206652
:10AD40006F7220696E636F6D696E6720626F6E64EB
:10AD50002E000000108F03004C5D030070B5044608
:10AD600090B0087B0D468DF83800202105A8FCF72F
:10AD70008DFD42F61920ADF814000120ADF8180041
:10AD8000ADF81A000EA80790617C9DF82100A21D65
:10AD900061F3041040F002008DF82100A87B8DF8CB
:10ADA0002700687B8DF82500A08805A901F0FAFB33
:10ADB00000281CD1A968E1B10FA801F0CBF8064624
:10ADC00014216846FCF762FD42F60810ADF8000059
:10ADD000E87B8DF806000FA8ADF80A60ADF80E60AC
:10ADE0000490E08804F10E02694601F0DBFE10B029
:10ADF00070BD0020E081FAE710B50D490D4809F05B
:10AE00008CFCC1B24FF6FE720B4800F05FFB0028CD
:10AE10000DD008280BD0132809D0112807D043F2F1
:10AE20000141884203D0BDE81040FFF797BC10BD38
:10AE300074350020C42B0020E83200200A46014669
:10AE40001046AEDF7047000010B500F037F804463A
:10AE5000FFF794FC0D490860601C16D00C48224690
:10AE600011460068FFF7CEFC00280ED006F0BEFDAC
:10AE7000024608480849BDE81040401AC0080221AF
:10AE800001EB004005A106F0DDB810BD442D002007
:10AE90000C5C030078A3030078A303006170705F6B
:10AEA00074696D65725F73746172742829207265AC
:10AEB0007475726E6564202573000000F0B5044659
:10AEC00000221C4E4FF0FF3013464FF4A02500BF68
:10AED00002EB820106EB81018F7C27B34F7C7FB1AF
:10AEE000CF68A74205D93F1BCF6087421BD83846A1
:10AEF00019E04B740F7CD7B1A84214D3284612E056
:10AF00000F7CA7B18F6827448F60AF4206D30F7CB8
:10AF10007F1E0F748F68A7F5A0278F60C7F5A0214B
:10AF2000814200D80846521C082AD1D3F0BD8B7448
:10AF3000F9E70000303600202DE9FC47002517888E
:10AF40000646158090F82D001446894630B13A46E1
:10AF50002146484600F044FC051E09D1B0784FF068
:10AF60000C0A18B32088C846001DB84202D95046C2
:10AF7000BDE8FC87684679DF0028F9D120880321E5
:10AF800008F8001020881921401C80B2208008F8A1
:10AF900000102088401C80B2208000EB0801BDF822
:10AFA00000000AF027FA218808442080F078022265
:10AFB000C8B1218896F9033001F1030C4846BC451D
:10AFC000D5D8425421884FF0010C491C89B2218008
:10AFD00000F801C02188491C89B2218009F801309C
:10AFE0002088401C20807068B8B1218890F900301A
:10AFF00001F1030C4846BC45B9D8425421880A22C5
:10B00000491C89B2218042542188491C89B221807F
:10B0100009F801302088401C2080308950B1CDE9EA
:10B0200000474B460622022106F108000AF0CCFA3E
:10B03000051E9DD1308A50B1CDE900474B4607220D
:10B04000032106F110000AF0BFFA051E90D1308BE3
:10B0500050B1CDE900474B461522142106F11800E6
:10B060000AF0B2FA051E83D1306A30B13B4622465F
:10B07000494601F016FC051EDBD1706A30B13B4633
:10B080002246494603F048FC051ED2D196F82C0012
:10B0900038B13B4622464946304609F019FC051EA8
:10B0A000C7D1307838B13B4622464946304604F095
:10B0B0004DFA051EBDD128465AE718B504460020B2
:10B0C000ADF8000013466A46204600F006F8002856
:10B0D00002D0BDF80000204418BD70B588B182B11F
:10B0E0000024158803E0065D641C3444A4B2A54224
:10B0F00003D8061976789E4201D08C42F3D38C4255
:10B1000001D3002070BDA11C1180005D401E80B2E3
:10B1100070BD80F8301070472DE9F0470D000446EF
:10B1200006D02CB195F87A000026012803D006E05D
:10B130000E20BDE8F08795F89800012829D0D5F8B1
:10B14000A000042825D0D5F89C00042821D04FF079
:10B150000109A6702C2205F17801201DFCF76EFB79
:10B1600084F83060D5F8A4006063D5F8A800A06327
:10B170004FF6FF70A4F8480204F50D70C4F84402BD
:10B18000C4F84A62A4F84E6284F85062207810B184
:10B1900004E00720CDE7FF2084F8540004F15501B6
:10B1A000C4F8341294F82400EE274FF01F08012849
:10B1B0001FD0A4F8388200BF04F50E722846FFF7AE
:10B1C000BBFE0028B5D115F13C0F18D004F2431195
:10B1D000C4F83C1294F8240001280DD0A4F8408251
:10B1E00004F5107205F13C00FFF7A6FE0028A0D17F
:10B1F00009E0A4F83872DFE7A4F84072F0E7C4F879
:10B200003C62A4F8406284F85190208BA4F8480076
:10B2100084F83C90266484F85060606960644D4610
:10B2200004F13C02002104F1540072DF002880D1B7
:10B2300025707EE710B50288102A1BD0112A20D075
:10B24000262A1DD1007A0C46012801D0022817D1E8
:10B25000A0780521401CB0FBF1F201FB1201204651
:10B2600000F01EF800280BD0A16B002908D0BDE823
:10B2700010400847C27B012A02D18088A1F8480209
:10B2800010BD0C46002184F852128088B4F8481290
:10B290008842F5D120790028F2D10121DFE77047FB
:10B2A0002DE9F05F044600780F4698B1A77000259D
:10B2B000C4F84A52A4F84E5284F85052A07901269C
:10B2C00008B1012F09D0E07980B1012F05D0022FFC
:10B2D00003D00BE00820BDE8F09F616B21B184F83A
:10B2E00051620820884701E084F8515204F24B2152
:10B2F00000200A5C0AB1304603E0401C0628F8D35F
:10B3000000204FF002084FF0030B012F06D0022F50
:10B310000CD0032F0FD0042F15D110E0A17929B143
:10B3200094F8241011B908B130460DE0E17911B15B
:10B3300008B1404608E0207A08B1584604E0607A37
:10B3400008B1042000E02846A070616B41B10328D9
:10B3500001D0042804D1607910B194F85202A0B150
:10B3600084F8535204F13C0018210746FCF78EFA8A
:10B3700004F12C0084F83C60814607F01DFD58B1B3
:10B3800094F82C0084F8510008E084F8545284F8B2
:10B39000536207208847E5E784F8516094F8240059
:10B3A00050B1484607F008FD20B194F8280084F811
:10B3B000520001E084F8526084F85050A27804F200
:10B3C0004A2104F50D794FF0060A052A62D2DFE81A
:10B3D00002F07A030F22410084F83160C4F844522D
:10B3E000C4E9101584F83C808020A4F8480053E09C
:10B3F00084F8318094F82420384612B10722027074
:10B4000001E080F800B0228A8281C4F84452416091
:10B41000E168B96040E06069B860208BB88194F859
:10B4200024003D4610B184F83CA001E084F83C6063
:10B4300020460AF08DF850B185F81480042120468A
:10B4400001F024FF30BB052184F8311020E084F89E
:10B4500031B01DE0E069B860208CB88194F8240018
:10B460003D4610B184F83CA001E084F83C602046E1
:10B470000AF06EF848B185F814800421204601F0E6
:10B4800005FF38B984F831A002E0042084F83100C7
:10B49000C4F84492A07878B13A4604F15400D4F844
:10B4A000441272DF00287FF416AF94F8301094F83D
:10B4B000540073DF0028F6D1616B11B194F83100AC
:10B4C0008847002007E784F83150F5E7F7B594B0D6
:10B4D000174605003CD0287C9DF854100024884273
:10B4E00052D000264FF0010E0D9615A8ADF834E0AD
:10B4F0000E90ADF83660E9880DAA4FF6FF70ACDF0C
:10B50000040026D19DF854002874687CA0B30F96DF
:10B51000109611961296E888ADF83C00BDF83600FA
:10B52000ADF840000DA811900E981290A7F57F403D
:10B530008DF83EE0FE3805D039460FA8FFF77EFCB7
:10B54000044621E0684600F09DF800256F460FE0B4
:10B550000E2017B0F0BD00BF07EB4506B08800F025
:10B56000DFF8022803D144B10FA9B088AEDF6D1C0B
:10B570000098A842F0D807E005E0B1880FA8FFF7CF
:10B580005DFC0446F3E708242046E2E738B50D46A3
:10B59000040018D0BDB12868206028796074FF20AD
:10B5A000207401208DF8020041F60F00ADF8000074
:10B5B000221D69460120A8DF002803D12946204624
:10B5C000FFF7CCFB38BD0E2038BD38B5002924D09C
:10B5D000002822D00288502A1FD10546487C0C46FC
:10B5E00000281AD0E9886289A81D914215D14189A5
:10B5F000022912D1216800290FD00C3000F0A6FCDE
:10B6000008B1002000E001208DF80000A888ADF806
:10B610000200226869462046904738BD70B5040094
:10B6200012D001461C221448FCF708F91248134DA9
:10B630000560206850B17ADF002806D120680168D3
:10B6400029604068686005E00E2070BD0B487BDF14
:10B650000028FAD108484FF6FF711438084A20F83C
:10B66000041B0549343901600021FFF78DF80028DB
:10B67000EBD0032070BD000004370020482D0020CF
:10B68000E95403000149496801F0ECB82037002073
:10B6900010B5044600F09AF8002805D02146BDE810
:10B6A0001040024804F04FB810BD000030370020B1
:10B6B00070B515460E46044609F056FF002809D01D
:10B6C000054800EB840080692A463146BDE8704099
:10B6D00001F008BE70BD00002037002010B5044600
:10B6E00000F074F8002805D02146BDE8104002485B
:10B6F00004F029B810BD00003437002070B50546AD
:10B70000002400F063F838B12946044804F01BF81F
:10B7100008B1022400E00124204670BD2C3700202F
:10B7200070B50546002400F051F838B129460448A8
:10B7300004F009F808B1022400E00124204670BD9D
:10B740002837002010B51821034803F0D7FF182828
:10B7500000D0C0B210BD00002037002070B50546F3
:10B760000C46084609F000FF60B1284600F02EF8AC
:10B7700040B10548294600EB8400BDE87040183010
:10B7800003F0E1BF002070BD2037002070B50546F2
:10B7900014460E46084609F0E7FE002812D0284657
:10B7A00000F014F800280DD00748294600EB860069
:10B7B00018301CB1BDE8704003F0D0BFBDE8704048
:10B7C00003F081BF70BD000020370020142801D392
:10B7D000002070470146014803F0B5BF2437002020
:10B7E0007CB5054608880C460930904201D90C20EA
:10B7F0007CBD68466DDF0028FAD121880820685496
:10B8000020881B21401C80B2208029542088401CA5
:10B8100080B220802844DDF801100160BDF80510D9
:10B8200081802088801D80B220809DF8001049080A
:10B8300000D0012129542088401C208000207CBD9C
:10B840001FB5044601208DF8060041F60A00ADF848
:10B850000400494A01A90120A8DF00287DD12288DF
:10B860005AB14548801C009094F83C3042F629209B
:10B87000616800F067FE00287BD122895AB13E48FA
:10B880000A30009094F83C3042F62420E16800F041
:10B8900059FE00286DD1228A5AB1374812300090E3
:10B8A00094F83C3042F62520616900F04BFE0028F8
:10B8B0005FD1228B5AB130481A30009094F83C3056
:10B8C00042F62720E16900F03DFE002851D1228C8C
:10B8D0005AB129482230009094F83C3042F6262094
:10B8E000616A00F02FFE002843D1228D5AB1224810
:10B8F0002A30009094F83C3042F62820E16A00F0AB
:10B9000021FE002835D1216B79B102A809F02CFC69
:10B91000194808223230009094F83C3002A942F6CF
:10B92000232000F00FFE002823D1606B60B1124984
:10B930003A3100910279016894F83C3042F62A20AD
:10B9400000F000FE002814D1A16B89B102A808F014
:10B95000BEF809484230009000E00AE094F83C301C
:10B96000072202A942F6502000F0ECFD002800D189
:10B97000002004B010BD00000E2E00203EB504468D
:10B9800001883048304A801AC008032202EB004088
:10B99000182941D00ADC2D4D102913D0112925D0AA
:10B9A00013292AD0172928D129A136E0192939D0FD
:10B9B000212923D03B292BD056291ED1A088132121
:10B9C00076DF0DE02AA105F039FB072000F02AFC04
:10B9D00008B1FEF7C3FEA188E980284804F036F9D3
:10B9E00000280AD0BDE83E40FEF7B8BE227A24A166
:10B9F00005F028FB4FF6FF70E8803EBD0020009068
:10BA0000A08869468FDF0028F7D0FEF7A7FE3EBD6D
:10BA1000A088132176DFE3E720A103B0BDE8304022
:10BA200005F00CBBA37A617B227BC3F3C0030093B8
:10BA3000CDE90121617A227AC1F380031F4905F023
:10BA400023FB3EBD40A4030078A30300902B0020FD
:10BA5000424C455F4741505F4556545F41555448FD
:10BA60005F4B45595F524551554553540000000006
:10BA7000436F6E6E65637465642E000010330020A2
:10BA8000446973636F6E6E65637465642C207265C0
:10BA900061736F6E2025642E00000000424C455FEC
:10BAA0004741505F4556545F4C4553435F44484BB4
:10BAB00045595F52455155455354000018840300C1
:10BAC00010B51A4C0188606810290ED011292BD1AD
:10BAD000401E606028D1FEF78BFD002824D021682D
