:020000040000FA
:10000000282E0020F9020000010300000303000075
:1000100005030000070300000903000000000000C2
:100020000000000000000000000000000B030000C2
:100030000D030000000000000F030000110300008A
:1000400013030000130300008107000011040000E7
:100050001303000013030000130300001303000048
:100060001303000013030000130300001303000038
:100070001303000013030000130300001303000028
:100080001303000013030000130300001303000018
:100090001303000013030000130300001303000008
:1000A00013030000130300001303000013030000F8
:1000B0001303000013030000000000000000000014
:1000C00013030000130300001303000013030000D8
:1000D00013030000130300001303000000000000DE
:1000E0000000000000000000000000000000000010
:1000F0000000000000000000000000000000000000
:1001000000000000000000000000000000000000EF
:1001100000000000000000000000000000000000DF
:1001200000000000000000000000000000000000CF
:1001300000000000000000000000000000000000BF
:1001400000000000000000000000000000000000AF
:10015000000000000000000000000000000000009F
:10016000000000000000000000000000000000008F
:10017000000000000000000000000000000000007F
:10018000000000000000000000000000000000006F
:10019000000000000000000000000000000000005F
:1001A000000000000000000000000000000000004F
:1001B000000000000000000000000000000000003F
:1001C000000000000000000000000000000000002F
:1001D000000000000000000000000000000000001F
:1001E000000000000000000000000000000000000F
:1001F00000000000000000000000000000000000FF
:10020000DFF80CD000F0C2F800480047BD22000023
:10021000282E002030B4044654E8000F0D4644E870
:100220000053002BF8D1156030BC704730B4044641
:1002300054E8000F40EA010544E80053002BF7D1D1
:10024000156030BC704730B4044654E8000F00EA33
:10025000010544E80053002BF7D1156030BC70470E
:1002600030B4044654E8000F80EA010544E8005326
:10027000002BF7D1156030BC704730B4044654E809
:10028000000F00EB010544E80053002BF7D1156087
:1002900030BC704730B4044654E8000FA0EB0105B1
:1002A00044E80053002BF7D1156030BC704770B4A0
:1002B00004464FF0000054E8006F0D68AE4207BFDF
:1002C00044E80023012044E800630E60002B1CBFBB
:1002D0000020F0E770BC704730B4044654E8000FCB
:1002E00088422CBF451A054644E80053002BF5D13F
:1002F000156030BC7047000006488047064800473C
:10030000FEE7FEE7FEE7FEE7FEE7FEE7FEE7FEE7C5
:10031000FEE7FEE7650400000102000000487047A8
:100320000843000040EA01039B0703D009E008C925
:10033000121F08C0042AFAD203E011F8013B00F8AA
:10034000013B521EF9D27047D2B201E000F8012BF6
:10035000491EFBD270470022F6E710B513460A4645
:1003600004461946FFF7F0FF204610BD421C10F866
:10037000011B0029FBD1801A7047034611F8012B9D
:1003800000F8012B002AF9D118467047064C074D9A
:1003900006E0E06840F0010394E807009847103455
:1003A000AC42F6D3FFF730FFB8430000D84300005B
:1003B00000F0ECB970B50E46144900EB400001EBBB
:1003C000C0051446E86A183520B101280FD002286C
:1003D00005D113E0284600F00DFAA04201D2002416
:1003E00011E022463146284600F03CFA0BE0284650
:1003F00000F000FAA042F4D20446F2E73146284663
:1004000000F003FA0446204670BD00009C0B00205B
:10041000F8B51248124E04464FF48C7102F061FD9B
:1004200000281AD00025C4F81851D4F818010090FB
:10043000F07F3446FF2806D0A17F11B102F0CFF93A
:1004400001E002F0D3F965772572D4E9002101B00B
:1004500004F10800BDE8F0401047F8BD003000404E
:1004600060050020F0B5B5480023021D0178101D7D
:1004700001254FF0805406290BD11678360708D194
:100480000678C6F30316032E06D0042E04D0052EDC
:1004900002D0062907D00EE0B4F82463A84FC6F3B3
:1004A00004263E6002E01678360704D10678C6F3CB
:1004B0000316032E02D0062904D00FE0A24FA14E4E
:1004C0007E670EE01678360708D10678C6F3031665
:1004D000032E06D0042E04D0052E02D0062907D004
:1004E0000EE0D4F84462994FC6F342363E6002E013
:1004F0001678360704D10678C6F30316032E02D009
:10050000062906D011E0924E376827F080773760D1
:100510000EE01678360708D10678C6F30316032EC8
:1005200006D0042E04D0052E02D006290AD011E0F0
:100530004FF08046C6F80C31C6F81031834E361F96
:10054000336002E01678360704D10678C6F3031646
:10055000032E02D0062905D00CE07C4F0326643719
:100560003E600AE01678360704D10678C6F3031613
:10057000032E02D006290DD014E0764F05263E60EA
:10058000744E78363560734E083633603F263F1D13
:100590003E6002E01678360704D10678C6F30316EB
:1005A000052E02D0062957D062E06B4E36686B4F9D
:1005B0003E60694E361D36683F1D3E60664E083609
:1005C00036683F1D3E60644E0C3636683F1D3E6007
:1005D000614E103636683F1D3E605F4E14363668F9
:1005E0003F1D3E605C4E183636685C4F20373E60DB
:1005F000594E1C3636683F1D3E60574E20363668D1
:100600003F1D3E60544E243636683F1D3E60524EBC
:10061000283636683F1D3E604F4E2C3636683F1DEB
:100620003E604D4E303636684C4F40373E604A4E45
:10063000343636683F1D3E60474E383636683F1DBB
:100640003E60454E3C3636683F1D3E60424E403669
:1006500036683F1D3E6002E01678360708D10678FE
:10066000C6F30316032E06D0042E04D0052E02D0A6
:10067000062907D019E0D4F85812394A01F04F0181
:10068000116002E0117809070FD10078C0F3031060
:10069000032803D0042801D0052806D13148016879
:1006A000C90702D06FF001010160D4F830010628BB
:1006B00008D1D4F83401062804D12B48016841F44C
:1006C0008061016022487438016841F47001016062
:1006D000BFF34F8FBFF36F8F4FF01021D1F800029F
:1006E000002803DBD1F80402002822DA1F4A156033
:1006F0001F480468002CFCD01524C1F8004205688E
:10070000002DFCD0C1F8044201680029FCD0136020
:1007100001680029FCD0BFF34F8F0D48F038016805
:10072000144A01F4E06111430160BFF34F8F00BF31
:10073000FDE7124910480860F0BD0000E00F00F02E
:10074000403501400DF0ADBA00C007403C05004007
:10075000FCED00E0105600400404001020C50040ED
:10076000E40E0040000400403C17004004E5014056
:1007700000E401400400FA050090D0038C00002042
:1007800001480068004700001C00002010B5124C12
:1007900002202061606111A0A06104F17800E06195
:1007A0004FF4007020620020A06260620BA1A1647F
:1007B000E06204F51E71E1641021A065C4E9141023
:1007C000E06509A1E01DFFF7D8FD08A12046FFF76D
:1007D000D4FD2020A07110BD9C0B00205465726DCB
:1007E000696E616C00000000525454005345474745
:1007F000455200000269C1688A4203D88068401AE5
:10080000104400E0501A401E70472DE9F047C468BC
:100810001746894606464FF000083069A04201D9C4
:10082000051B02E0B168201A0D1AB0686D1E001B8E
:10083000A84200D80546BD4200D33D4670682A460E
:1008400020444946FFF76EFDB0687F1B2C44A84446
:10085000A944A04200D10024F460002FDDD140461D
:10086000BDE8F0872DE9F04104468846D4E9020747
:10087000C51BE168606816460844B54206D9414682
:10088000FFF750FDB819E060BDE8F0812A46414607
:10089000FFF748FD761B08EB050132466068FFF75D
:1008A00041FDE660F0E702E008C8121F08C1002A17
:1008B000FAD170477047002001E001C1121F002AE1
:1008C000FBD1704772B602F01FFA00BF02F064F865
:1008D0000028FBD111481249401AC408012000EB3E
:1008E000044010A102F070F911480068C00700D060
:1008F00000BE022000EB04400EA102F065F9BFF338
:100900004F8F0B48E43801680E4A01F4E06111434F
:100910000160BFF34F8F00BFFDE7000008440000F7
:10092000E8430000466174616C206572726F72006A
:10093000F0ED00E053797374656D20726573657432
:10094000000000000400FA050EB500210091CDE979
:1009500001106A4644F20100FFF7B4FF0EBD00002B
:10096000144B10B593F822402CB193F82240032C7D
:1009700003D0112010BD082010BD82B1042483F8DB
:1009800022409C7A240700D44902C3E903019A82D9
:100990000020DA829883012A03D9522002E007203E
:1009A00010BD5120012202F023FD08B1FFF7CCFF5A
:1009B000002010BD8405002070B5194B144693F833
:1009C00022202AB193F82220032A03D0112070BDDF
:1009D000082070BDECB1052283F822209A7A150711
:1009E00000D44902C3E903019C820020DC82988381
:1009F000012C10D002F0070001284FF001020DD0A9
:100A00002146D72002F0F4FC08B1FFF79DFF00203B
:100A100070BD072070BD01225820F3E75920F1E78F
:100A200084050020054890F82210032904D090F88E
:100A3000220008B101207047002070478405002083
:100A4000044890F82210032901D3001D70470020AC
:100A50007047000084050020F0B52F4C054687B094
:100A600094F822000F4610B1082007B0F0BDEFB394
:100A7000E878FF284DD06978FF294AD02978FF29E6
:100A800047D0A978FF2944D0002684F858000122D5
:100A9000009633461146019601F085FE94F8580001
:100AA00001F0ABFE1D4B0DF1080C0FCB8CE80F00D5
:100AB000A8788DF8080028788DF8090068788DF8F6
:100AC0000A0016480023164A02A9103801F010FD4A
:100AD00008B1FFF739FF44F8227B012004F8190917
:100AE000607820F00F006070A67600E011E0FF2033
:100AF000E0770A20084B0090084838330122A3F120
:100B00001001103801F02CFD08B1FFF71DFF002087
:100B1000ABE70720A9E7000084050020D8410000CA
:100B2000493C00007CB50F4D95F8220028B195F89E
:100B30002200032803D011207CBD08207CBD0A4878
:100B400002F0BAFA002495F8580000942346224691
:100B500021462235019401F026FE6C702C70002095
:100B60007CBD000084050020CC41000000F002B8EC
:100B700000F008B872B602480168491C016070476D
:100B80002400002003490868401E086000D162B6B6
:100B90007047000024000020087A0A782AB1012A50
:100BA00003D0022A01D0032A09D100EB40020448F5
:100BB0004978406800EB8200017200218172704721
:100BC0000C000020806970472DE9FE430E46016944
:100BD00084698046B1F5007F02D00620BDE8FE831F
:100BE000134D696809B11120F8E7A660A261686039
:100BF00010491430FFF730FF070008D1A6B900BF35
:100C0000FFF710FF0028FBD1287878B10D270020CE
:100C100068604EB1084A07CA8DE80700A0690290D3
:100C2000A2686946404690473846D7E70027FBE769
:100C300028000020A93400001842000019B1012941
:100C400006D0062070470AB10020107000207047BF
:100C500012B1001D1060F9E707207047FEB51C4F68
:100C60000646846978680D46B04202D1FFF7DAFE85
:100C700008B11120FEBD95E8070004F10C0383E8DC
:100C80000700A888296882B2A868FFF769FE0500F6
:100C900009D1A068C0B900BFFFF7C4FE0028FBD18E
:100CA000387898B10D25A06870B16DB10948016B15
:100CB000806B029004F10C00CDE90010A069029055
:100CC000A2686946304690472846FEBD0025EAE7FF
:100CD0002800002000420000FEB5124F044685693E
:100CE0007868A04202D1FFF79DFE08B11120FEBD39
:100CF000FFF718FF060000D17860A86878B10A49AC
:100D000007C98DE807000EB1012000E000208DF832
:100D10000100A8690290AA686946204690473046BB
:100D2000FEBD00002800002024420000FEB51C4F3C
:100D30000646846978680D46B04202D1FFF772FE1C
:100D400008B11120FEBD95E8070004F10C0383E80B
:100D50000700A888296882B2A868FFF72DFE050061
:100D600009D1A068C0B900BFFFF75CFE0028FBD125
:100D7000387898B10D25A06870B16DB10948C16B84
:100D8000406C029004F10C00CDE90010A0690290C3
:100D9000A2686946304690472846FEBD0025EAE72E
:100DA00028000020004200002DE9F0470546861C7F
:100DB00090460F464FF001090020FFF7D7FE1B4C6D
:100DC00020683860D4E90001401AA16804F21C4789
:100DD000081A0EE00121384601F01FFB01F020FA4D
:100DE0000146384601F019FBD4E90001401AA16818
:100DF000081A401C8642EDD8B8F1000F03D0052038
:100E000065F3891002E0062065F39F50A26821680F
:100E1000114004EB8101C86020683044206000204C
:100E2000FFF7A6FE4846BDE8F087000078070020DF
:100E300030B482680468531C8360A154D0E9011265
:100E40008A4202D330BC01F0A3BB30BC7047000023
:100E5000034803C8814201D1012070470020704738
:100E60007807002010B504460020E070401EE062C4
:100E7000204601F0B3FA08B1042010BD04F22E2080
:100E800001F0C9F9A0F52A41553901D0032010BD60
:100E900094F83000E92805D0EB2814D194F83200FA
:100EA000902810D104F1660001F0AAF90749B1EBCE
:100EB000002F06D004F1820001F0A2F90449884213
:100EC00001D1002010BD022010BD00000046415499
:100ED000464154334269891E921E8A4201D800203D
:100EE0007047826A408901FB002070472DE9F0417C
:100EF00005680F00804606D001F054F8022809D298
:100F00000120BDE8F081EE6816B16869B04207D8EB
:100F1000012605E0411CF4D069698142F1D83E46C2
:100F200034466869641CA04202D80224022E0AD307
:100F30002146404601F036F838B10128E1D0411C85
:100F4000DFD0B442EDD10020DBE74FF0FF36324670
:100F50002146284602F09CF930B957B1224639465D
:100F6000284602F095F920B101280FD0012420462F
:100F7000C7E7EC60D5E90401891E884201D2401E12
:100F80002861287940F001002871F0E73446EEE747
:100F90002DE9F0410E4620300D6804460B22202139
:100FA00001F0BEF90020014608232A5C401C202ADB
:100FB00012D92F2A0BD05C2A09D02E2A01D09942AF
:100FC00014D30B2B37D02E2A35D10CE0401C2B5CD0
:100FD0002F2BFBD05C2BF9D02844306059B32078FC
:100FE000E52834D035E008210B23DEE7A2F18107A4
:100FF0001E2F02D95F3F1C2F13D82F5C401CA7F176
:10100000400CBCF13F0F04D3A7F1800CBCF17D0F65
:1010100011D2A3F1010C61450DD26254491C6754F1
:1010200013E010A700E07F1C97F800C0BCF1000F90
:1010300004D09445F7D10620BDE8F081A2F1610704
:10104000192F01D8203AD2B26254491CADE70520CD
:101050002070202A01D8042000E00020E072002047
:10106000EAE70000222A2B2C3A3B3C3D3E3F5B5DE9
:101070007C7F000020BF70472DE9F041044600212D
:10108000056800F008F9002826D12846A16901F07A
:10109000A5F902001FD1E069017899B1C17A01F088
:1010A0003F01A171C17A09070FD404F120010B2679
:1010B00010F8013B11F8017BDB1B761E04D0002BDE
:1010C000F6D002E0042206E02BB10021204600F019
:1010D00005F80200D9D01046BDE8F0812DE9F047AF
:1010E00005460769046880698946203710B1B7F55D
:1010F000001F02D30420BDE8F087F90560D1401C31
:10110000A86169694FF0000829B16089401E10EAA2
:10111000572F05D054E02089B0EB571F1DD94FE061
:10112000284600F03FFF064601281BD9701C33D02B
:101130006069B0423ED8B9F1000F0ED02846696907
:10114000FFF7D4FE06000BD0012E0BD0701C23D06D
:10115000204602F083FFF8B906E0C5F81880C9E719
:101160000720C8E70220C6E74FF40072002104F10F
:10117000300001F0D5F84FF0000831462046FFF767
:10118000A9FE4FF00109E0620DE000BF84F8039072
:10119000204602F063FF08B10120ACE7E06A08F1E5
:1011A0000108401CE06261894145EFD8E16AA1EB8A
:1011B0000800E062314620466E61FFF78BFEA861B1
:1011C000C7F30800204430302F61E861002092E727
:1011D00070B504460E460420256821E0284601F03B
:1011E000FDF810BBE2691178B1B1D27AE52902F0BD
:1011F0003F02A2710AD02E2908D00F2A06D022F071
:10120000200108290AD00021B14210D00021204637
:10121000FFF764FF20B108E0042006E00121F3E7B6
:10122000A1690029DAD1002801D00021A16170BD97
:1012300070B504460021066800F02DF80DE0304638
:10124000A16901F0CBF850B9E0690078E52809D030
:1012500040B101212046FFF741FF0028EFD00428CC
:1012600007D007E03046A16901F0B8F8050003D0C7
:101270000FE0072005460CE020220021E06901F084
:101280004FF80B2204F12001E06901F03FF8012042
:10129000F070284670BD2DE9F04107680E460546FE
:1012A000B1F5001F36D2F00634D12E61AC6824B9F6
:1012B0003878032805D37C6A1CB178894FEA402826
:1012C00012E03889B0EB561F24D9786A12E028461C
:1012D00000F068FE0446401C1AD0022C1AD378692C
:1012E000A04217D9A6EB080646452146EFD238465C
:1012F000FFF7F0FDC5E9054060B100EB5620A8619D
:10130000C6F3080038443030E8610020BDE8F081C1
:101310000120FBE70220F9E770B51C4C21788842D8
:101320000DD2616800EB400551F825303BB101EB6F
:1013300085014A7AD20704D04A6822B105E0032029
:1013400070BD487A70BD124A4A6001228A72024614
:101350001868104906681846B04710B110E0406898
:101360008047606800EB8500817A0029F7D16168C9
:1013700001EB8501097A19B9417A21F00101417225
:10138000606800EB8500407A70BD00000C00002012
:1013900075100000990B000038B51D4D2B78984250
:1013A00001D3042038BD00EB400439B118480129AD
:1013B000406815D002291DD0012038BD01208DF8CC
:1013C000000068686A46002150F8240001F08DF89A
:1013D00008B1112817D19DF800000028F1D112E0C2
:1013E00050F8240088B101681446496988470068AC
:1013F000206008E050F8240038B1016814464969BB
:10140000884780882080002038BD032038BD000038
:101410000C000020FEB51D4C2578A8420DD263B10A
:1014200000EB4005606850F8256026B100EB8506AA
:10143000777AFF0703D00320FEBD0420FEBD009293
:10144000CDE901310121B17250F825606F46306855
:1014500041693046884700680099884214D930684D
:10146000394682683046904710B10DE040688047A9
:10147000606800EB8500817A0029F7D1606800EB95
:101480008500007A0028D9D00120FEBD0C00002084
:1014900006490A78904201D301207047496800EB61
:1014A000400001EB8000407A704700000C000020F3
:1014B000FEB5204C2578A8420DD263B100EB400563
:1014C000606850F8256026B100EB8506777AFF0743
:1014D00003D00320FEBD0420FEBD777A7F0701D52F
:1014E0000220FEBD0092CDE901310121B17250F818
:1014F00025606F463068416930468847006800992A
:10150000884214D930683946C2683046904710B1D5
:101510000DE040688047606800EB8500817A002913
:10152000F7D1606800EB8500007A0028D9D001204F
:10153000FEBD00000C000020014A50601170704791
:101540000C00002010B50021024800F071FF80F36C
:10155000100010BD940B002038B5044600F05EF971
:10156000002807D16946204602F0FCFD002801D181
:101570000021216038BD000017B581B014460298E3
:101580000090684600F09EFD002802DA0B2004B0AF
:1015900010BD0B4A002352F8201001B10B700199C5
:1015A000002900D00B7042F8201001D0012C01D08E
:1015B0000020ECE7002201A902A800F093FBE6E777
:1015C000180000202DE9F7438CB005000BD002F085
:1015D0003F06324669460DA800F084FB04004FF038
:1015E000000804D0C0E009200FB0BDE8F0830098E7
:1015F000019001A80D9900F09BFC040004D19DF816
:101600002F00000600D5062416F01C0F4CD04CB15C
:10161000042C03D101A8FFF70BFE044646F0080690
:101620005CB1A1E09DF80A0010F0110F01D0072471
:101630009AE0700701D5082496E0300743D54D4F56
:10164000089839460E3002F073FC08983946163077
:1016500002F06EFC08992020C8720899009800F0EA
:10166000BCFD074600220899009802F04DFC08983E
:1016700000211C3002F05CFC00990120C87007B307
:10168000D1F82C900022394601A801F076FE040022
:101690006AD14946009800F0A1FE04000098A7F125
:1016A0000107C7600BD05FE0CCBB9DF80A00C10604
:1016B00001D5042458E0B10701D5C007B7D13007E0
:1016C00001D546F040060098C16A2962089969620E
:1016D000089900F082FDA86008981C3000F090FD89
:1016E000E8600098286000984FF400720021C088DC
:1016F000A8802E7485F81180C5F81C8005F128009B
:101700008146C5F8148000F00BFEB0062ED5EE68B9
:1017100066B36E610098A968408947020FE023E034
:10172000284600F03FFC0146012800D80224481C4E
:1017300002D0F61B1CB104E00124F61B01E0BE42FE
:10174000EED8A96184B9F00510D00098FFF7C2FB6C
:1017500070B100EB5622EA610098012349464078B7
:10176000FFF758FE10B10124C5F8008020463BE782
:101770000224F9E70000214813B582B0040006D026
:101780000022694603A800F0ADFA18B120E0092054
:1017900004B010BD009921602046039900F0C8FBF9
:1017A00090B994F82B00000607D4A079C00612D592
:1017B000E169009800F011FDA0600098C188A18047
:1017C00020460021FFF767FD042804D00028DFD061
:1017D00000212160DCE70520FAE738B50C46054614
:1017E000694602F0BFFC002813D1014628468CB19F
:1017F000FFF7EEFC042801D000280AD12146284634
:1018000000F02FFC00212846FFF768FC042800D1D7
:10181000002038BDFFF73FFD38BD0000F8B5044695
:10182000694602F09FFC00280ED1217C4A060BD5A8
:1018300008060ED50098E2690123407804F12801DA
:10184000FFF736FE08B10120F8BD207C00F07F00D4
:101850002074154E216A009800F0C0FD0028F3D1D5
:10186000656A2946E87A40F02000E872A26820689C
:1018700002F04AFB05F11C00E16802F059FB314619
:1018800005F1160002F054FB002105F1120002F0F0
:1018900057FB00980121C17002F09CFB217C01F0F4
:1018A000BF012174F8BD0000000021482DE9FE4F62
:1018B00088460021196099461546044602A902F09F
:1018C00051FC002806D1607C002803D1207C8007D1
:1018D00002D40720BDE8FE8F6069012742194FF04E
:1018E000020A04F1280B824200D2C54394E06069E9
:1018F000C1056ED102994989491E11EA502612D1BB
:1019000008B1A16902E0A06828B900212046FFF7CC
:10191000EDFA00287DD001282DD0411C54D0A061C3
:10192000A16801B9A060207C00060BD50298E2698D
:10193000012340785946FFF7BBFDA0BB207C00F097
:101940007F002074A1690298FFF7C4FA98B130446F
:101950000190680A009027D0029932184889824283
:1019600001D9801B0090DDE9003248784146FFF73D
:101970009FFDC0B903E084F811A00220AAE7E16945
:101980000198081A009988420AD208EB40214FF4C6
:101990000072584600F0BAFC207C00F07F002074F2
:1019A0000098460227E00FE0E169019881420ED0DD
:1019B000E168606988420AD202980123594640785A
:1019C000019AFFF727FD10B16774012082E70198A3
:1019D000E061A08AC0F30800C0F50076AE4200D9ED
:1019E0002E46204432464146283000F08FFC207CB1
:1019F00040F0800020746069B04430446061E16868
:101A0000884200D80846E060D9F80000AD1B304499
:101A100000E004E0C9F80000002D7FF468AF207CEE
:101A200040F040002074002054E70000F8B5012188
:101A30004A48FFF781FD4A484A49401AC608032030
:101A400000EB0640044648A101F0BEF80325002043
:101A5000FFF762FC6D1E02D00028F8D103E010B140
:101A6000204649A160E04F4D4F486969884740686A
:101A70004FF48011B1FBF0F769694B488847006863
:101A80004AA1B0FBF7F2204601F0A2F820464BA194
:101A900001F09AF801223BA14D48FFF76DFD0028A7
:101AA000204601D04BA13FE04EA101F08DF853A19B
:101AB0005348FFF761FE10B1204652A134E00520E3
:101AC0004F4D00EB06462C3505F109074C494C48B3
:101AD0002C31FFF782FE10B151A1204624E0687A34
:101AE00088B1287AC00605D530463A4652A101F0A1
:101AF0006FF805E030463B4653A12A6801F06FF8C5
:101B0000687A0028E2D130461EA101F05DF8204637
:101B100050A101F059F83A48332256A14430FFF75A
:101B200051FD20B1204656A101F04EF8F8BD3448D1
:101B30006B4610225DA14430FFF7B8FE0028204616
:101B400003D05FA101F040F803E061A1009A01F029
:101B50003FF82B484430FFF7FFFCF8BD00000020A1
:101B600008440000E8430000496E697469616C69CB
:101B70007A696E67206469736B2030202853444370
:101B8000292E2E2E000000004469736B20696E69B7
:101B90007469616C697A6174696F6E206661696CE1
:101BA00065642E00E84100009841000043617061C7
:101BB000636974793A202564204D42004D6F756E3B
:101BC00074696E6720766F6C756D652E2E2E000021
:101BD000900000204D6F756E74206661696C6564BD
:101BE0002E0000000D0A204C697374696E67206432
:101BF00069726563746F72793A202F002F000000BC
:101C0000C00200204469726563746F7279206C6948
:101C10007374696E67206661696C656421000000F9
:101C20004469726563746F727920726561642066BD
:101C300061696C65642E00002020203C4449523EBE
:101C4000202020257300000025396C752020257385
:101C50000000000057726974696E6720746F206617
:101C6000696C65204E4F524449432E5458542E2ED1
:101C70002E0000004E4F524449432E545854000049
:101C8000556E61626C6520746F206F70656E206F99
:101C900072206372656174652066696C653A204ED6
:101CA0004F524449432E5458542E0000534420634D
:101CB000617264206578616D706C652E00000000B3
:101CC0005772697465206661696C65640D0A2E003F
:101CD0002564206279746573207772697474656E07
:101CE0002E0000002DE9FF41002790460E460F60B0
:101CF00000F0E8F9050003D50B2004B0BDE8F08141
:101D0000884850F825409CB13460207808F0FE06E1
:101D100020B16078FFF7BCFBC1070BD02770E8B299
:101D2000B8466070FFF7F8FAC10708D00320E4E76F
:101D30000C20E2E70EB1400704D40020DDE71EB11D
:101D4000400701D50A20D8E7002631462046FFF794
:101D500089F8022822D100254FEA0D0704EB05106F
:101D600090F8F21100F5F77019B1083000F048FA58
:101D700000E0002047F825006D1C042DEED300255F
:101D800057F8256036B131462046FFF76BF8022838
:101D900001D203E003206D1C042DF1D3042809D0E7
:101DA00002286DD204F13B0000F035FAB0F5007F57
:101DB00066D101E00120A0E704F1460000F02BFA13
:101DC00018B904F1540000F01BFAA06194F84050D7
:101DD000A570012D01D0022D52D1454394F83D004C
:101DE0006081E8B3411E08424AD104F1410000F08D
:101DF00012FA2081000743D104F1430000F00BFAEE
:101E0000070004D104F1500000F0FAF9074604F18C
:101E10003E0000F000FA010032D02389481900EB9F
:101E2000131297422CD3B81A6789B0FBF7F0B8B1F8
:101E300003274FF6F57C604500D8022740F6F57C75
:101E4000604500D80127801C3244A26231446061A1
:101E5000C4E90761032F15D013B12944616200E082
:101E60000EE0022F1FD000F0010100EB400001EB5B
:101E7000500000BFA16900F2FF10B1EB502F14D247
:101E80000D203AE704F15A0000F0C5F90028F7D117
:101E900020890028F4D104F15C0000F0B1F96062FF
:101EA00060698000E6E74000E4E74FF0FF30206122
:101EB000E06080202071032F2CD104F1600000F03D
:101EC000AAF9012826D1711C204600F087FA08BB28
:101ED00084F8048004F22E2000F09DF9A0F52A4138
:101EE000553917D104F1300000F08AF90E498842C3
:101EF00010D104F5057000F083F90C49884209D12E
:101F000004F5067000F07CF9206104F5077000F01C
:101F100077F9E06003492770091F0888401C088092
:101F2000E0800AE71800002052526141727241615C
:101F300073B504460568019801E0401C01900178E2
:101F40002F29FAD05C29F8D00021A16001980078EF
:101F5000202806D2802084F82B002046FFF79BF92A
:101F60007CBD01A92046FFF713F80028F8D12046D0
:101F7000FFF782F894F82B1028B10428F0D1490714
:101F8000EED405207CBD4907FCD4A079C006F8D565
:101F9000208AC0F3080041192846303100F01DF9AD
:101FA000A060DEE72DE9F04104680D4602290BD35D
:101FB0006069A84208D920784FF0FF36012807D081
:101FC00002282BD0032839D001263046BDE8F08105
:101FD000206A05EB550700EB5721204600F0FEF97B
:101FE0000028F2D1C7F3080020447F1C90F830800D
:101FF000206A00EB5721204600F0F0F90028E4D1D8
:10200000C7F30800204490F8301048EA0120E9079F
:1020100001D00609D9E7C0F30B06D6E7206A00EB2A
:102020001521204600F0DAF90028CED1E8B204EB01
:102030004000303000F0EFF80646C6E7206A00EBBB
:10204000D511204600F0CAF90028BED140F2FF1099
:1020500000EA85002044303000F0D2F820F07046CD
:10206000B3E72DE9F041002305464B7280690C4629
:10207000002825D000210A462E26E869805C521CE3
:1020800020280AD0052800D1E520092A02D16718A6
:10209000491C7E726718491C78720B2AEDD36018B0
:1020A0004372E869C07A2072E8691C3000F0A8F831
:1020B0002060E869163000F0A3F8E080000CA080F2
:1020C000BDE8F08110B504464FF0FF302268002AC9
:1020D00013D0114600E0491C0B78212B0ED33A2B6C
:1020E000F9D112F8013B303B0A2B06D28A4204D1C7
:1020F000002B02D1491C1846216010BD002010BDE4
:102100002DE9FC5F0E008346DDE90C47C6F10000B7
:1021100098469246814600D40846012503E000BF58
:1021200090FBFAF06D1C5045FADAA84500D94546F7
:1021300024B1002E01DB780700D5641EB80702D554
:10214000B8F1000F0AD0F80708D13CB1A54205D27A
:1021500020215846641EFEF76BFEF6E7002E02DAD9
:102160004E462D2102E0780703D52B215846FEF775
:102170005FFE07F0030002280BD1B8F1000F08D171
:102180003CB1A54205D230215846641EFEF750FEF0
:10219000F6E7CDE90047434652463146584601F03E
:1021A00087FFBDE8FC9F024600201268530713D545
:1021B00002F00300012802D002280CD105E0C2F38E
:1021C00083100B68801C184404E00223086803EBAA
:1021D0009252104408600120704770B506460D46C3
:1021E00001F11A0000F017F804463078032805D1F1
:1021F00005F1140000F00FF844EA0044204670BDD9
:10220000C178827842EA01214278007842EA0121CD
:1022100040EA012070474178007840EA0120704789
:102220002DE9FF410026234800F0F4F82148001F63
:10223000074600F0EFF8204C60680090A56800E0C9
:1022400000986946284004EB80000C30FFF7ABFF94
:102250000028F5D101AA009901EA050304EB8303E4
:10226000491CDB6842F82030401C00910228F2D360
:10227000019800F0030001280BD0022810D101982A
:10228000032101EB90500099BDF80A6001EB90002A
:1022900005E00198BDF80A60C0F38310084400907F
:1022A000384600F0B4F808B10098606004B03046D9
:1022B000BDE8F081900B002078070020002108463F
:1022C00000F0ECFC08B1FEF73FFB00F057FB0748BD
:1022D0000749401AC008032101EB004005A100F0A6
:1022E00073FCFFF7A3FB20BFFDE7000008440000DC
:1022F000E84300004641544653206578616D706C98
:102300006520737461727465642E0000002A05D024
:1023100011F8013B00F8013B521EF9D17047000053
:102320005FFA81F100F8011B521EFBD170472DE9C5
:10233000F047C5881E1DB6FBF5F78946B6FBF5F1DB
:10234000044605FB176C407916686843DDF820A049
:10235000F718001F874200D9C61A166001E02468EA
:10236000491E0029FBD1A5EB0C078846B74216D8B9
:1023700018E004EB0C00001D09EB0803BAF1000F94
:102380003A4602D00146184600E01946FDF7CAFF5A
:102390002468F61B4FF0000CB844B54201D937460B
:1023A00000E02F46002EE4D1BDE8F08730B50246AC
:1023B00051B100F091FC0021074C08E034F82130C5
:1023C0001568AB4202D11160002030BD491C81422A
:1023D000F4D3052030BD00000000000070B50446B5
:1023E000C06A0D460026A8420FD0204601F036FEF6
:1023F00006000AD1607801232A4604F13001FFF774
:1024000009F808B1751E0126E562304670BD00214D
:1024100000F009B8012100F010B808B56A46FDF7D0
:102420002CFF009808BD08B56A46FDF70CFF08BDF3
:1024300008B56A46FDF7EEFE08BD08B56A46FDF729
:10244000F5FE009808BD08B56A46FDF723FF009821
:1024500008BD70B5044600252846FEF787FB2168B5
:102460006268086890420ED9401E08600178238A8D
:10247000E26801FB0325227A2168101AC0B20A79AA
:10248000824200D208710020FEF772FB284670BD20
:1024900070B505460C460020FEF768FBE868298AFF
:1024A000201AB0FBF1F12A681068431C1360017018
:1024B000BDE870400020FEF75BBB10B530B1017A7B
:1024C00042680368891AC9B21A6006E00E2010BD7E
:1024D00003681A68541C1C601170491EC9B2F7D2F7
:1024E000006800210171084610BD03681B69184788
:1024F0002DE9FF411C460378164D174E45F8232061
:102500000C3545F82340F0CE8DE8F0000C788DF8BE
:1025100000404C788DF801408C788DF80240CC78E2
:102520008DF803400C798DF805404C798DF8064004
:102530008C6802940C7B8DF80C40497B8DF80D1053
:1025400002B1064A6946001D00F0FAFC04B0BDE87D
:10255000F081000048050020B4410000153E000055
:102560001FB5001D069C8DE81E000022694600F084
:10257000E7FD04B010BD0FB408B50399002904D0DD
:1025800004AA00926A4600F00FF801B05DF814FB4F
:1025900010B582680446002A05D0D4E904032168F6
:1025A00098470020A06010BD2DE9FC4791460C0023
:1025B000804676D014F8011B39B125290ED040464B
:1025C000FEF736FC20780028F4D198F80C0000289B
:1025D00067D04046BDE8FC47FFF7DABF0020012284
:1025E00021782B291BD02D2902D0302908D102E0D7
:1025F00040F0010001E040F00200641C002AEFD12D
:1026000000252A290ED02178A1F130020A2A11D200
:1026100005EB850201EB4205641C303DF1E740F01B
:102620000400EAE7D9F800100B1DC9F8003009686A
:10263000641C0D44217800232E290BD114F8011FAE
:10264000A1F130020A2A05D203EB830201EB420317
:10265000303BF3E76C290DD068290BD0692921D0D4
:102660000BDC252918D0582931D063290ED06429D4
:1026700015D117E014F8011FECE7702969D0732910
:1026800032D075291BD0782909D120E0D9F8000073
:10269000011DC9F8001001784046FEF7C9FB641C13
:1026A00090E76CE0D9F800100A1DC9F8002009680D
:1026B000CDE900500A224046FFF722FDEFE7D9F8A6
:1026C00000100A1DC9F8002009680A2206E0D9F89E
:1026D00000100A1DC9F8002009681022CDE9005039
:1026E000404601F0E5FCDAE7D9F8001000270A1DA2
:1026F000C9F800200E68C00705D112E04046761CDC
:102700007F1CFEF795FB31780029F7D104E02021EA
:1027100040466D1EFEF78CFBBD42C0D9002DF6D1A0
:10272000BDE74EB13046FDF721FE074604E020210B
:1027300040466D1EFEF77CFBBD4206D9002DF6D14A
:1027400003E04046761CFEF773FB31780029F8D190
:10275000A5E7D9F80000011DC9F80010056830216F
:102760004046FEF765FB78214046FEF761FB0820F6
:102770000021CDE90001034610222946B0E7BDE85B
:10278000FC8770B541EA4201DDE904564FF0A044F0
:1027900041EA830141EA052104EB800041EA064158
:1027A000C0F8001770BD70B541EA4201DDE904567A
:1027B0004FF0A04441EA830141EA052104EB800087
:1027C00041EA0641C0F8001770BD1CB50021009118
:1027D0000B46012201911146FFF7D3FF1CBD4FF0BC
:1027E000A04201218140C2F80C1570474FF0A04271
:1027F00001218140C2F8081570474FF0A042012125
:102800008140C2F80815704730B5154A01460020CE
:10281000D2F8104423460AE0DB681D79854205D1D1
:10282000401C0A28F6DB4FF0FF3030BD1B68002B40
:10283000F2D1431CF9D0CB681871D2F8103443B1EF
:10284000DB68CC681B682360D2F81024D268116062
:1028500030BDC2F81014C96800220A6030BD000003
:10286000780700207047FDF7A3BD704708B5034AFD
:1028700000924023024A00F005F808BDF93B000031
:10288000E0050020F0B595B01C4615460F460846F9
:102890001A9E00F0F3FA182109A8FDF75CFD0E96C8
:1028A000CDE909540023082203A9384600F0FBFAB9
:1028B00005980690BDF81000ADF81C00BDF8120098
:1028C000ADF81E0000208DF821000398082600F0C6
:1028D0000300012802D0022818D032E003983346C2
:1028E000850AC0F3C2008DF8200003980FA9C0F339
:1028F0008314A200384600F0D6FA09A8009006AB6F
:1029000022460FA9284600F015FA1AE00398840D14
:10291000C0F3C2008DF82000082C01D2254600E04B
:10292000082533462A460FA9384600F0BCFA2E4443
:10293000641B09AB06AA29460FA800F059F9002C20
:10294000EAD1384600F0A0FA15B0F0BD0A4A0129D4
:1029500002EBC00007D0022907D0032907D00429C1
:1029600007D000207047022070470420704700798C
:102970007047407970470000E843000010B5FFF74A
:1029800072FF04210348FFF73FFF02490120C96895
:10299000487110BDD84300002DE9F0478CB0FEF718
:1029A00057FA18B100200CB0BDE8F0877D4C00202C
:1029B000C4F81804BFF34F8F60680290A5684FF009
:1029C0000008284004EB80000CE000BFD4F8180495
:1029D00070B921680298814201D86160E2E728401D
:1029E00004EB80000C3002A9FFF7DDFB0028EDD1DD
:1029F000002003AA029901EA050304EB8303491CA2
:102A0000DB6842F82030401C02910228F2D3039880
:102A100000F00300022802D001284DD0A7E003985F
:102A20005022810D8946B2EB905F00D850210E46AE
:102A300066F39F50039008315B4800F0D6F9070019
:102A400078D000F01BFA4346082203A9384600F06C
:102A500032FA029908F1080A2940681A8000001D1C
:102A6000864222D94F4D0C3530B1C2B204EB810100
:102A7000301A90460C3104E02946F2B20025904607
:102A80002846C6B25346384600F015FA0AEB08034A
:102A900025B132462946384600F00DFA029909F16F
:102AA000030001EB900002903BE004EB81015346F0
:102AB000324638460C31EFE70398C0F383100628FE
:102AC00000D30620039960F38911C1F38310801CA1
:102AD00003918100344800F088F9070047D000F0E6
:102AE000CDF94346082203A9384600F0E4F908F17D
:102AF000080800260FE00298434600EA0501401C42
:102B000004EB81010290042238460C3100F0D3F925
:102B100008F10408761C0398C0F38310B042EAD889
:102B200047B1D4F81054D4F8180478B1384600F0FE
:102B3000ABF931E01BE0E8684079012804D12A684C
:102B40002846394612689047E8680568002DF2D19A
:102B5000384600F099F90020FEF708F8D4F8180478
:102B600008B9029860600020FEF702F814E0D4F87B
:102B7000104405E02168204689688847E0680468B9
:102B8000002CF7D109480A49401AC008022101EB7C
:102B9000004008A100F018F8FEF75AF980F0010093
:102BA00001E70000780700201044000008440000FE
:102BB000E84300004261636B656E647320666C7568
:102BC000736865640000000000231A4601F0BCB978
:102BD00008B5012300926A4601F0B6F908BD1CB59C
:102BE000CDE9002302236A4601F0AEF91CBD0000C6
:102BF0002DE9F0470E4680461C46924608293ED8ED
:102C000094F80C90002020731946104600F0E8FA62
:102C10000025B54206D218F805201AA12046FFF774
:102C2000AAFC03E019A12046FFF7A5FC6D1C082DA6
:102C3000EFD317A12046FFF79EFC0025B54210D226
:102C400018F80570FDF76AFB0068C05D10F03E0FD4
:102C500001D03A4600E02E220EA12046FFF78BFC61
:102C600003E00DA12046FFF786FC6D1C082DE5D37F
:102C700001222146504600F095FA84F80C90BDE8F8
:102C8000F08700002025303278000000202020004E
:102C90007C00000025630000200000000B4810B5F8
:102CA000FF218160002101604160C0F81814C0F864
:102CB0001414012180F82014054800F0E3F80028DE
:102CC00003D1044800F0FFF8002010BD7807002071
:102CD000104400007842000002480349401AC0082E
:102CE0007047000010440000E843000013B5684638
:102CF000FFF75CFB08B100201CBD0248009950F8AA
:102D000031001CBDE843000070B509480125D0F82A
:102D1000104480F8205407E0E0684571216820469F
:102D200049688847E0680468002CF5D170BD000050
:102D3000780700202DE9FF4781460C9D00200C46B6
:102D40002F7B2873984616462946184600F048FA05
:102D5000072E42D2DFE806F004090F161F2A3600BC
:102D600049462846FFF707FC37E0494628462268CF
:102D7000FFF701FC31E0D4E9002349462846FFF77C
:102D8000FAFB2AE0A0680090D4E9002349462846CF
:102D9000FFF7F1FB21E0D4E90201CDE90001D4E91C
:102DA000002349462846FFF7E6FB16E004F1080039
:102DB00007C88DE80700D4E9002349462846FFF7F5
:102DC000DAFB0AE004F108000FC88DE80F00D4E92F
:102DD000002349462846FFF7CEFB002229464046FD
:102DE00000F0E0F92F73BDE8FF872DE9F041058A77
:102DF00080462D1F4819C01CB0FBF5F0C6B24046F6
:102E0000FFF727FB041E19D00020207101206071FC
:102E1000E58000272546761EC4F800800BE040467A
:102E2000FFF717FB60B16179491C617128600546A5
:102E30007F1CC0F80080B742F1D32046BDE8F08186
:102E4000204600F002F80020F8E72DE9F04145792E
:102E500001466B1E002201E00968521C9A42FBD316
:102E60000F680146002605E038460C68FFF710FBA6
:102E70002146761CAE42F7D3BDE8F0810121001D4A
:102E8000FFF7CBBAFFF719BB10B504460121001DAF
:102E9000FFF7D9FA10F0FF0F04D12046BDE810402B
:102EA000FFF7D3BF10BD1CB501920122009201AA09
:102EB000FFF73DFA1CBD1CB501920022009201AA49
:102EC000FFF735FA1CBD82680021916082681161AC
:102ED000826851618268D160826851608068016057
:102EE00070474058002800D0012070470121B1EB05
:102EF000507F01D1012070470020704770B50D460A
:102F000000F0BAF904000FD00020FDF72FFE207961
:102F100020B10020FDF72CFE112070BD012025609E
:102F200020710020FDF724FE002070BD10B500F0D8
:102F3000A3F9002802D000210160017110BD00003A
:102F40002DE9FC470C46154601798046584A01EBAD
:102F5000C10002EB80069946307F10B10820BDE821
:102F6000FC87544AD8F80000074652F82110FFF7B2
:102F7000C5FF08B11120F2E7C6E90059207B0128FE
:102F8000207802D8FFF72BFC01E0FFF72FFC4FF071
:102F9000000ACDF800A0CDF804A020785346524690
:102FA0000121FFF7EEFB60784FF0FF35FF2806D0D8
:102FB0008146FFF714FC4846FFF707FC00E0A946EE
:102FC000A078FF2809D0002205460123CDF800A0F3
:102FD0001146CDF804A0FFF7D4FBA07886F82000B6
:102FE000E078F077E078FF280BD0217911B1FFF776
:102FF000F6FB01E0FFF7FAFBE078FFF7E6FB20794C
:10300000B0772178C7F80815C7F80C95C7F81055A0
:10301000A068C7F82405217B607B00B1012001294D
:1030200004D0022905D0032908D105E040F00200B0
:1030300004E040F0040001E040F00600C7F8540549
:10304000A079C7F8C005306810B14020C7F8040364
:103050000720C7F800053068012118B3D8F8000030
:10306000627940F3073000284FEA421206DA00F096
:103070000F0000F1E02080F8142D03E000F1E020C3
:1030800080F80024D8F8000040F3073000F01F0358
:1030900001FA03F24009800000F1E020C0F880222C
:1030A000C0F80021504686F81DA0317757E7000090
:1030B00060050020C44100002DE9FC41074600796D
:1030C0001D4900EBC00001EB80040121206860B1C4
:1030D000386840F3073000F01F0201FA02F240099D
:1030E000800000F1E020C0F880213D6820680026C3
:1030F00070B11248C5F80803607F48B169614FF4A8
:10310000827841462846FFF7ECFE0028F9D0667722
:1031100094F82000FF2806D00023009601221946CB
:103120000196FFF72EFBC5F800653868FFF7FEFE35
:103130002677BDE8FC8100006005002052010800F0
:103140002DE9F04105460F460079154900EBC00016
:1031500001EB80041646607F10B11120BDE8F081BC
:10316000206820B116F0140F01D10120607797E894
:103170000F0004F10C0888E80F00E07FFF2806D05C
:10318000A17F11B1FFF732FB01E0FFF728FB3346C7
:103190003A4621462868BDE8F04100F057BE0000DD
:1031A0006005002010B50C46017A052908D0407A48
:1031B00038B1084808A102682046FFF7DCF900E0B2
:1031C0001AB106A12046FFF7D6F92046BDE8104007
:1031D000FFF7DEB968000020257300000D0A00002B
:1031E00038B5C3880D46044633B114A0009015A22B
:1031F00016A12846FFF7BFF9217A05291CD0607A6D
:1032000048B1A088FFF7A2FB164951F8202016A16B
:103210002846FFF7B0F9A0880021FFF767FD0346B5
:103220001049207A143951F8202001B02846BDE811
:1032300030400EA1FFF79FB938BD00001B5B306D19
:10324000000000001B5B313B33316D0025734C6F78
:1032500067732064726F7070656420282564292567
:10326000730D0A0068000020257300003C25733EA2
:103270002025733A200000000349884201D1034809
:103280007047002070470000002000401C00002014
:103290002DE9F047022617460D460446022969D358
:1032A0006069A84266D920784FF00109012804D04E
:1032B000022836D003285DD143E0216A05EB55088A
:1032C00001EB58212046FFF789F8060052D1C8F3D8
:1032D00008002044303008F10108E90704D00178E3
:1032E000FAB262F31F1100E03946017084F80390CE
:1032F000216A204601EB5821FFF770F8060039D10A
:10330000C8F3080020443030E90702D0C7F30711A2
:1033100005E00178C7F3032201F0F00111430170C9
:1033200026E0206A00EB15212046FFF757F806003B
:1033300020D1E8B204EB4000B9B2303000F000FE1A
:1033400016E0206A00EBD5112046FFF747F806008B
:1033500010D140F2FF1000EA8500204430300546CD
:10336000FEF74EFF67F31B000146284600F0E0FD24
:1033700084F803903046BDE8F0872DE9F0410568F8
:1033800013460E46074602292DD36869B0422AD952
:103390003BB14FF0FF3219462846FFF779FF00286E
:1033A0001FD131463846FEF7FDFD040018D0012C30
:1033B00019D0601C19D0002231462846FFF768FF5B
:1033C00000280ED1D5E90410821E914205D2491C75
:1033D0002961297941F0010129712646B042E0D8DE
:1033E0000020BDE8F0810220FBE70120F9E70000A2
:1033F0002DE9F0412B4B93F8234014B11120BDE887
:10340000F0810125002783F82350040612D50224F9
:1034100083F82340772483F82840002483F8294048
:1034200083F82A4083F82B40062783F82C40FF249A
:1034300083F82D40DC1900F07F0684F828600E0E1A
:1034400084F829600E0C84F82A600E0A84F82B6038
:1034500084F82C10402810D0482810D05FF0FF01CD
:1034600084F82D100521022A0BD0032A09D083F8F5
:103470002450000608D5012008E09521F0E78721B7
:10348000EEE783F82410F4E793F82400054A0E30A1
:10349000C3B238320621A2F1100000F08FFB0020E9
:1034A000ADE7000084050020FEB5214E05464078BA
:1034B000307077682978BC6949B11E4801291CD051
:1034C00002292FD0BDE8FE400320FDF73DBAFDF7ED
:1034D000B7FA006820604FF400706060706880691F
:1034E000806800281DD0002000900190029068782C
:1034F00000B101208DF801000DE0A168002910D075
:1035000007C88DE80700687800B101208DF8010038
:1035100004F10C000190A0690290A2686946384647
:103520009047FEBDA1680029FBD00C30E8E7000001
:1035300028000020004200002DE9F84FA44C174657
:10354000D0F80120264612BA037922F0FF02B6F81D
:1035500020C042EA030E8A46A38B06F1480596F87E
:103560000AB001784FF40E7804220CF1010C002609
:103570001FFA8CF943456ED020DC40F21325A3F2EC
:10358000132CAB423CD00EDC4FF4047773B3BB4238
:1035900028D1012200214020FFF72AFF08B1FDF7C2
:1035A000D3F9A5836DE08A48BCF1060F807A20F03C
:1035B000070035D0BCF1130F14D14DE040F2612C5F
:1035C000A3F26128634577D006DCA3F500734D3B79
:1035D00079D0062B06D185E0B8F10A0F6ED0B8F18C
:1035E0000F0F6CD0A6830320BDE8F88F01220021C5
:1035F0004020FFF7FDFE08B1FDF7A6F9A78340E0E4
:10360000880801D03A70BBE003224FF4D5714820FE
:10361000FFF7EEFE08B1FDF797F940F2192015E02B
:103620004B0703D4C01CA0728808EBD12684A07A73
:1036300000F0070003280BD000210222E920FFF749
:10364000D7FE08B1FDF780F940F22620A08318E0EC
:103650004FF08041F1E716E04B0734D5401CA072D3
:10366000A4F82090B9F5FA6F01D9022079E002227E
:1036700000214120FFF7BCFE08B1FDF765F9A4F871
:103680001C800120B0E78808BCD1C807E8D131E030
:10369000A4F82090B9F5FA6FE7D80BF007000328DB
:1036A0000ED000210222E920FFF7A2FE08B1FDF7AB
:1036B0004BF940F24D20C9E72CE004E03AE044E049
:1036C0004FF08041EEE788089CD1C807E0D1022284
:1036D00000217A20FFF78CFE08B1FDF735F940F2A2
:1036E0005320B3E788088DD15FEA4E0002D54BF036
:1036F0000800A072A07A00F0070003280CD0012275
:1037000051025020FFF774FE08B1FDF71DF940F299
:1037100061209BE7880888D10120E560A0820246ED
:1037200000214920FFF764FE08B1FDF70DF940F2D2
:103730006B208BE78908A7D1AAF1010101F0FF0AEC
:10374000E6834FF41C71A183401C6B461022514646
:1037500000F080F8022801D2002045E79DF8000023
:1037600008B138700CE0287880090CD0012823D0EB
:10377000022808D0304660604FF4007020813E700F
:10378000A683022030E7287AE979800900EB8100DE
:10379000A979AA7A01F0030100EB81206B7A69799B
:1037A000D20903F0030301F00F0102EB43021144BD
:1037B000401CC91F8840DEE7287A0102E87901EB46
:1037C0000040697A0844800200F58060D3E7000079
:1037D00084050020F8B51E4C16464FF42673A28BC4
:1037E000002542B19A4210D0A2F50072A23A2AD026
:1037F000A5830320F8BD0278920801D0042010E0D0
:10380000491EE583C9B2A383401C6B464FF4007286
:1038100000F020F8022801D20020F8BD9DF8000039
:1038200008B1307010E0A08A01280CD901220021D3
:103830004C20FFF7DDFD08B1FDF786F840F2A2202D
:10384000A0830120F8BD3570A5830220F8BD0000DB
:10385000840500202DE9F05F554C9A461646E38B0F
:10386000254605F1380240F2D91B2835A3F2D91CB0
:103870004FF000095B4560D005DC7BB1A3F5807398
:10388000C73B06D155E0BCF1070F7AD0BCF1130F4E
:1038900076D0A4F81E900320BDE8F09FA38AE382AF
:1038A00070E000BFA4F8209084F82870A4F8189065
:1038B000032384F82330238C44F620675B1C9BB2DF
:1038C0002384BB4204D902210AE0491EC9B2401C2C
:1038D00059B10378FF2BF8D0DBB2FE2B0FD00521B6
:1038E0008AF80010A4F81E9060E0102301212846F9
:1038F00000F064F940F2C710E0830120CCE7491ED4
:103900000423C9B2401C84F82330B14201D93746A0
:1039100000E00F46002306E0D4F80C8010F803C046
:1039200008F803C05B1CBB42F6D32783E3683B4423
:10393000E36094F82330032BBDD0208BB04213D228
:10394000301A86B2F02E00D9F026F3B201212846B3
:10395000E26800F033F9E0683044E060208B3044E6
:103960002083A4F81EB0C8E7E08A0223401EE0824C
:103970000121284600F022F94FF4F070BCE700E086
:103980000EE00021E38AFF27002B8BD184F82870FA
:1039900002230121284600F011F94FF4F670ABE73D
:1039A00084F823908AF80090A4F81E90022073E710
:1039B000840500202DE9F05F7F4C1646234607461C
:1039C000B4F81C8003F1380203F1280093F8239027
:1039D0009D8A00234FF0040A4FF0020E4FF0030CB3
:1039E00044F6206BB8F53B7F74D00EDCB8F1000FC5
:1039F0001AD0A8F50078B8F1C3082ED0B8F1100F8E
:103A000055D0B8F1210F0BD151E0A8F50078B8F5E9
:103A100085786ED0B8F1160F6CD0B8F1260F6AD049
:103A2000A3830320BDE8F09F3978890803D000BF45
:103A300086F800A0ABE0A17A01F0070101290FD0C0
:103A4000012D0DD9012259202169FFF7D1FC08B1C0
:103A5000FCF77AFF40F2C32016E039788908E7D1F5
:103A6000E5826FE0238384F823A084F82810012DD9
:103A700001D9FC2100E0FE2184F829100223194617
:103A800000F09CF840F2D320A0836EE0C3F50070F4
:103A900085B2F02D00D9F025C818E9B2012300F055
:103AA0008DF8208B284420834FF43970ECE742498D
:103AB000238BC968B3F5007FE8D301F50071E1609D
:103AC00084F823C00323012100F078F84FF43B7001
:103AD000DAE7FFE794F83A1001F01F01052906D054
:103AE0000B2901D00D29A3D1052030704FE023848C
:103AF00022E011E03BE04DE0218C491C89B2218499
:103B0000594502D986F800E041E01023012100F078
:103B100055F840F20A30B7E74FF0000C0AE000BF5A
:103B200017F80C80B8F1000F02D084F8233006E0BB
:103B30000CF1010C8C45F3D3B9F1030FDCD0E18A11
:103B4000491EE182E78AFF21002F8BD1012D31D957
:103B500084F82810FD2184F82910032302211C3445
:103B600000F02CF84FF44870208001205AE723849D
:103B700084F823C0218C491C89B221845945C1D8BD
:103B80001023012100F01AF84FF44C707CE7A38356
:103B9000022047E7002508E017F805C0BCF1000F38
:103BA00002D084F8233005E06D1C8D42F4D3B9F1C6
:103BB000030FDFD03370EAE784050020F8B50C4628
:103BC0000B494FF0A04691F858500121A940C6F882
:103BD0000C1500931346014622460648FEF7C0FC2A
:103BE000002803D0BDE8F840FCF7AEBEF8BD0000E9
:103BF00084050020C84100002DE9F04114008846EA
:103C000018D000250E4F032608EB050122460020A0
:103C1000FCF7D0FB0544241A40B93878002809D0B5
:103C200008494FF47A408847761E05D00120387045
:103C3000002CE9D1BDE8F08100203870FAE70000DF
:103C400030000020714200002DE9F04FDFF8BC8108
:103C50000746057CC468B8F8160087B018B998F80C
:103C60005800FEF7CAFD98F8230000264FF0020B1B
:103C70004FF003094FF0010A022801D001284BD16F
:103C80007968AD1FA41D0978EDB24C2903D15DB14F
:103C90006D1EEDB2641C1DB12278FF2AF8D005E03C
:103CA0004C2901D0002402E00125641E5CBB98F879
:103CB0002210012927D08DF801A098F82210504633
:103CC000012907D0022905D004290DD005290ED0DD
:103CD000032006E08DF8006088F82290FCF722FFB0
:103CE00038B1FCF731FE04E08DF8000001E08DF8FA
:103CF00000B098F85800FEF780FD88F822906846DA
:103D0000D8F8001065E0022804D188F823A02078B4
:103D1000400814D088F8236006208DF80C0098F82D
:103D20002200012817D0022819D0042838D00528ED
:103D300051D00320FCF708FE07B0BDE8F08F98F8DB
:103D40002400324A0E30C3B238320621A2F10A00F2
:103D5000FFF734FFF0E788F822B0A8F81C6003AA48
:103D600029462046FFF7E8FB0228E5D38DF80860D6
:103D70009DF80C008DF8090088F8229098F85800FA
:103D8000FEF73BFD9DF80C0020B1FCF7CBFE08B11F
:103D9000FCF7DAFD1E494FF08040C1F8240515E01C
:103DA00003AA29462046FFF715FD0228C4D38DF843
:103DB00008A09DF80C008DF8090088F82290A8F85A
:103DC0001460A8F8166088F8236019E0D8F800108D
:103DD00002A88847B0E703AA29462046FFF7EAFD74
:103DE0000228A9D38DF808B09DF80C008DF80900C1
:103DF00088F8229088F82360A8F81460A8F8166064
:103E000098F85800FEF7F9FCE0E700008405002070
:103E10000030004000B585B00A4601788DF80010EA
:103E200041680191017A8DF80810C1680391007C06
:103E30008DF81000044850F822100C3850F8222059
:103E40006846904705B000BD540500202DE9F843B1
:103E5000044610681E4615460F464FF0000810B184
:103E6000FFF744F8F8B1A86810B1FFF73FF8D0B1F8
:103E7000D5E90001C4F84405C4F84815D5E90201A4
:103E8000C4F83405C4F838154FF48C754046C4F8AE
:103E90001881D4F818110091F2074FF0010107D0F2
:103EA000C4F8501506E087F81D801020BDE8F8839F
:103EB000C4F85005B20702D5C4F8401501E0C4F8B3
:103EC0004005300700D42161386848B146F38000CE
:103ED000401C4FF0400014D0C4F804030020E5E774
:103EE00029462046FEF7FDFF0028F9D0F87FFF287D
:103EF000F4D0B97F11B1FEF772FCEFE7FEF776FC64
:103F0000ECE7C4F80803E9E770B50C460646154629
:103F100091B204F11A0000F013F83078032806D1AA
:103F2000290C04F11400BDE8704000F009B870BD20
:103F30000170090A4170090A8170090AC17070474D
:103F40000170090A417070472DE9F84F204D9246E3
:103F5000894606469846012269461846AF68FCF72E
:103F600023FF58B3009800210446801C09E000BFDD
:103F700000EA07035AF8212005EB8303401C491C83
:103F8000DA604145F4D34FEA164AFDF7DBFA4AEA14
:103F90000041601C384005EB80003C4005EB84028A
:103FA000C160D06866F3C50068F3891069F39F208B
:103FB00020F00300401C20F00400D06095F820049D
:103FC00002E000BFFEF7E8FC0028FBD1BDE8F88F57
:103FD0007807002070B5044600F040F8050036D19F
:103FE000207803282CD12079012829D1420204F11C
:103FF000300000210646FEF793F94AF6552104F2F7
:104000002E20FFF79DFF13493046FFF791FF12491D
:1040100004F50570FFF78CFF04F506702169FFF7C2
:1040200087FF04F50770E168FFF782FFE26901236B
:10403000521CE26260783146FDF73AFA00202071A6
:10404000002260781146FDF7A7F900B10125284646
:1040500070BD000052526141727241612DE9F04120
:104060000446C0780027F8B1E56A04F130016078B1
:1040700001232A468846FDF71BFA08B1012713E001
:104080000020E070206AA169281A88420CD2A67824
:1040900008E0A0690123054460782A464146FDF7FF
:1040A00007FA761E022EF4D23846BDE8F0810000F1
:1040B0002DE9F05F8346DDE90A4A994690460D46B0
:1040C0000846012703E000BFB0FBF8F07F1C404525
:1040D000FAD2B94500D94F465FEACA7012D18CB105
:1040E0005FEA8A7002D5B9F1000F01D0202607E0FF
:1040F000302605E031465846641EFCF799FE0CB1A7
:10410000A742F7D35FF00106B9F1010F02D9A9F177
:10411000010903E0B5FBF6F0404502D306FB08F6C3
:10412000F2E7DFF83C9000BFB5FBF6F000FB165558
:1041300019F800105846FCF77BFEB6FBF8F6002E87
:10414000F2D15FEACA7009D0002C07D0A74205D28D
:1041500020215846641EFCF76BFEF5E7BDE8F09F92
:104160004842000070B50D4604000CD0206850B1E4
:10417000017841B1C188A288914204D14078FDF70D
:1041800087F9C00703D000202860092070BD20688F
:104190002860002070BD0000E841000018430000C6
:1041A000144300000C43000000020000050807064D
:1041B0002C050020FFFFFFFF0007FF00000000406C
:1041C000000000001104000000000000003000406A
:1041D0000000000001000000000000FF07FF0000D9
:1041E0000000000400000000C90B0000D90C000012
:1041F0005D0C00002D0D00003D0C0000C50B000003
:1042000002000000000000000000000003000000A9
:10421000000000000000000000010000000000009D
:10422000000000000100000000000000000000008D
:104230000201000000000000000000000201000078
:1042400000000000000000003031323334353637D2
:1042500038394142434445466D2800006B28000030
:1042600065280000000000000000000000000000C1
:104270000338FDD870470000E00600207F000000F2
:1042800060070020004040404040404040404141E5
:10429000414141404040404040404040404040401B
:1042A00040404040400502020202020202020202B5
:1042B00002020202022020202020202020202002B2
:1042C0000202020202029090909090901010101042
:1042D00010101010101010101010101010101010DE
:1042E0000202020202028888888888880808080872
:1042F000080808080808080808080808080808083E
:10430000020202024000000085420000312E3030DF
:1043100000000000534443004E6F72646963000064
:104320007761726E696E6700646562756700000090
:104330001B5B313B33306D001B5B306D00000000B8
:104340001B5B313B33316D001B5B313B33326D0006
:104350001B5B313B33336D001B5B313B33346D00F2
:104360001B5B313B33356D001B5B313B33366D00DE
:104370001B5B313B33376D00696E666F00000000D8
:104380006572726F72000000505253005350494DD5
:1043900000000000554152540000000055415254A5
:1043A000450000007274745F6C6F675F6261636BDD
:1043B000656E6400617070002444000000000020FD
:1043C00090000000A6080000B44400009000002007
:1043D000982D0000B60800005842000000000000C0
:1043E000A4430000340000208843000000000000C7
:1043F0008C43000000000000944300000000000017
:104400009C43000000000000B443000000000303D0
:10441000440000203C000020440000202006002032
:10442000180000009841000000000000000100009A
:10443000000000000000000000000000000000007C
:10444000000000000000000000000000000000006C
:10445000000000000000000000000000FF0000005D
:10446000000000000000000000000000000000004C
:104470000000000000000000000000008043000079
:104480002043000078430000284300003843000028
:104490003043000040430000484300005043000008
:1044A0005843000060430000684300007043000070
:0444B0000090D003A5
:0400000500000201F4
:00000001FF
