:020000040002F8
:10600000A05E0020C1630200C9630200CB630200EE
:10601000CD630200CF630200D163020000000000E4
:10602000000000000000000000000000D363020038
:10603000D563020000000000D7630200D9630200AC
:1060400071670200DB630200816B02004D68020091
:10605000DB630200DB630200A9650200DB63020070
:10606000DB630200DB630200DB630200DB63020030
:10607000DB630200DB630200DB630200DB63020020
:10608000DB630200C9670200DB630200DB6302001E
:106090005D680200DB63020061680200DB630200EE
:1060A000DB630200DB630200DB630200DB630200F0
:1060B000DB630200DB630200000000000000000060
:1060C000DB630200DB630200DB630200DB630200D0
:1060D000DB630200DB630200DB6302000000000000
:1060E00000000000000000000000000000000000B0
:1060F00000000000000000000000000000000000A0
:10610000000000000000000000000000000000008F
:10611000000000000000000000000000000000007F
:10612000000000000000000000000000000000006F
:10613000000000000000000000000000000000005F
:10614000000000000000000000000000000000004F
:10615000000000000000000000000000000000003F
:10616000000000000000000000000000000000002F
:10617000000000000000000000000000000000001F
:10618000000000000000000000000000000000000F
:1061900000000000000000000000000000000000FF
:1061A00000000000000000000000000000000000EF
:1061B00000000000000000000000000000000000DF
:1061C00000000000000000000000000000000000CF
:1061D00000000000000000000000000000000000BF
:1061E00000000000000000000000000000000000AF
:1061F000000000000000000000000000000000009F
:10620000DFF80CD000F092F900480047F9AA02002C
:10621000A05E002030B450E8012F93B2C48923441B
:106220008489A34228BF1B1B0489A34202BFBFF37A
:106230002F8F002007E0C3EA020340E80134002C5E
:10624000E9D14FF001000A6030BC704750E8012FDF
:10625000C2EA024240E801210029F7D1704730B478
:1062600050E8022F1FFAA2F3C488A34202BFBFF373
:106270002F8F00200DE0C48923448489A34228BFC6
:106280001B1BC2EA034340E80234002CE8D14FF064
:1062900001000A6030BC704750E8022FC2EA224277
:1062A00040E802210029F7D17047034653E8022F46
:1062B000D988B2EB324F4FF0000017BF92B241EADB
:1062C000014142EA014104E05A68B2EB324F08BF93
:1062D000012043E80212002AE8D1704730B4044696
:1062E00054E8000F0D4644E80053002BF8D1156028
:1062F00030BC704730B4044654E8000F40EA010552
:1063000044E80053002BF7D1156030BC704730B41F
:10631000044654E8000F00EA010544E80053002B4E
:10632000F7D1156030BC704730B4044654E8000F14
:1063300080EA010544E80053002BF7D1156030BC1A
:10634000704730B4044654E8000F00EB010544E800
:106350000053002BF7D1156030BC704730B40446B1
:1063600054E8000FA0EB010544E80053002BF7D1DF
:10637000156030BC704770B404464FF0000054E81C
:10638000006F0D68AE4207BF44E80023012044E8D7
:1063900000630E60002B1CBF0020F0E770BC70474C
:1063A00030B4044654E8000F88422CBF451A054615
:1063B00044E80053002BF5D1156030BC7047000055
:1063C0000648804706480047FEE7FEE7FEE7FEE78F
:1063D000FEE7FEE7FEE7FEE7FEE7FEE76568020090
:1063E000016202002DE9F05F0546002092469B46BF
:1063F00088460646814640241BE0284641464746DB
:10640000224600F082F853465A46C01A914110D3F2
:1064100011461846224600F016F82D1A67EB0108BF
:106420004F4622460120002100F00DF817EB00092D
:106430004E41201EA4F10104DFDC484631462A46C5
:106440004346BDE8F09F202A04DB203A00FA02F11F
:10645000002070479140C2F1200320FA03F3194352
:106460009040704700487047300B030010B5431A46
:10647000934209D28318881803E010F8011D03F82D
:10648000011D521EF9D210BD40EA01039B0703D043
:1064900009E008C9121F08C0042AFAD203E011F863
:1064A000013B00F8013B521EF9D210BDD2B201E00F
:1064B00000F8012B491EFBD270470022F6E710B509
:1064C00013460A4604461946FFF7F0FF204610BD62
:1064D000421C10F8011B0029FBD1801A704730B50F
:1064E00004460020034600E05B1C934203D2E05CBC
:1064F000CD5C401BF8D030BD034611F8012B00F8ED
:10650000012B002AF9D118467047202A04DB203AD3
:1065100021FA02F00021704721FA02F3D040C2F1C3
:10652000200291400843194670470000064C074D71
:1065300006E0E06840F0010394E807009847103453
:10654000AC42F6D3FFF760FE681503008815030020
:1065500070B58C1810F8015B15F0070301D110F825
:10656000013B2A1106D110F8012B03E010F8016B52
:1065700001F8016B5B1EF9D12B0705D40023521ED5
:106580000DD401F8013BFAE710F8013BCB1A921C3D
:1065900003E013F8015B01F8015B521EF9D5A1423B
:1065A000D8D3002070BD00002DE9F04700268AB046
:1065B000DFF85091B0464FF48075012437460696B7
:1065C000284605F0ABFB38B1D9F80403204203D0CC
:1065D000284605F099FB26432D1D64007F1CADB2B3
:1065E000082FEDD34FF4BE74204605F097FB48B159
:1065F000204605F089FB46F0004606AA012100204E
:1066000005F06EFB404D16F0FF0F15D0012700245A
:1066100037420DD009EB8401D1F81005D1F81015DF
:10662000C0F3042055F82420C1F3014102B1904782
:106630007F00641C082CEBD3002E5FDA4FF0FF3094
:10664000CDF8108054E0281910F8507F90F9000020
:1066500027F0C008401C3BD007A9404604F0C5FD08
:1066600010B34FEA9719404602F090FA55F820709F
:106670001FB1B9F1030F03D006E0B9F1030F27D121
:1066800004A9404604F0B9FD4FF0A04101EB880099
:10669000D0F8000706A9C0F3014A404604F0A5FD62
:1066A00018B1BAF1020F03D012E0BAF1030F0FD103
:1066B000B9F1030F08D1BAF1020F1DD002214046F3
:1066C00005F0EAFA761CF6B217B149464046B847DB
:1066D000641C042CB7D3002E10D06A460121002080
:1066E00005F0FEFA06990098884207D006900498B3
:1066F000002634460790A6E70321E0E70AB0BDE88C
:10670000F087000000600040A433002000F01F026A
:10671000012191404009800000F1E020C0F8801282
:10672000704700F01F02012191404009800000F1F4
:10673000E020C0F80011704700F01F0201219140D5
:106740004009800000F1E020C0F8001270474907BE
:10675000090E002806DA00F00F0000F1E02080F8B2
:10676000141D704700F1E02080F80014704700000D
:1067700070B54FF48076304604F07AFE114CB505C2
:1067800060B1304604F07BFE0120C5F80803607953
:1067900020B9012060712168002088474FF482767B
:1067A000304604F065FE00280AD0304604F067FE4B
:1067B0000220C5F808032168BDE8704001200847A1
:1067C00070BD0000902C002007480021C0F8401147
:1067D000C0F84411C0F84811C0F84C11C0F80011BD
:1067E000C0F8041109F064B80010014000F0CEB9FF
:1067F00070B50E46144900EB400001EBC00514468D
:10680000E86A183520B101280FD0022805D113E01D
:10681000284600F0EFF9A04201D2002411E0224600
:106820003146284600F01EFA0BE0284600F0E2F957
:10683000A042F4D20446F2E73146284600F0E5F9DA
:106840000446204670BD0000183C00200149024863
:1068500009F03EB9003400200030004008F076BF57
:1068600006F052B8F0B5B5480023021D0178101D9E
:1068700001254FF0805406290BD11678360708D130
:106880000678C6F30316032E06D0042E04D0052E78
:1068900002D0062907D00EE0B4F82463A84FC6F34F
:1068A00004263E6002E01678360704D10678C6F367
:1068B0000316032E02D0062904D00FE0A24FA14EEA
:1068C0007E670EE01678360708D10678C6F3031601
:1068D000032E06D0042E04D0052E02D0062907D0A0
:1068E0000EE0D4F84462994FC6F342363E6002E0AF
:1068F0001678360704D10678C6F30316032E02D0A5
:10690000062906D011E0924E376827F0807737606D
:106910000EE01678360708D10678C6F30316032E64
:1069200006D0042E04D0052E02D006290AD011E08C
:106930004FF08046C6F80C31C6F81031834E361F32
:10694000336002E01678360704D10678C6F30316E2
:10695000032E02D0062905D00CE07C4F03266437B5
:106960003E600AE01678360704D10678C6F30316AF
:10697000032E02D006290DD014E0764F05263E6086
:10698000744E78363560734E083633603F263F1DAF
:106990003E6002E01678360704D10678C6F3031687
:1069A000052E02D0062957D062E06B4E36686B4F39
:1069B0003E60694E361D36683F1D3E60664E0836A5
:1069C00036683F1D3E60644E0C3636683F1D3E60A3
:1069D000614E103636683F1D3E605F4E1436366895
:1069E0003F1D3E605C4E183636685C4F20373E6077
:1069F000594E1C3636683F1D3E60574E203636686D
:106A00003F1D3E60544E243636683F1D3E60524E58
:106A1000283636683F1D3E604F4E2C3636683F1D87
:106A20003E604D4E303636684C4F40373E604A4EE1
:106A3000343636683F1D3E60474E383636683F1D57
:106A40003E60454E3C3636683F1D3E60424E403605
:106A500036683F1D3E6002E01678360708D106789A
:106A6000C6F30316032E06D0042E04D0052E02D042
:106A7000062907D019E0D4F85812394A01F04F011D
:106A8000116002E0117809070FD10078C0F30310FC
:106A9000032803D0042801D0052806D13148016815
:106AA000C90702D06FF001010160D4F83001062857
:106AB00008D1D4F83401062804D12B48016841F4E8
:106AC0008061016022487438016841F470010160FE
:106AD000BFF34F8FBFF36F8F4FF01021D1F800023B
:106AE000002803DBD1F80402002822DA1F4A1560CF
:106AF0001F480468002CFCD01524C1F8004205682A
:106B0000002DFCD0C1F8044201680029FCD01360BC
:106B100001680029FCD0BFF34F8F0D48F0380168A1
:106B2000144A01F4E06111430160BFF34F8F00BFCD
:106B3000FDE7124910480860F0BD0000E00F00F0CA
:106B4000403501400DF0ADBA00C007403C050040A3
:106B5000FCED00E0105600400404001020C5004089
:106B6000E40E0040000400403C17004004E50140F2
:106B700000E401400400FA050090D003B02D00208D
:106B80000148006800470000982C002010B5124C06
:106B900002202061606111A0A06104F17800E06131
:106BA0004FF4007020620020A06260620BA1A1641B
:106BB000E06204F51E71E1641021A065C4E91410BF
:106BC000E06509A1E01DFFF797FC08A12046FFF74B
:106BD00093FC2020A07110BD183C00205465726DFC
:106BE000696E616C000000005254540053454747E1
:106BF000455200000269C1688A4203D88068401A81
:106C0000104400E0501A401E70472DE9F047C46858
:106C10001746894606464FF000083069A04201D960
:106C2000051B02E0B168201A0D1AB0686D1E001B2A
:106C3000A84200D80546BD4200D33D4670682A46AA
:106C400020444946FFF712FCB0687F1B2C44A8443F
:106C5000A944A04200D10024F460002FDDD14046B9
:106C6000BDE8F0872DE9F04104468846D4E90207E3
:106C7000C51BE168606816460844B54206D941461E
:106C8000FFF7F4FBB819E060BDE8F0812A46414601
:106C9000FFF7ECFB761B08EB050132466068FFF757
:106CA000E5FBE660F0E702E008C8121F08C1002A11
:106CB000FAD170477047002001E001C1121F002A7D
:106CC000FBD170470121202803DA814005480140AB
:106CD00003E0402802DA2038814009B101207047E2
:106CE00000207047FC06FFBD082806D228B1012805
:106CF00003D0042801D0012070470020704710B550
:106D000060B159B102780B785208B2EB530F05D13C
:106D10000622401C491CFFF7E2FB08B1002010BD11
:106D2000012010BD800701D000207047012070476E
:106D3000C3688B4206D811440069491E814201D8BC
:106D4000012070470020704710B501220221002069
:106D500001F02CFD08B1072810D1072202210120E3
:106D600001F024FD08B1072808D100210A220846B5
:106D700001F01CFD08B1072800D1002010BD000063
:106D80000E4910B503220988002802EB0142104683
:106D900005D00BA105F09CF907F044FA06E00C4978
:106DA00005F096F903210B4800F049FD002803D0B7
:106DB000BDE8104000F0CEB810BD0000042E002049
:106DC000457261736520626F6E647321000000007C
:106DD000340B0300182F002070B58CB015460E46FA
:106DE00000236C46C3F10F01415CE1545B1C102B86
:106DF000F8D30D2104F11000FFF75FFB0020C0F174
:106E00000F02315C2244401C11740328F7D36846FA
:106E100046DF0020C0F10F01214491F820102954D1
:106E2000401C0328F6D30CB070BD022001F0C8BB93
:106E30000149097900F096BF282C002070B5002484
:106E4000064D06E06868012110F8340005F03EFEAA
:106E5000641C28788442F5D3002070BDB02C00203B
:106E6000F8B515460C460646052A01D20720F8BD9E
:106E700005F028FF18B905F0EDFE0028F7D11249FA
:106E800000224E600C708D60C1E90422C1E9062227
:106E90000E4D0DE006EBC4002968009181788DF855
:106EA000011000780A4A694605F062FE0028DED12A
:106EB000641EE4B2EED2BDE8F84004480021054A61
:106EC000001D00F053B80000B02C0020C0070300E4
:106ED000459D0200BD90020072B605F0AFF900BFFB
:106EE00004F0E6FF0028FBD1104C0121208801EBC3
:106EF00000400FA105F0ECF810480068C00700D072
:106F000000BE2088022101EB00400DA105F0E0F851
:106F1000BFF34F8F0948E43801680D4A01F4E0617E
:106F200011430160BFF34F8F00BFFDE7042E002027
:106F3000466174616C206572726F7200F0ED00E062
:106F400053797374656D2072657365740000000079
:106F50000400FA050EB500210091CDE901106A4642
:106F600044F20100FFF7B8FF0EBD0000084B9B780C
:106F700023B12AB120B10068037C1BB108207047FF
:106F8000072070470023037441744261184670471C
:106F90005034002070B507F00BFD104800240B2181
:106FA000047044700E4D817014206C602C706C70F5
:106FB000FFF7ACFB07211420FFF7C9FB1420FFF7F4
:106FC000B0FB0848046007211120FFF7C0FB05480B
:106FD000001F0068A860002070BD00005034002031
:106FE000D02C0020081501402DE9FC47DFF87890EF
:106FF00099F8023073B368B3052902D20720BDE8BF
:10700000FC87436933B3437C012B25D0002704461A
:107010000025884616468DF80050684600F038F87E
:1070200001A809F045F8C8B1012101700F49446079
:107030000968C0E90218C0E904769DF8040089F8DF
:1070400001009DF8000000F047F81420FFF774FBE2
:107050002846D4E70820D2E70F46D8E704259DF854
:10706000000000F039F8F3E7503400200415014027
:107070000649897839B130B1416921B100210174E3
:10708000022108F0F1BB08207047000050340020B6
:1070900030B5EFF3108172B60D4A9468012324B124
:1070A0000370002900D162B630BD93604FF0E02339
:1070B000D3F88051074C25401560C3F88041D3F8C0
:1070C000844154605A17C3F8842100220270E8E713
:1070D0005C350020FC06FFBD0B498A68002A11D0F0
:1070E00000280FD1EFF3108072B60B684FF0E0224A
:1070F000C2F800314B68C2F8043100228A600028CF
:1071000000D162B6704700005C35002070B5204E9B
:1071100000224FF400413068FFF766FF08B1FFF727
:1071200019FF1C4C03251C49208805EB004004F086
:10713000CFFF002240F28F217068FFF755FF08B1A2
:10714000FFF708FF2088154905EB004004F0C0FF59
:10715000002242F26661B068FFF746FF08B1FFF710
:10716000F9FE20880E4905EB004004F0B1FF002233
:107170004FF42031F068FFF737FF08B1FFF7EAFE60
:107180002088084905EB0040BDE8704004F0A0BF2E
:1071900010060300042E0020640C03007C0B030087
:1071A000C80B0300140C030003F002BC2DE9F047E8
:1071B000074600888EB0804603F02EF982460446CA
:1071C0002D4800252A460178404600F0E3FD7879F5
:1071D000400734D501254FF6FF7603AB2A46072139
:1071E000504606F065FA010004D0404607F0CAFD9B
:1071F00000252BE0B1463146049803F061F80646BD
:1072000048450FD004460146404603F0EFF840469B
:10721000FFF70EFE30B9404607F086FD4046FFF707
:1072200007FE48B122460721504606F0B7FA010092
:1072300003D0404607F0A6FD00254E4506D0404647
:1072400006F01AFC10B1504603F0D2F802208DF877
:107250001800ADF81A807879400701D5012000E0C8
:1072600002208DF820008DF8215006A802F09AF82F
:107270000EB0BDE8F0870000282C00202DE9F04377
:107280000546407C93B00E460024A0B107949DF8BB
:107290001C0020F00F00401C20F0F00010308DF892
:1072A0001C00707B8DF81D009DF81E0020F006006C
:1072B000801C8DF81E001C216846FFF7FEF89DF823
:1072C000000040F002008DF80000697C11B140F030
:1072D000100001E020F010008DF8000001940394EC
:1072E0000494687C00B107A8CDE9050401278DF856
:1072F000427042F61920ADF840000D94B07B8DF835
:107300003400F07B8DF835009DF83600142120F014
:107310000600801C20F019008DF83600307B8DF8B7
:10732000440008A8FFF7C9F80DF140080DF1340931
:10733000ADF8287011A8CDE90889ADF82A40ADF85C
:107340002C700C90A888AB1D08AA6946AADF0028FB
:1073500038D1B06898B38DF8427042F60810ADF895
:1073600040000D94307C8DF834009DF8350020F0FD
:10737000FF008DF835009DF8360020F00600801CD7
:1073800020F019008DF836000EA8B16801F08FF8D2
:107390000646142108A8FFF790F8ADF828600EA85B
:1073A000CDE90889ADF82A40ADF82C600C90E8884A
:1073B00005F10E0208A9ABDF002803D101E0FFE7C9
:1073C000EC81002013B0BDE8F083000010B50E4939
:1073D0000E4807F04EFDC1B20B484FF6FE72EC3876
:1073E00000F048FB00280DD008280BD0132809D046
:1073F000112807D043F20141884203D0BDE8104074
:10740000FFF7A8BD10BD0000D02F0020AC2B00203E
:1074100070B50D4601462846AEDF04000A480088D4
:1074200009D0042101EB00402B462246074904F015
:107430005AFE204670BD032101EB00402A4604A1FC
:1074400004F04AFEF5E70000CC2D0020EC0D03000F
:1074500042617474657279206E6F746966696361E4
:1074600074696F6E20686173206265656E20736554
:107470006E74207573696E6720636F6E6E5F6861EE
:107480006E646C653A203078253034580000000076
:107490002DE9FC47002517880646158090F82D0039
:1074A0001446894630B13A462146484600F09CFCD5
:1074B000051E09D1B0784FF00C0A18B32088C846D1
:1074C000001DB84202D95046BDE8FC87684679DF06
:1074D0000028F9D12088032108F8001020881921FC
:1074E000401C80B2208008F800102088401C80B228
:1074F000208000EB0801BDF8000008F007FD21889E
:1075000008442080F0780222C8B1218896F903301F
:1075100001F1030C4846BC45D5D8425421884FF0B0
:10752000010C491C89B2218000F801C02188491C46
:1075300089B2218009F801302088401C20807068C1
:10754000B8B1218890F9003001F1030C4846BC45E0
:10755000B9D8425421880A22491C89B22180425458
:107560002188491C89B2218009F801302088401CFB
:107570002080308950B1CDE900474B4606220221D8
:1075800006F1080008F0ACFD051E9DD1308A50B10F
:10759000CDE900474B460722032106F1100008F011
:1075A0009FFD051E90D1308B50B1CDE900474B4671
:1075B0001522142106F1180008F092FD051E83D152
:1075C000306A30B13B462246494601F0EAFB051ECF
:1075D000DBD1706A30B13B462246494603F084FB5A
:1075E000051ED2D196F82C0038B13B4622464946BA
:1075F000304607F0E5FC051EC7D1307838B13B4670
:1076000022464946304603F031FC051EBDD12846CE
:107610005AE718B504460020ADF8000013466A4644
:10762000204600F006F8002802D0BDF800002044F3
:1076300018BD70B588B182B10024158803E0065DDD
:10764000641C3444A4B2A54203D8061976789E423D
:1076500001D08C42F3D38C4201D3002070BDA11C19
:107660001180005D401E80B270BD80F83010704700
:107670002DE9F0410D00044606D02CB195F87A00B2
:107680000026012803D006E00E20BDE8F08195F821
:107690009800012829D0D5F8A000042825D0D5F8D5
:1076A0009C00042821D04FF00108A6702C2205F17F
:1076B0007801201DFEF7DAFE84F83060D5F8A400CA
:1076C0006063D5F8A800A0634FF6FF70A4F8A80087
:1076D00004F19400C4F8A400C4F8AA60A4F8AE6051
:1076E00084F8B060207810B104E00720CDE7FF20D7
:1076F00084F8540004F155011F27C4F89410A4F82D
:10770000987004F198022846FFF7C2FE0028BCD109
:1077100015F13C0F0ED004F17401C4F89C10A4F8CC
:10772000A07004F1A00205F13C00FFF7B1FE0028B3
:10773000ABD103E0C4F89C60A4F8A06084F8518049
:10774000208BA4F8480084F83C80266484F85060BC
:1077500060696064454604F13C02002104F1540074
:1077600072DF002891D125708FE710B50288102AAA
:107770001BD0112A20D0262A1DD1007A0C460128C0
:1077800001D0022817D1A0780521401CB0FBF1F2EE
:1077900001FB1201204600F052F800280BD0A16B2B
:1077A000002908D0BDE810400847C27B012A02D159
:1077B0008088A1F8A80010BD0C46002184F8B21002
:1077C0008088B4F8A8108842F5D120790028F2D139
:1077D0000121DFE710B50C46022801D0032810D1A3
:1077E000607800280DD000206070A178204600F05D
:1077F00026F8002805D0A16B002902D0BDE8104072
:10780000084710BD10B5044690F8540074DF0120FD
:1078100084F8B200002084F8B40084F850000621F7
:10782000204601F0DBFF002808D1A178204600F0B7
:1078300006F810B1A16B01B18847002010BD2DE9F9
:10784000F05F044600780F4638B1A770002004F0BE
:107850006DF8012620B1667007E10820BDE8F09FB1
:107860000025C4F8AA50A4F8AE5084F8B050A0790E
:1078700010B1A078012806D0E07968B1A07801287D
:1078800001D0022808D1616B21B184F8B1600820D1
:10789000884701E084F8B15004F1AB0100200A5C94
:1078A0000AB1304603E0401C0628F8D300204FF010
:1078B00002084FF0030B012F06D0022F0CD0032F2C
:1078C0000FD0042F15D110E0A17929B194F824101C
:1078D00011B908B130460DE0E17911B108B1404667
:1078E00008E0207A08B1584604E0607A08B1042024
:1078F00000E02846A070616B41B1032801D0042844
:1079000004D1607910B194F8B200A0B184F8B350FA
:1079100004F13C0018210746FEF7CFFD04F12C00CE
:1079200084F83C60814606F0DBF958B194F82C00ED
:1079300084F8510008E084F8B45084F8B36007205C
:107940008847E5E784F8516094F8240050B1484630
:1079500006F0C6F920B194F8280084F8520001E03E
:1079600084F8526084F85050A27804F1AA0104F11E
:1079700094094FF0060A052A60D2DFE802F0780386
:107980000F223F0084F83160C4F8A450C4E91015F8
:1079900084F83C808020A4F8480051E084F83180CD
:1079A00094F82420384612B10722027001E080F8D2
:1079B00000B0228A8281C4F8A4504160E168B960B5
:1079C0003EE06069B860208BB88194F824003D46A1
:1079D00010B184F83CA001E084F83C60204608F037
:1079E00043FB40B185F814800421204601F0F6FEE7
:1079F00020BB05211EE084F831B01DE0E069B860CD
:107A0000208CB88194F824003D4610B184F83CA045
:107A100001E084F83C60204608F026FB48B185F878
:107A200014800421204601F0D9FE38B984F831A031
:107A300002E0042184F83110C4F8A490A07878B151
:107A40003A4604F15400D4F8A41072DF00287FF401
:107A500005AF94F8301094F8540073DF0028F6D185
:107A6000616B11B194F8310088470020F6E684F884
:107A70003150F5E72DE9F74195B0904605001FD04C
:107A8000287C9DF858100024884264D000260127E5
:107A90000D9616A8ADF834700E90ADF83660E988F2
:107AA0000DAA4FF6FF70ACDF04002C4800880BD005
:107AB000042101EB0040224629A104F00DFB4AE01D
:107AC0000E2018B0BDE8F081032101EB00409DF8C5
:107AD00058202EA104F000FB9DF858002874687C03
:107AE00098B30F96109611961296E888ADF83C0060
:107AF000BDF83600ADF840000DA811900E98129018
:107B0000A8F57F418DF83E704046FE3905D001460C
:107B10000FA8FFF77DFC04461DE0684600F0C6F89C
:107B200000256F460DE000BF07EB4506B08800F06A
:107B3000FBF8022804D1B1880FA83CB1FFF768FC1C
:107B40006D1C0098A842EFD805E003E0FFF760FC49
:107B50000446F5E708242046B3E70000CC2D0020BA
:107B60004572726F7220647572696E67206261740B
:107B700074657279206C6576656C207570646174CB
:107B8000653A20307825303858000000426174741E
:107B9000657279206C6576656C206861732062651A
:107BA000656E20757064617465643A2025642525CE
:107BB0000000000038B50D46040018D0BDB128689B
:107BC000206028796074FF20207401208DF8020065
:107BD00041F60F00ADF80000221D69460120A8DF24
:107BE000002803D129462046FFF748FB38BD0E2068
:107BF00038BD38B5002924D0002822D00288502A68
:107C00001FD10546487C0C4600281AD0E9886289B5
:107C1000A81D914215D14189022912D1216800295C
:107C20000FD00C3000F03FFC08B1002000E0012034
:107C30008DF80000A888ADF8020022686946204649
:107C4000904738BD70B5040012D001461C2214487C
:107C5000FEF70CFC1248134D0560206850B17ADF26
:107C6000002806D12068016829604068686005E046
:107C70000E2070BD0B487BDF0028FAD108484FF674
:107C8000FF711438084A20F8041B05493439016093
:107C90000021FFF76BF90028EBD0032070BD000036
:107CA000A0300020E82B00200100030001494968B2
:107CB00001F058B8BC30002010B5044600F08AF836
:107CC000002805D02146BDE81040024803F0F1B974
:107CD00010BD0000CC30002070B515460E4604469D
:107CE00008F0CEF9002809D0054800EB840080692F
:107CF0002A463146BDE8704001F0AEBD70BD0000BF
:107D0000BC30002070B50546002400F063F838B19F
:107D10002946044803F0CDF908B1022400E001240B
:107D2000204670BDC830002070B50546002400F024
:107D300051F838B12946044803F0BBF908B10224D0
:107D400000E00124204670BDC430002010B5182189
:107D5000034803F089F9182800D0C0B210BD000014
:107D6000BC30002070B505460C46084608F088F97E
:107D700060B1284600F02EF840B10548294600EBD6
:107D80008400BDE87040183003F093B9002070BD46
:107D9000BC30002070B5054614460E46084608F073
:107DA0006FF9002812D0284600F014F800280DD0F2
:107DB0000748294600EB860018301CB1BDE870402A
:107DC00003F082B9BDE8704003F033B970BD000024
:107DD000BC300020142801D3002070470146014820
:107DE00003F067B9C03000207CB5054608880C4612
:107DF0000930904201D90C207CBD68466DDF002817
:107E0000FAD121880820685420881B21401C80B2A8
:107E1000208029542088401C80B220802844DDF82E
:107E200001100160BDF8051081802088801D80B29E
:107E300020809DF80010490800D001212954208895
:107E4000401C208000207CBD7FB5044601208DF8B9
:107E5000060041F60A00ADF80400454A01A90120D8
:107E6000A8DF00287ED1228804F13C0552B14048A9
:107E70002B46801C009042F62920616800F08EFE9F
:107E8000002873D1228952B139482B460A3000901C
:107E900042F62420E16800F081FE002866D1228AA3
:107EA00052B133482B461230009042F625206169CA
:107EB00000F074FE002859D1228B52B12C482B4679
:107EC0001A30009042F62720E16900F067FE002892
:107ED0004CD1228C52B126482B462230009042F6DB
:107EE0002620616A00F05AFE00283FD1228D52B14F
:107EF0001F482B462A30009042F62820E16A00F005
:107F00004DFE002832D1216B71B102A807F0FCFBB5
:107F100017482B4632300090082202A942F623204F
:107F200000F03CFE002821D1606B58B110492B466F
:107F30003A3100910279016842F62A2000F02EFEC3
:107F4000002813D1A16B81B102A806F0C4F908483A
:107F50002B4642300090072202A942F6502000F042
:107F60001DFE00E002E0002800D1002004B070BD3A
:107F7000462C002038B50446028827480421212ACF
:107F8000008801EB004032D012DC23494FF003009F
:107F9000224D0988102A00EB014014D0112A06D185
:107FA000227A1FA104F098F84FF6FF70A88038BD20
:107FB0003B2A29D0562AFAD120A104F089F8A088BA
:107FC000132176DF0DE023A104F082F8072000F0F2
:107FD0000FFC08B1FEF7BEFFA188A980204803F07E
:107FE000CFF90028E3D0BDE83840FEF7B3BF1DA1AC
:107FF00004F06EF800200090A08869468FDF00280A
:10800000D5D0FEF7A7FF38BD1BA104F061F8A0880A
:10801000132176DFE5E70000042E0020902B0020DE
:10802000446973636F6E6E65637465642C2072655A
:1080300061736F6E2025642E000000004741545488
:10804000205365727665722054696D656F75742E64
:1080500000000000436F6E6E65637465642E00005F
:108060000C2F00205048592075706461746520728F
:108070006571756573742E004741545420436C69D3
:10808000656E742054696D656F75742E0000000074
:1080900010B51A4C0188606810290ED011292BD117
:1080A000401E606028D1FEF74FFE002824D02168D2
:1080B000002921D0BDE810400847D0B90021012295
:1080C000084600F073FB08B107280FD107220221F0
:1080D000012000F06BFB08B1072807D10422022120
:1080E000002000F063FB20B1072802D0216801B115
:1080F00088476068401C606010BD0000E02B0020D5
:108100002DE9F04701883B4E40F2F3194FF6FF7519
:1081100010291BD011293ED0122954D0502946D104
:10812000C188F289841D914241D1618902293ED1E1
:108130008688304602F01CFA050038D004F10C00A5
:1081400000F0B1F9A8B3294630464EE0C17B8788DC
:10815000044601292BD1A846284602F009FA050059
:1081600017D02F8000202872234843464A460168D2
:10817000C5F80A104068C5F80E0004F1100105F1B9
:108180000A0002F081FA6872F08900280FD12946AE
:108190002AE0042013E0808802F0EAF9040006D007
:1081A0006068FEF765FF08B106F0D0FD2580BDE8E8
:1081B000F087FFE76868FEF75BFF0028F7D0BDE8AF
:1081C000F04706F0C3BD87880646384602F0D0F96E
:1081D0000400ECD02B464A4606F1080104F10A00DF
:1081E00002F052FA607221463846BDE8F04700F0CE
:1081F0001FBE0000A0300020E82B00202DE9F04F2A
:108200000746858802883D48012197B08346102A99
:1082100009D0112A49D01A2A6CD1387AB1EB101F33
:1082200045D2012244E0354C083CA068C0430B9085
:1082300061680BA802F061FF0B990CA800F092FD99
:108240002C220CA96846FEF711F90026E946A04643
:1082500010E000BF09EB46005FF00004B0F804A096
:1082600008EB84005146001D02F0E3FE641C1D2C47
:10827000F6D3761C0098B042ECD8142D05D317B075
:108280000420BDE8F04FFEF765BE2946584602F0CF
:108290001BFF294608F1040002F016FFF87B0128B5
:1082A00028D016482946001D15E029461AE000226C
:1082B0000221B1EB101F01D2012600E000260F4978
:1082C000083901F11000041D294682B102F0FCFEBC
:1082D00036B12946204617B0BDE8F04F02F0F4BE93
:1082E0002946204617B0BDE8F04F02F0A2BE02F0CA
:1082F000A0FEF5E717B0BDE8F08F0000C430002005
:1083000010B504460748007800280AD0204601F03E
:108310005DFF204606F056FF2046BDE8104001F004
:1083200013BC10BD182C0020028CC2B0A2F57F43F4
:10833000FF3B2AD08DF803100A0A8DF802200A0CA0
:108340008DF80120090E8DF800100421ADF8F4100D
:1083500000213E913F91409141910289ADF8FC107E
:10836000ADF8F8203DA9012240918DF8FA20CDF812
:1083700004D1008C3EA9AEDF002804D1BDF8F41072
:10838000042900D00C2042B070470820FBE738B524
:10839000044608682060087960714FF6FF702084F9
:1083A000002084F82200A4F84C00F42084F84E0049
:1083B00001208DF8020041F60D000D46ADF80000D9
:1083C000A21D69460120A8DF00280ED129462046BB
:1083D00001F012FE002808D1A86828B129462046DD
:1083E00000F06BF8002800D1002038BD38B50288B5
:1083F000102A15D0112A15D0502A16D130F8062F80
:108400008B899A4211D10C46418902290DD12168EC
:1084100000290AD00C3000F046F838B1002006E000
:10842000808801E04FF6FF70088438BD01208DF888
:108430000000226869462046904738BD028C4B8870
:108440009A4208D10A88A2F52063773B03D10979C3
:10845000C91E80F84E10704770B50446B0F84C0045
:108460000D4614280AD104F126012622881EFDF7A4
:10847000FDFFB4F84C00401EA4F84C00B4F84C00CA
:1084800004EB4001401CA4F84C008D8470BD80F8C2
:108490002210704770B504460D460846FEF718F8DE
:1084A0002080656070BD007800F0010070470A7898
:1084B00002704978417002207047F0B58FB00D46C8
:1084C00006461C216846FDF7F8FF00249DF80000D1
:1084D000039440F002008DF80000012701948DF80C
:1084E000367042F63820049405940694ADF83400B2
:1084F0000C94E87B8DF83000287C8DF831009DF8D5
:108500003200142120F00600801C20F019008DF8A4
:10851000320007A8FDF7D1FF0DA807900CA8ADF811
:1085200024700890ADF82640ADF82870A8680B902C
:10853000F08806F1100307AA6946AADF0FB0F0BD64
:108540000149085C704700004C0603000649095CBD
:108550004FF0A040D0F81005C84010F0010000D046
:10856000012080F0010070474C0603002DE9FC411A
:108570000646C0074FF000050ED0104F0024012220
:10858000385D009500231146019503F04FFB641CF4
:10859000042CF4D300F046F8B0070DD5074E0024A4
:1085A000361D0022305D032300951146019503F02E
:1085B0003DFB641C042CF4D3BDE8FC814806030099
:1085C00007490B5C4FF0A041D1F8042501209840E9
:1085D00020EA0203C1F808351040C1F80C057047C5
:1085E000480603000249085C012103F06DBB00004E
:1085F000480603000249085C002103F065BB000047
:10860000480603000649095C4FF0A040D0F8040575
:10861000C84010F0010000D0012080F00100704738
:108620004806030010B500242046FFF7DBFF641C5A
:10863000042CF9D310BD10B500242046FFF7DAFF53
:10864000641C042CF9D310BD10B50246064B4FF044
:10865000FF3000215C5C944201D1084610BD491CEA
:108660000429F7D310BD00004C06030070B50C4E72
:108670000C004FF0000530600BD0012000F06AF8CC
:1086800008B1022004E0002000F064F800B10B20E3
:108690002070706810B9FEF757FB0546284670BD7C
:1086A000E02B002010B5002000F0D4F908B1062816
:1086B00006D1012000F0CEF908B1062800D1002033
:1086C00010BD00002DE9F0470D468146FFF7BCFFC5
:1086D0000446042836D2DFF874801B481C4EA8F1EB
:1086E0000C0725B3012D0ED0022D2BD104EB440035
:1086F00030444578002D25D0B968002922D028467D
:10870000BDE8F047084704EB4401755C0E447178FE
:1087100049B10E4A4FF40041093A8068FEF764FC03
:1087200008B987F80390B17808F80410E2E7806888
:10873000FEF79EFC04EB4401314418F804008D78E8
:10874000A842D7D0BDE8F08750060300DC2B0020FC
:1087500040300020042801D2FFF7F8BE0020704707
:108760000146104810B58088042907D007290ED08B
:108770000A2915D1BDE8104006F010BD132176DF9F
:108780000CE000280CD0BDE81040FEF7E3BBA0F5DC
:108790007F41FF3904D10448FFF734F80828F0D1AD
:1087A00010BD0000902B0020182F002070B5002372
:1087B000042810D20D4D00EB4004012A02D10129FA
:1087C0000CD00022094E00EB4000304461B1012979
:1087D00006D0022906D00723184670BD0E30C2B25B
:1087E0002A55F9E74270F7E78270F5E7403000203C
:1087F000044A014600201279D20702D0084600F050
:108800004DB87047D02B002070B506461E48002496
:10881000C0E90161B00720D5002501221146284694
:10882000FFF7C4FF6D1C0446042D02D2002CF4D0C7
:1088300013E094B940F2666204211448FEF710FB7D
:1088400004000AD1FEF7FAFA040006D10F48104AD4
:108850000021001FFEF78AFB0446F00712D001201A
:10886000FFF784FE74B909480A4A00210C38FEF764
:108870007DFB040006D10548074A01210838FEF7B0
:1088800075FB0446204670BDD02B00205C0603001B
:10889000218B02001DA702002B6E02002DE9F05F64
:1088A0006A4C054600266078B34618B184F801B0DA
:1088B00001F01CFF664F4FF47A694FF4C87A4FF00D
:1088C0000108182D62D2DFE805F0AC0C0C31404DE8
:1088D00062676B746B74BE7D7D7D7D7DACAFB2B520
:1088E000BEBE0020FFF78EFE00284FF0000008D02B
:1088F000FFF778FE022D02D14FF4E16008E0484610
:1089000006E0FFF777FE022D01D1C82000E05046B7
:10891000410CC0034FF4FA72801841F10001257038
:1089200052000023FDF75EFD01462AE00020FFF71C
:1089300069FE00284FF0000004D0FFF753FE4FF40B
:108940004870E5E7FFF756FEDFE70020FFF75AFE25
:1089500000284FF0000002D0FFF744FECFE7FFF7FA
:1089600049FED4E70020FFF74DFE00284FF000003D
:1089700002D0FFF737FE01E0FFF73CFE257041F61D
:108980009A1100223868FEF72FFB064646E00020C9
:10899000FFF716FE257008E0002051E025703DE04D
:1089A00084F801800120FFF70BFE002240F6CD4144
:1089B000E8E784F801800120FFF702FE00224FF46F
:1089C0008041DFE77868FEF753FB0646D5F11100DA
:1089D00000D02EB10220FFF705FE84F802B01DE0A2
:1089E000012816D980B2C8214843C117C90341EAFA
:1089F0005041C0034FF4FA72801841F10001520057
:108A00000023FDF7EFFC014600227868FEF7ECFA40
:108A100006460220FFF7EEFD84F802803046BDE8EE
:108A2000F09F01F063FEB9E701F060FEB4E701F0EA
:108A30005DFE04E001F05AFE0020FFF7DBFD01209F
:108A4000FFF7D8FDAAE7FFF7F6FDA7E7D02B002038
:108A500050060300012107F0AABB00002DE9F843EE
:108A60000546861C00208DF8000090460F464FF00A
:108A700001096846FEF70CFB1B4C20683860D4E9FE
:108A80000001401AA16804F21C47081A0EE00121F7
:108A9000384602F02CFB01F0E1FF0146384602F0B7
:108AA00026FBD4E90001401AA168081A401C86423E
:108AB000EDD8B8F1000F03D0052065F3891002E06E
:108AC000062065F39F50A2682168114004EB8101E4
:108AD000C8602068304420609DF80000FEF7FCFA72
:108AE0004846BDE8F8830000F437002030B48268BF
:108AF0000468531C8360A154D0E901128A4202D356
:108B000030BC02F040BD30BC70470000034803C8D1
:108B1000814201D10120704700207047F4370020C6
:108B200000780221FFF7CEBD05494FF0FF3208283B
:108B300041F8202002D3084480F848207047000004
:108B4000A4330020F0B54FF0FF3512B10023082602
:108B500001E008230C260C4C05E000BF54F82370FC
:108B60007F1C04D05B1CB342F8D32846F0BD261806
:108B70005DB286F8305044F82310002AF5D1E11890
:108B800081F84800F1E70000A433002002490844BE
:108B900090F9300070470000A43300202DE9F04325
:108BA0008FB01E46DDF8589015460F00804602D162
:108BB0000020FEF7CFF915B90020FEF7CBF91C21F4
:108BC0006846FDF77AFC00249DF80000039440F00D
:108BD00002008DF80000012001948DF83600049405
:108BE00005940694ADF834800C9430788DF83000FC
:108BF00070788DF831009DF83200142120F00600C5
:108C0000801C20F019008DF8320007A8FDF755FCF4
:108C10000DA807900CA808900748ADF82450ADF8AF
:108C20002640ADF828500B974B4607AA69460088A6
:108C3000AADF0FB0BDE8F083462C002070B50446D3
:108C40004FF6FF750A462846AC4208D14FF48074AF
:108C50002146104605F0B0F9A04209D070BDFF2CA6
:108C6000FCD82146104605F09AF908B1204670BD9F
:108C7000284670BD70B5084C050009D01034216835
:108C8000002907D008682060496828468847F6E729
:108C90000834F4E770BD000090330020054A01213C
:108CA00020B1012805D19170FFF7E4BF5170002079
:108CB000FAE77047903300202DE9F05F26484168BD
:108CC000F1B3DFF898B00E688146DBF800408768A2
:108CD0008078E11B21F07F45ED1CB0B9DFF8808082
:108CE0004FF48030C8F84403C8F804031120FDF79E
:108CF0000DFD1120FDF715FD4FF0010AC8F800A089
:108D00002F2003F0DBFE89F802A0B54200D23546E1
:108D1000124BE8193C3320F07F401860DBF800105C
:108D20005A46091B21F07F41001B20F07F40C91CDF
:108D300081420FD9106818602F2003F0BFFE00E0B9
:108D400004E0BDE8F05F1120FDF7F6BCBDE8F05F80
:108D500005F02EBEBDE8F09FD02C00200415014088
:108D60000010014073B58CB00646002000900D98AD
:108D700080B100246D4621460DA802F09AF930B169
:108D8000009805EB400084800098401C0090641C13
:108D9000142CF0D32C2269463046FDF767FB0EB049
:108DA00070BD2DE9F04117880646B81D14460D46E2
:108DB000984202D90C20BDE8F081318807220629AB
:108DC0000AD34FF4486C4FF6FF73614501D99942BD
:108DD00002D17088062801D21046ECE7604501D91F
:108DE0009842F9D1994203D0984201D08142F3D8F8
:108DF0000520E85520881221401C80B2208029548B
:108E00002088401C80B220804119308807F07EF80D
:108E10002188084480B220804119708807F076F8D4
:108E20002188084420800020C5E7FEF793B80000A1
:108E300038B54A7A0F4B62B100220A72596900298B
:108E400006D001228DF80020ADF802006846884760
:108E500038BD0A7A62B19B684C68024619462046C2
:108E6000FEF7C2F80028F3D0BDE8384005F06EBF29
:108E70005B68F1E7A0300020F0B585B016460F46DC
:108E800004461D4614220B496846FDF7EFFA0A48CE
:108E90008DF80870ADF80240ADF80A608DF80C50FE
:108EA000017800222046FEF775FF684600F07AFA46
:108EB00005B0F0BD68070300282C0020F0B5204C59
:108EC0000D4606462088042101EB004087B033465A
:108ED0002A461CA103F007F9002004900590ADF884
:108EE000105001900290ADF8125001AA04A930462A
:108EF00090DF070021D003F08FFD03462088012575
:108F000005EB004032461B4903F0EDF8BDF80420A4
:108F100012B9BDF8060038B12088BDF8063005EB5F
:108F2000004015A103F0DFF8BDF808202AB1208821
:108F3000214905EB004003F0CFF807B03846F0BDFB
:108F4000C82D00205570646174696E672064617477
:108F500061206C656E67746820746F202575206FC2
:108F60006E20636F6E6E656374696F6E2030782556
:108F7000782E0000F40C030054686520726571754A
:108F800065737465642054582F5258207061636B68
:108F90006574206C656E67746820697320746F6FE8
:108FA000206C6F6E672062792025752F2575206FE4
:108FB00063746574732E0000400D030030B50446E1
:108FC00085B000211B4804F0EAFF00282FD00025BF
:108FD000204600F046FF68B1112812D086281BD029
:108FE000A0F54051023903D00146204605F0B6FEF7
:108FF000294607E005B029462046BDE8304001F08B
:109000000BBD0121204601F007FD05B00021BDE8A0
:109010003040084804F0F7BF142207496846FDF7BE
:1090200025FAADF80240684600F098F9E0E705B08F
:1090300030BD0000F12B0020900603007FB50C46E8
:1090400010B1012004B070BD2079002638B141F67E
:109050001D5501281BD0022826D00F20F2E7022040
:10906000207102960396E0680190694601A805F018
:10907000B7FB50B102988188E18000882081BDF85B
:109080000010029805F02AFCDCE70A20DAE70A4B18
:109090006A460021A01D05F05FFB38B1064918396A
:1090A0008E61CE610A28CDD12846CBE7024881885F
:1090B000019805F013FCF5E7102D00202DE9F0478D
:1090C0000025DFF88C803CE06068002100EBC506DD
:1090D000012032789146FDF7B6F9D4E9062300EA7B
:1090E000020701EA030C57EA0C0728D082438B439E
:1090F0004846C4E9062303F0A3FD32788246914630
:1091000001200021FDF79FF9D4E9042300EA0204BD
:1091100001EA03074A4650460021FDF794F944400E
:109120004F403C430BD17078012801D0012100E071
:109130000021726881EA0A010AB1484690476D1C15
:10914000EDB298F8000044468542BDD3BDE8F087F3
:10915000B02C002010B50021024801F0E3FF80F39D
:10916000100010BD103C00200E4910B50A784C7854
:109170000023A24212D0521CD2B20A70022A00D19D
:109180000B70084A0B780C3252F823200260886872
:10919000104420F07F408860012010BD0360002053
:1091A00010BD0000D02C002013460A460021FFF716
:1091B00063BE00002DE9F843104D0F4680461E4661
:1091C00091466946286801F008FF040014D01C216C
:1091D000FDF773F901202071C4F81490380BC4F81E
:1091E0000080C4E902606946286801F017FF05F0B5
:1091F000D1F90020BDE8F8830420FBE760080300F4
:1092000010B503780022072B06D2DFE803F005042F
:109210000610202930000A7010BD01230B7003894D
:109220008B818388CB81C06888600A7410BD02225C
:109230000A7002898A818288CA81C2688A60807DB8
:10924000062802D00020087410BD0120FBE703228D
:109250000A70C2888A810289CA81C068886010BD8C
:1092600004230B70C0888881CA818A6010BD0520E4
:10927000087010BD70B5064D0646002455F8241040
:1092800009B130468847641C042CF7D370BD000038
:109290007435002030B50446006887B00D468068FC
:1092A00000281FD018216846FDF707F90195A0682E
:1092B0000590207910B1012810D107E001208DF828
:1092C000000020690290E068039005E002208DF81C
:1092D0000000E068000302906069049020688168E3
:1092E0006846884707B030BD70B586B015460C009B
:1092F000064619D0112C17D0082C15D01421684619
:10930000FDF7DBF8ADF80260304601F085F8ADF806
:1093100004000D2C0AD0862C1CD007208DF80000EC
:109320000294684600F04CF806B070BD03208DF83A
:10933000000025B12878C00701D0012000E00220FC
:109340008DF8080000208DF80C0041F20110ADF8F6
:109350000A00E6E706208DF80000E2E710B50446B3
:10936000408801F059F8A080024801682046BDE815
:1093700010400847F82B00202DE9F0410746002453
:10938000064E074D05E000BF56F8241038468847C2
:10939000641CE8788442F7DBBDE8F08144330020A8
:1093A000182C002010B50446408801F035F8A08044
:1093B000024801682046BDE8104008473C0703000A
:1093C0000149096808470000900703000078052854
:1093D00007D104480421008801EB004002A102F0FB
:1093E00077BE7047042E0020474320636F6D706C7A
:1093F000657465640A00000070B586B004461421E7
:109400006846FDF75AF8A0890125A0F54040ADF85F
:10941000040020782A4E062833D2DFE800F0320319
:1094200003032C48A08900F0BDF930B9E08943F668
:10943000FE71A0F54040884223D8A07B8DF808003B
:10944000207803280FD000208DF80900A068039031
:10945000606850B109208DF800006068049068468B
:1094600004F0E4F90DE00120EEE708208DF800009B
:109470008DF81050F3E7A08900F094F908B1E08965
:1094800030B17078002801D004F000FB06B070BD48
:10949000606820B10B208DF800007570DFE70A20AE
:1094A0008DF80000BDF8040004F07AFBF5E7132006
:1094B0008DF800004FF6FF70ADF80400CFE7000014
:1094C000082C002038B504460E480078A8B1A4F551
:1094D0007F40FF380FD0684604F08EFF78B1052139
:1094E000017001210171C480684604F093FF05F00A
:1094F00043F8002038BD042038BD022038BD0820C4
:1095000038BD0000182D00200C4808B5007888B13F
:10951000684604F071FF78B106210170684604F0D6
:1095200079FF0748017809B10121017305F024F89A
:10953000002008BD022008BD082008BD182D00200D
:1095400038360020F0B587B014216846FCF7B5FF27
:109550002B4C207818B16846FFF78CFE4EE0201D9A
:1095600001F0C2FDB8BB4FF0102041690004026950
:1095700040694B1C01D100FB02F12248002201612D
:10958000A1F54051C160204902F08CF9002820D19A
:109590001F481C238C221D49006801F00BFD03F0BD
:1095A00035FF051E14D0022812D000270126062DF3
:1095B00012D005A804F020FF88B106700C2D18D237
:1095C000DFE805F0170F170F1716171617111311ED
:1095D0000B2007B0F0BD11E026706760BBE70820E4
:1095E000F7E7077105E0032100E00221017100E0C7
:1095F000067105A804F00EFF04F0BEFF0020E8E7A6
:10960000182D0020B42D00207008030084350020A0
:10961000D807030038B5040014D0694605F0E0F817
:10962000A0B1BDF8000000EB8001094800EB81000B
:10963000C16849B1A17A39B1C168491EC160002031
:10964000A07238BD052038BD062038BD0A2038BDBF
:10965000103600201FB501A9684605F07DF804B05A
:1096600010BD07B513460A466946002005F074F898
:109670000EBD07B513460A460021684605F06CF892
:109680000EBD20B119B100680860002070470520A8
:1096900070470000F8B50D46040018D0BDB169460A
:1096A00005F09EF8A8B1BDF800000B4900EB800062
:1096B00001EB800001210C30666801F018FD2E607E
:1096C00060680C3068600120A0720020F8BD0520A1
:1096D000F8BD0A20F8BD00001036002018B10323A1
:1096E000002206F067BE052070470223002206F024
:1096F00061BE12B1022306F05DBE05207047000076
:10970000084910B50A69042A0AD0074A096942F8CB
:10971000210004480121103001F0E9FC002010BDB7
:109720000C2010BDF82C00207435002038B50446FC
:1097300009480D46007858B164B16946284606F0DC
:1097400033FF002803D1BDF800102180658038BDAB
:10975000022038BD052038BD182D002010B5044664
:109760000E48007898B1A4B12188022913D80C4A78
:1097700001EB810002EB800260885289C31C934296
:1097800009D806F005FF00202080608010BD02206F
:1097900010BD052010BD042010BD0000182D0020B4
:1097A0001036002043F6FE71A0F54040884201D8F3
:1097B000012070470020704710B504460078182833
:1097C00002D1FEF7C3FA207010BD10B50446007830
:1097D000182802D1FEF7BAFA207010BD70B50D46F8
:1097E0000446B0F89810D0F894000122FDF711FF5C
:1097F00000B1057004F13C0204F1940104F154003D
:1098000072DF70BD70B513460022064615468629E4
:1098100002D0112902D002E0012200E001250D4C06
:1098200073B1A179FEF7B6FA2A4661793046FEF7A0
:10983000B1FA0022A1783046FEF7ACFA002203E02C
:10984000A178FEF7A7FA2A4661783046BDE8704055
:10985000FEF7A0BA302C0020F7B517460E0011D045
:109860000098002560B100242146684601F021FCE3
:1098700018B1A0B23946B0476D1C641C142CF3D348
:109880002846FEBD0020FEBD406804F0D5BD0000A6
:109890000EB517A19DF8080020F00F00401C20F025
:1098A000F00010308DF80800072202A87CDF08B114
:1098B000FDF750FB40F2413078DF08B1FDF74AFB7D
:1098C0000020009001900821ADF80400ADF80010D0
:1098D0004FF4C8704FF40271ADF80600ADF80210F5
:1098E00068467ADF002801D0FDF734FB0EBD00008A
:1098F000323450617463680010B508880C46A0F5D6
:109900002061773909D108480321A388008862883B
:1099100001EB004005A102F0E6FB2146BDE8104046
:109920000E48FEF78BBD0000042E00204741545422
:1099300020415454204D5455206F6E20636F6E6E3D
:10994000656374696F6E2030782578206368616E76
:1099500067656420746F2025642E0000942E00201B
:1099600070B508B1012070BD1B4C0025207B08B1EB
:10997000257301E000F0A4F8207808282AD2DFE857
:1099800000F02904080C10291422BDE8704000F0F2
:1099900025B8BDE8704000F081B8BDE8704000F027
:1099A00063B8BDE8704000F03FB8062020706088C2
:1099B000094900EB8000283901EB80004068BDE8D0
:1099C000704003F003BD072020706560BDE8704063
:1099D00003F00ABD0F2070BD383600201149F0B4E5
:1099E0008A1C00200346A1F128050C18A67A4EB166
:1099F000A37200EB800405EB8404E66816B9247CAE
:109A0000012C0AD0401C80B20228EED30B704B8090
:109A10004B60F0BC41F61D5070471080F0BC00F068
:109A20003DB80000383600200C48418801EB810227
:109A3000A0F1280101EB8201CA6852B10521017031
:109A4000074802218180016800230122054801F0B6
:109A500093BE042202704968F6E700003836002001
:109A6000202D0020B42D002038B50A4908480324D1
:109A70000B684268898803EB810153880470DB1C02
:109A800000201B0400909B0B034801F0E5FF38BD4C
:109A900038360020202D0020B42D0020074910B5B5
:109AA0004888091D04F0ECFE18B1BDE81040FFF72E
:109AB000DBBFBDE81040FFF7B7BF0000383600201D
:109AC000F0B51F481F490125067802248B88A0F1B4
:109AD0002802082E19D2DFE806F00418181B222FDE
:109AE0002F170189491C01810021418080F80C1049
:109AF00001EB810312F8233043B100234418491CC1
:109B000089B2A3720229F3D30570F0BD0123F5E7F2
:109B100042685288D21C1A448A800470F0BD46887C
:109B20000D6806EB860602EB860256680E605560ED
:109B300013818C80062100E007210170F0BD000038
:109B400038360020202D002030B501888488224D31
:109B500085B0502924D0522902D0542931D103E0B4
:109B6000204600F025FF2CE014221C496846FCF733
:109B70007DFCADF80240204600F04EFCADF804003C
:109B800000F022F9002269792046FEF703F900224D
:109B900029792046FEF7FEF86846FFF7DFFB10E064
:109BA000017B01290DD1817A01290AD10089A0F513
:109BB0002451023905D10121204600F02DFF06F085
:109BC00015FA00220649E878FEF786F805B0BDE8E8
:109BD000304005F083B90000F02B0020B8060300E8
:109BE000A971020010B50446007800280FD16088E2
:109BF00000F0DEFE608800F081F9002807D00449FB
:109C0000608801220979BDE81040FEF7C3B810BD95
:109C1000F02B002010B5124C00202070FEF796F8B3
:109C2000A070FEF793F8E070FEF790F82071FEF751
:109C30008DF86071A17818290FD0E17818290CD01F
:109C40002179182909D0182807D00121601C04F0B7
:109C50009FF901202070002010BD032010BD0000DE
:109C6000F02B00207CB50446007808282FD1607ABC
:109C700038BB207A4FF6FF7501280DD0072802D097
:109C8000082824D11EE0A08800F004FBA8421ED0C2
:109C9000012100F0C1FE1AE0A0886A46012103F00C
:109CA000DDFC70B90198007858B1A08800F0F2FA94
:109CB000A8420CD0084901220979FEF76BF805F09B
:109CC0000DF904E004480021401C04F09CF9BDE8B3
:109CD0007C4006F08BB90000F02B002010B5044644
:109CE0000A4841782046FEF73DF868B1084800214F
:109CF00001EB410200EB82025288A24201D1C8B2BC
:109D000010BD491C1429F3D3FF2010BD022C0020E4
:109D10003431002070B5094D094E002404EB440095
:109D200005EB800071784088FEF71CF820B1641CB8
:109D3000142CF3D3FF2070BDE0B270BD343100208D
:109D4000022C00202DE9F04180460246012000212E
:109D5000FCF779FB1A4F05460E467868FDF788F93F
:109D600000280CD1174CD4E9062110462A4001EAFC
:109D700006031A4305D0A843B143C4E90601BDE870
:109D8000F081404602F05CFF30B1D4E90401284381
:109D90003143C4E9040105E0D4E90410A943B04308
:109DA000C4E90410D4E9060128433143C4E906019B
:109DB000A1687868BDE8F0410022FDF715B9000000
:109DC000C0070300B02C00201CB5054AD2E90212DE
:109DD000CDE900120022694603F065FC1CBD0000BD
:109DE000D006030003484FF6FF7181800121017006
:109DF00000207047FC2B00202DE9FC41804600F03C
:109E00000BFB002403250127A0F57F412646FF39DF
:109E100008D06A46082103F021FC18B90198841D76
:109E20008688056832462B4621464046B1DF042825
:109E300004D0082804D00B2808D002E0112000E04C
:109E40000020002F00D10B20BDE8FC810027A807CF
:109E500001D50125E6E73443F5D000242646032545
:109E6000E0E72DE9FC41804600F0D6FA0646A0F571
:109E70007F40FF380ED001252A466D1C0027ADB269
:109E80006B460821304603F013FC040006D0072C73
:109E900025D025E043F20200BDE8FC8101990323AF
:109EA0000A1D0B604046891DB2DF040004D00C2C53
:109EB00009D0052C09D009E032460821104603F0EC
:109EC0006DFC04460CE0012700E000240821304628
:109ED00003F050FC00B10324002FCDD100E00C248E
:109EE0002046D9E704488088A0F57F41FF3901D09A
:109EF00004F0FEBF70470000FC2B00200EB502A945
:109F0000019100F089FA6A46012103F0A7FB08B12C
:109F100000200EBD019800780EBD00002DE9F04133
:109F200007464FF6FF760A48B3DF10B10320BDE8BD
:109F3000F081074C43F20305A41E3246618838467F
:109F4000AFDFA842F3D16088401C6080F5E70000D5
:109F5000FE2B0020428800EB82020C328A4201D99B
:109F6000022070478188A1F57F42FF3A03D0008824
:109F700008B10020704701207047884204D2006871
:109F8000401C01D0012070470020704770B5144C70
:109F900014480325E2680088164605EB004012A12C
:109FA00002F09AF820693146401C20611148FEF702
:109FB000BBF958B1082809D0132807D0112805D0BB
:109FC00043F20141884201D0FCF7C4FF2069B0FB95
:109FD000F5F105FB110000B10120207070BD0000FB
:109FE000902B0020042E002049525F4C4544203A1B
:109FF00020255800942E002070B5CCB000240546D2
:10A0000044949DF810010E4620F00F00401C20F0F3
:10A01000F00010308DF81001087B8DF811019DF8CB
:10A0200012011C2120F00600801C8DF812013DA8B1
:10A03000FCF743FA9DF8F4003E9440F010008DF8D0
:10A04000F40044A84094CDE9414001208DF82E0150
:10A0500042F637204394ADF82C014A94707B8DF87A
:10A060002801B07B8DF829019DF82A01142120F0E8
:10A070000600801C20F0180040F001008DF82A0135
:10A0800045A8FCF71AFA4BA845904AA846906A469C
:10A090000021284600F012F8ADF81C01F420ADF8BC
:10A0A0001E41ADF82001CDF824D1E88805F1080360
:10A0B00045AA3DA9AADF4CB070BD00002DE9F041D2
:10A0C000044640799046002500B1042594F822000A
:10A0D00008B145F00205CAB2FF2908D9090A88F873
:10A0E000012045F0010588F80210032602E088F8F7
:10A0F00001200226B4F84C0008B145F010050027F5
:10A100001BE000BF94F84E10B21C91420BD2B4F881
:10A110004C0004EB4701C01B420004F12400243131
:10A12000FCF7A4F90DE004EB470008EB0601808C76
:10A130000870000A4870D6B27F1CB4F84C00B842D0
:10A14000E0DC34F84C0FC01B208088F8005030460B
:10A15000BDE8F0813EB5027802230C46B3EB520F06
:10A1600017D1B0F80110ADF80010C1788DF80210C9
:10A170008188ADF8041080798DF8060002AA01A943
:10A180002046FCF729FE032202A96846FCF7A7F93E
:10A1900008B100203EBD01203EBD000010B50C46B8
:10A1A000FFF79CFDFF280CD0074900EB400001EBB6
:10A1B0008000416821600189A180807AA07100201F
:10A1C00010BD052010BD00003431002070B501889D
:10A1D00090B0102959D1011D2C226846FCF746F990
:10A1E0009DF804004FF6FF76032134466D46B1EB2F
:10A1F000500F2AD003F088FB9DF8040040080ED0D1
:10A2000001280CD0022820D118E00D99281D113109
:10A21000FCF775FD18B100BFBDF82C4015E00CAA85
:10A220000BA9072003F044FB0028EED10DE00D99A7
:10A23000281D491CFFF78EFF0028EDD10CAA0BA9A1
:10A24000072003F035FB0028F1D1BDF80000291DDF
:10A2500000F05AFEB44218D0BDF80000214600F0CC
:10A26000C5F8BDF80000ADF82E000020ADF8304074
:10A27000074E8DF82C000BAD044600BF56F8241095
:10A2800028468847641C022CF8D310B070BD00002B
:10A29000E4060300094A002101EB410332F82330B0
:10A2A000834205D101EB410002EB800040887047FA
:10A2B000491C1429F0D34FF6FF7070473431002049
:10A2C0003EB50C46054603F01FFB0BE0BDF8000051
:10A2D000A04207D02846029900F02EF810B1BDF830
:10A2E00000003EBD01AA6946072003F0E1FA0028FC
:10A2F000ECD14FF6FF703EBD10B50D4C18200D4A45
:10A30000607000204FF6FF7100EB400302EB830307
:10A31000401C59801428F7D3FDF718FD60701828E9
:10A3200003D001202070002010BD032010BD0000CC
:10A33000022C0020343100202DE9F0410C46054666
:10A3400000F1110701F111061022491C401CFCF715
:10A35000C6F848B9681C00F0B9F928B1601C00F0D3
:10A36000B5F908B1012400E0002431463846FCF775
:10A37000C6FC3B780222B2EB530F0CD00321B1EBA9
:10A38000530F08D03378B2EB530F04D0B1EB530F17
:10A3900001D0012100E00021084201D18C4302D00C
:10A3A0000120BDE8F0810020FBE7018811B94218C7
:10A3B00092780AB101207047491C0829F7D3002080
:10A3C000704710B50C460346FFF7EFFF00280AD090
:10A3D00018882188884205D10822A11C981CFCF706
:10A3E0007EF808B1002010BD012010BD03F02CBC88
:10A3F00070B50446FFF74EFF0546204603F031F9DD
:10A400004FF6FF7104468D4203D014B9284603F07D
:10A410001BFC204670BD000010B5FFF75FFCFF2855
:10A4200005D0044900EB400031F8200010BD4FF684
:10A43000FF7010BD343100203EB5044603F064FACD
:10A440000EE0019920464631FFF7BBFF28B901997C
:10A4500020462A31FFF7B5FF10B1BDF808003EBD18
:10A460006A4602A9072003F023FA0028E9D14FF633
:10A47000FF703EBD10B50A4941600A4800F034FE45
:10A4800058B902F053FA07491C238C220874044877
:10A490008C39001F006800F08DFD002010BD000009
:10A4A00064080300D43600202DE9F0412D4F00252B
:10A4B00018B17D600120BDE8F0810879012258B112
:10A4C000294E01280CD0274C4FF0020808340228EE
:10A4D00021D0032842D128E00A7102F085FF3BE039
:10A4E0005FF0000000EB800116F82110022908D06F
:10A4F000401C80B20228F5D33A707D6041F61D50B1
:10A50000D9E700EB800006F8205006EB8000406899
:10A5100002F05CFF20E00D71A4F80480002301220A
:10A520001248216801F028F916E00D71206802F048
:10A530004DFF0D4923682831498801EB810206EB64
:10A540008201D1F804C0C4F800C04B60A3880B811D
:10A55000A4F8048006F822500028ACD07D600E20BC
:10A56000A9E70000182D002010360020B42D00208F
:10A570000146034802888A4200D00020704700004C
:10A580008C3000202DE9FC5F0E008346DDE90C478E
:10A59000C6F1000098469246814600D4084601253F
:10A5A00003E000BF90FBFAF06D1C5045FADAA845B5
:10A5B00000D9454624B1002E01DB780700D5641E82
:10A5C000B80702D5B8F1000F0AD0F80708D13CB19E
:10A5D000A54205D220215846641EFEF787FAF6E709
:10A5E000002E02DA4E462D2102E0780703D52B21FA
:10A5F0005846FEF77BFA07F0030002280BD1B8F1AA
:10A60000000F08D13CB1A54205D230215846641E46
:10A61000FEF76CFAF6E7CDE900474346524631466D
:10A62000584605F089FCBDE8FC9F024600201268F0
:10A63000930702D0530702D47047500714D502F095
:10A640000300012802D002280CD105E0C2F38310D8
:10A650000B68801C184404E00223086803EB925244
:10A660001044086001207047086800EB9253C2F361
:10A670008910401CEEE700000248007A002800D054
:10A6800001207047D4360020F0B58488A518944284
:10A6900000D82246A41AC288D6189A4200D8134677
:10A6A000D21A4B880788BB420CD34088834209D812
:10A6B0008888A04206D3A84204D8C888904201D313
:10A6C000B04201D90020F0BD0120F0BD0021425C64
:10A6D0000AB101207047491C1029F8D300207047A7
:10A6E000800701D000207047012070470A4810B54C
:10A6F000807860B1002401E0022C06D02046FDF7EE
:10A7000071FF641C042CF7D310BD0324F6E7BDE8E9
:10A710001040FDF787BF0000D02B002003480179CF
:10A72000C90702D00078FEF7B9B87047D02B0020D7
:10A73000F721018017214180002101714171FB2126
:10A7400081711B21C17170472DE9FE4F2B4D984639
:10A7500091460F00824601D000260DE0684600F0C9
:10A76000FFFB6A460021504602F0E7FE2878009E73
:10A7700010B99DF8090098B14A463146504604F098
:10A780007DFE0446014600225046FFF73BF80D2CA3
:10A7900032D008DC84B3082C2ED00B2C0BD12BE04C
:10A7A0000520BDE8FE8F112C10D0862C1AD0A4F500
:10A7B0004050023820D00325B8F1000F04D03246B3
:10A7C00021465046FEF790FD2846EAE73A462979A9
:10A7D0005046FDF7DFFA4A46E9785046FDF7DAFAC7
:10A7E0000025E9E73A4629795046FDF7D3FA4A466B
:10A7F000E9785046FDF7CEFA2546DDE7302C0020FB
:10A800002DE9F041204F0E46154604463978FDF7F4
:10A81000A9FA002835D0204602F086FE50B3204623
:10A82000FFF7FAFD80462046B978FDF79BFA08B19C
:10A83000012700E00227204603F01EF900284046C9
:10A8400002D0FFF7D5FD0DE0A8F57F41FF3909D013
:10A85000072102F08FFF010004D0052902D0204615
:10A8600004F090FA2B46324639462046BDE8F041C6
:10A87000FEF702BB2A4631462046BDE8F041FEF70E
:10A8800093BCBDE8F0810000282C002070B5094D74
:10A890000646E978FDF766FA044629793046FDF761
:10A8A00061FA014622463046BDE870400123FFF7B9
:10A8B0004BBF0000302C00202DE9F047394E002717
:10A8C00080463D46DFF8E090D6F804A057E003D07C
:10A8D0000446D0F81C8035E099F8002002EB4201D4
:10A8E000521CD2B289F8002009EBC10199F802305C
:10A8F000091D9A4201D189F8005048680A78044637
:10A90000012A12D0022A02D0032A3BD108E004F027
:10A910007BFF00B10127257434E00574C06900E0B5
:10A9200070680028F9D170602CE0207C50BB8868EA
:10A930006060C868A0600869E0604869A061F0785C
:10A9400000B165606268B168184B501A20F07F4012
:10A95000984202D2A168084406E0881AA16820F053
:10A960007F40814202D9081A206000E025606560BE
:10A970000120A56020742046E56104F027FFB8F1AE
:10A980000000A4D199F8001099F801008142A3D1E8
:10A9900017B97168514502D00120BDE8F087002049
:10A9A000FBE70000D02C002050340020FFFF7F0088
:10A9B00030B585B00546002414216846FBF77DFDBF
:10A9C000A5F57F40ADF80250FF3815D02846FFF7B7
:10A9D00013FA98B10B2815D0112811D0A0F54051C9
:10A9E000023903D00146284604F0B8F90948224646
:10A9F000C1782846FDF7CEF905B030BD0E2002E043
:10AA00000124F3E70F208DF800006846FEF7A6FC4E
:10AA1000ECE70000F02B00200A4602498978FDF798
:10AA2000B9B90000F02B0020F8B5054600780C46B7
:10AA3000002620420FD100208DF800006846FCF768
:10AA400027FB2878204202D12043287001269DF858
:10AA50000000FCF741FB3046F8BD00002DE9FF4146
:10AA60000026234800F03DFB2148001F074600F068
:10AA700038FB204C60680090A56800E000986946AB
:10AA8000284004EB80000C30FFF7CFFD0028F5D103
:10AA900001AA009901EA050304EB8303491CDB6862
:10AAA00042F82030401C00910228F2D3019800F0B7
:10AAB000030001280BD0022810D10198032101EBDB
:10AAC00090500099BDF80A6001EB900005E00198F4
:10AAD000BDF80A60C0F3831008440090384600F0C7
:10AAE000FDFA08B10098606004B03046BDE8F0811E
:10AAF0000C3C0020F4370020ACB04FF400410020A3
:10AB000001F058FB08B1FCF725FA01F0C3F904F095
:10AB100009FF624B0FCB8DE80F0060480023604AAD
:10AB20006946103800F0F8FC08B1FCF713FA5B48EE
:10AB30000C3802F0EFF800F009F95A490320FDF74C
:10AB400063FE08B1FCF706FA69460020FDF78EFDAA
:10AB500008B1FCF7FFF99DF8000002287ED000261E
:10AB600001F046FC08B1FCF7F5F901F085FE08B1EB
:10AB7000FCF7F0F9002469460120009401F07AFC0A
:10AB800008B1FCF7E7F9684601F020FD08B1FCF7D1
:10AB9000E1F9FEF77DFE4449444800F038FB08B176
:10ABA000FCF7D8F9AC216846FBF787FC02208DF84A
:10ABB000000001208DF80200062103258DF87C009D
:10ABC0008DF80310ADF810504FF49670384922906C
:10ABD000059144F2506023903648299033486946E5
:10ABE0002030FCF745FD08B1FCF7B4F92F480121EE
:10ABF0002030FCF73AFD04F027FA04F0E3F81C21BA
:10AC00006846FBF75AFC4FF42030CDE900404FF482
:10AC10007020029025488DF80C5064388089ADF87A
:10AC20000E0025480590254806908DF8104068468E
:10AC3000FDF708F808B1FCF78DF903F013F8204888
:10AC400020A1008805EB004001F042FAFCF75EFA13
:10AC50003046FCF795F8164D343D00E006E0142030
:10AC600000F016FC01F024F910B103E0012677E7AB
:10AC700001F0D2FB68780028F4D06C700C4A0748C9
:10AC80000623203A5721103800F066FC08B1FCF783
:10AC900061F901F00DF90028FBD1DEE73806030069
:10ACA00081FA020061870200F9980200F82E002064
:10ACB000C42B0020A1CE0200EDCE02002B8E02009C
:10ACC000042E00204865617274205261746520531F
:10ACD000656E736F72206578616D706C652073743A
:10ACE00061727465642E000070B5144682880E4649
:10ACF00005462088111D0144921C994201D8FE2A64
:10AD000001D90C2070BD521C32542088FF21401CF8
:10AD100080B2208031542088401C80B2208081196C
:10AD2000288805F0F3F82188084480B22080AA889A
:10AD300042B1A96841B13044FBF798FB2088A9884B
:10AD400008442080002070BD072070BD10B5402150
:10AD5000092005F073FAC021022005F06FFA0021E6
:10AD6000032005F06BFA0021042005F067FA0021AA
:10AD7000052005F063FA0021062005F05FFA0F2197
:10AD8000082005F05BFA0321092005F057FA272176
:10AD90000A2005F053FA24210C2005F04FFA242153
:10ADA0000D2005F04BFA7F21102005F047FA002016
:10ADB00003F026FC012003F023FCBDE8104007202F
:10ADC00003F054BC2DE9F047C7880446181D164609
:10ADD0008946B0FBF7F1B0FBF7F207FB12009A19B6
:10ADE0003A44D21CB2FBF7F2DDF820A001E024685F
:10ADF000491E0029FBD13D1A8846B54216D818E0F5
:10AE0000BAF1000F05D0211809EB08002A46091DE8
:10AE100004E0204409EB08012A46001DFBF726FB4D
:10AE200000202468761BA844B74201D9354600E0CB
:10AE30003D46002EE4D1BDE8F087000030B5024663
:10AE400059B101F0E3F90021074C09E004EB81035B
:10AE500015685B88AB4202D11160002030BD491CEF
:10AE60008142F3D3052030BDC82D0020F8B50F4630
:10AE7000017814460546012901D1687830B120884F
:10AE8000821C9A422DD8012902D006E00720F8BD85
:10AE900069780144891C994223D8181A801E86B209
:10AEA000ADF800602188B81C084469467DDF0028A1
:10AEB000EDD12878022805D1BDF80010B14201D8A3
:10AEC00009210AE00821012805D16878B04202D89A
:10AED000ADF8000001E0ADF80060BDF80000FE280C
:10AEE00001D90C20F8BD2288401CB8542088401C91
:10AEF00080B2208039542088401C2080BDF800108A
:10AF0000084420800020F8BD70B505460C004FF0C5
:10AF1000FF0020D04FF6FF76B5421CD00E4801222C
:10AF200041782846FCF736FF2846FEF7D7FEFF2873
:10AF300003D1FEF7EFFEFF280DD0084B00EB4002D7
:10AF400003EB82014D8023F8226022684A60A288C8
:10AF50000A81A2798A7270BD022C0020343100204F
:10AF6000034A00219268C0E9002181607047000017
:10AF7000302C002070B54FF6FF750E46A84201D167
:10AF8000002000E0401C84B208E02146304603F077
:10AF90002EF808B1204670BD641CA4B2FF2CF4D971
:10AFA000284670BD10B5FBF780F908B1002010BD30
:10AFB000112010BD10B531B1B2FBF3F403FB142422
:10AFC0001CB1092010BD0E2010BD016000214160A0
:10AFD00081608281C381084610BD70B50C4605466C
:10AFE000FBF718F9002802D021882868084470BDB2
:10AFF00010B50A8849888A4203D1FBF74DF9012030
:10B0000010BD002010BD70B50C460546FBF727F9B2
:10B01000002802D061882868084470BD10B50A88ED
:10B0200049888A4203D1FBF711F9012010BD0020A5
:10B0300010BD01F01F0301229A40D243490900EBE1
:10B040008100114600F059B80A4601F01F030121A2
:10B05000994010B552090C4600EB820000F05DF8F3
:10B06000204000D0012010BD2DE9F04180460D4662
:10B070000024481E012101EB501716E058F8240067
:10B08000C04390FAA0F0B0FA80F020280CD200EB78
:10B090004416AE4208D231464046FFF7D5FF00289D
:10B0A000ECD13046BDE8F081641CA742E6D82846C2
:10B0B000F8E74A0950F8220001F01F0201219140EF
:10B0C000084000D00120704701F01F0301229A4080
:10B0D000490900EB8100114600F029B8002100F079
:10B0E00017B8012100F023B8012100F016B808B507
:10B0F0006A46FBF726F9009808BD08B56A46FBF7D3
:10B1000006F9009808BD08B56A46FBF71AF908BDAC
:10B1100008B56A46FBF7FBF808BD08B56A46FBF7B9
:10B12000E9F808BD08B56A46FBF7D8F808BD08B5C8
:10B130006A46FBF7DFF8009808BD08B56A46FBF7DA
:10B140000DF9009808BD38B5044600258DF800506B
:10B150006846FBF79DFF21686268086890420ED937
:10B16000401E08600178A38AE26801FB0325227A69
:10B170002168101AC0B20A79824200D208719DF883
:10B180000000FBF7A9FF284638BD38B5054600206A
:10B190008DF800000C466846FBF77AFFE868A98A3C
:10B1A000201AB0FBF1F12A681068431C136001708B
:10B1B0009DF80000FBF790FF38BD10B530B1017A63
:10B1C00042680368891AC9B21A6006E00E2010BDF1
:10B1D00003681A68541C1C601170491EC9B2F7D26A
:10B1E000006800210171084610BDC20800F0070385
:10B1F0000120895C98400840704710B5C20800F0F3
:10B200000703885C01249C402043885410BD10B57E
:10B2100060B10161F72120F8021B20F8021BFB211D
:10B2200000F8021BFFF784FA002010BD0E2010BDAD
:10B230002DE9F047B0F804900C465FEA09025FD1AF
:10B240000188304E4FF0040A24291FD006DC102953
:10B2500009D011290CD0232931D11CE03A290BD077
:10B2600055292CD10DE00146204601F04DFE26E087
:10B27000A01DFFF75DFA22E00146204601F0FEFF27
:10B280001DE00146204601F051FF18E0014620462E
:10B2900001F0BCFE13E0057A3188071D0AEB01407E
:10B2A00004F106082B4618A100F01DFF98F80600CF
:10B2B000A84200D2054629463888FDF7FFFDA07A4E
:10B2C00000281DD0E1884846A5DF012560B111287E
:10B2D00016D001F0A1FB024630881BA105EB00400F
:10B2E000BDE8F04700F0F8BE0023A372E572318894
:10B2F000E2880AEB0140BDE8F047204900F0F3BEC8
:10B30000BDE8F087C82D002050656572206F6E2063
:10B31000636F6E6E656374696F6E20307825782078
:10B320007265717565737465642061206461746110
:10B33000206C656E677468206F66202575206279C1
:10B340007465732E0000000073645F626C655F6754
:10B35000617474635F65786368616E67655F6D745F
:10B36000755F7265717565737428292072657475CF
:10B37000726E65642025732E00000000AC0C030083
:10B3800020B10278DE2A03D0082070470E207047D3
:10B3900041800020704760B159B10278DE2A0AD09E
:10B3A00009684160DE2101704FF6FF714180002085
:10B3B00070470E207047082070477FB5054600296A
:10B3C0004DD0002D4BD008780C46DE2847D1A888F8
:10B3D0006188884202D1204604F058FE288801285E
:10B3E00025D002283BD011283AD0512837D135F842
:10B3F000040F6188884232D1A978A81C02292ED175
:10B40000017A042903D0062901D0052927D100217A
:10B41000009102228DF8002001914FF4C072029138
:10B420000391ADF80420007A05280FD010E0297AA6
:10B430002046012913D1A988428891420FD10121C8
:10B44000017204B0BDE8704004F020BEADF80410F5
:10B4500028886946B0DF002801D0616888477FBD31
:10B46000A88861888842FAD14FF6FF7060807FBD5E
:10B4700000F180400068002800D00120704708B526
:10B4800000F18040002101600068009008BD0000CC
:10B490002DE9F041040007D0044E4FF47A47751CA3
:10B4A0003846A847641EFAD1BDE8F08120060300A3
:10B4B00070B50B4C207808B185250FE00020A06006
:10B4C00060602061E060074801F0D2FA054601F0B3
:10B4D0002DFA08B901F0B6FA01202070284670BD97
:10B4E000903300209D8C020038B500258DF8005067
:10B4F0006846FBF7CDFD074CE068401EE060E06861
:10B5000010B901F0C5FAA5709DF80000FBF7E4FD45
:10B5100038BD0000903300202DE9F0410646047844
:10B520000B4815460F4640F82420083040F82430D8
:10B53000487B10B1084604F02DFA0DB1054A00E031
:10B54000002223463946301DBDE8F04101F0F2BB30
:10B55000A02C002041FA0200001D01F05BBC38B5B0
:10B56000001D049C009401F06DFC38BD0FB408B5BB
:10B570000399002904D004AA00926A4600F00FF84B
:10B5800001B05DF814FB10B582680446002A05D0AE
:10B59000D4E90403216898470020A06010BD2DE97C
:10B5A000FC4791460C00804676D014F8011B39B157
:10B5B00025290ED04046FDF799FA20780028F4D1CD
:10B5C00098F80C00002867D04046BDE8FC47FFF71C
:10B5D000DABF0020012221782B291BD02D2902D08F
:10B5E000302908D102E040F0010001E040F0020003
:10B5F000641C002AEFD100252A290ED02178A1F160
:10B6000030020A2A11D205EB850201EB4205641CC7
:10B61000303DF1E740F00400EAE7D9F800100B1DD7
:10B62000C9F800300968641C0D44217800232E29D4
:10B630000BD114F8011FA1F130020A2A05D203EB45
:10B64000830201EB4203303BF3E76C290DD06829FC
:10B650000BD0692921D00BDC252918D0582931D0ED
:10B6600063290ED0642915D117E014F8011FECE707
:10B67000702969D0732932D075291BD0782909D156
:10B6800020E0D9F80000011DC9F8001001784046FB
:10B69000FDF72CFA641C90E76CE0D9F800100A1D45
:10B6A000C9F800200968CDE900500A224046FEF79B
:10B6B00069FFEFE7D9F800100A1DC9F800200968F2
:10B6C0000A2206E0D9F800100A1DC9F8002009680E
:10B6D0001022CDE90050404604F02EFCDAE7D9F8FC
:10B6E000001000270A1DC9F800200E68C00705D108
:10B6F00012E04046761C7F1CFDF7F8F931780029EE
:10B70000F7D104E0202140466D1EFDF7EFF9BD4260
:10B71000C0D9002DF6D1BDE74EB13046FAF7D8FEBC
:10B72000074604E0202140466D1EFDF7DFF9BD42CB
:10B7300006D9002DF6D103E04046761CFDF7D6F978
:10B7400031780029F8D1A5E7D9F80000011DC9F822
:10B750000010056830214046FDF7C8F978214046C1
:10B76000FDF7C4F908200021CDE9000103461022AD
:10B770002946B0E7BDE8FC872DE9F84F2B4E0400C1
:10B780009A4630884FF001031546894603EB004086
:10B7900024D0216800292BD0002D32D06268494680
:10B7A0004FF010071268A2F1010C1CEA090F11D129
:10B7B00098466A432046FBF7BBFA00282AD0206847
:10B7C00053462A46066901B049462046B446BDE8BC
:10B7D000F04F6047164B17A2009721E00E21009111
:10B7E000134B1EA21FA100F086FC0E20BDE8F88FAF
:10B7F000082100910E4B26A21AA100F07CFC082023
:10B80000F4E7092100910A4B24A216A100F073FC71
:10B810000920EBE700973188054B214A08EB0140EE
:10B8200010A100F068FC1020E0E70000F42D0020DB
:10B830004B080300616464725F69735F70616765E0
:10B840005F616C69676E656428705F66732C207039
:10B850006167655F6164647229000000705F6673F0
:10B8600000000000257320636865636B20666169D2
:10B870006C656420696E20257328292077697468B7
:10B880002076616C756520307825782E00000000E8
:10B89000705F66732D3E705F617069006C656E004D
:10B8A000300E030038B503000F484FF001054FF08C
:10B8B0000E04008805EB004009D061B119600C68E6
:10B8C00001B0A446BDE83040114618466047074B1A
:10B8D00007A2009402E0054B07A2009408A100F023
:10B8E0000AFC0E2038BD0000F42D002000080300E3
:10B8F000705F667300000000705F61706900000097
:10B90000257320636865636B206661696C656420DC
:10B91000696E202573282920776974682076616C08
:10B92000756520307825782E000000002DE9F04163
:10B9300028B1016819B1C969BDE8F04108470D4D4A
:10B940000D480024461B14270DE000BF04EB8400C3
:10B9500005EB8000016829B1C969884710B1012051
:10B96000BDE8F081641CB6FBF7F0A042EED80020E1
:10B97000F6E70000B42D0020C82D00200448012166
:10B980004174007A08B10020704701207047000020
:10B99000D4360020012801D0032808D10449002210
:10B9A00001284A7400D00020087402F095BD704749
:10B9B000D436002070B50246022801D0032A45D1B2
:10B9C000234C207A002841D0012833D0022831D1DD
:10B9D00020480023022A006802D0032A2AD11BE053
:10B9E000E360017911B1012924D10DE0D0E90565A9
:10B9F000711B4FF48056B14200D331462944816116
:10BA00004569A9420ED015E00169491C01614269EE
:10BA100091420FD1237213E0E168491CE1600829CB
:10BA200008D9E3602372022A0AD00D21FDF732FC07
:10BA300002F0F8FC607C28B1BDE8704000F07CBFEB
:10BA40000021F3E7BDE8704002F046BD70BD000084
:10BA5000D43600203C2D00202DE9F84F3A4D04004B
:10BA60008B4628884FF00106DDF828A098469146BD
:10BA70004FF00E0106EB00401AD0B9F1000F1BD0B9
:10BA80002168002920D00921B8F1000F25D0626873
:10BA90005368B8FBF3F703FB1782002A21D02B4B26
:10BAA0002BA2009135A100F026FB0920BDE8F88FFC
:10BAB000264B3DA2009102E0244B3DA200912FA114
:10BAC00000F019FB0E20F1E7082100911F4B3AA26C
:10BAD0002AA100F010FB0820E8E71C4B39A20091D6
