:020000040000FA
:10000000D8200020150200001D0200001F02000081
:100010002102000023020000250200000000000071
:1000200000000000000000000000000027020000A7
:1000300029020000000000002B0200002D02000039
:100040002F0200002F0200002F0200002F020000EC
:100050002F0200002F020000810200002F0200008A
:10006000290700003D0700002F0200002F020000BA
:100070002F0200002F0200002F0200002F020000BC
:100080002F0200002F0200002F0200002F020000AC
:100090002F0200002F0200002F0200002F0200009C
:1000A0002F0200002F0200002F0200002F0200008C
:1000B0002F0200002F0200000000000000000000DE
:1000C0002F0200002F0200002F0200002F0200006C
:1000D0002F0200002F0200002F020000000000008D
:1000E0000000000000000000000000000000000010
:1000F0000000000000000000000000000000000000
:1001000000000000000000000000000000000000EF
:1001100000000000000000000000000000000000DF
:1001200000000000000000000000000000000000CF
:1001300000000000000000000000000000000000BF
:1001400000000000000000000000000000000000AF
:10015000000000000000000000000000000000009F
:10016000000000000000000000000000000000008F
:10017000000000000000000000000000000000007F
:10018000000000000000000000000000000000006F
:10019000000000000000000000000000000000005F
:1001A000000000000000000000000000000000004F
:1001B000000000000000000000000000000000003F
:1001C000000000000000000000000000000000002F
:1001D000000000000000000000000000000000001F
:1001E000000000000000000000000000000000000F
:1001F00000000000000000000000000000000000FF
:10020000DFF80CD000F02AF800480047890C000005
:10021000D82000200648804706480047FEE7FEE752
:10022000FEE7FEE7FEE7FEE7FEE7FEE7FEE7FEE7A6
:10023000F90300000102000040EA01039B0703D01C
:1002400009E008C9121F08C0042AFAD203E011F815
:10025000013B00F8013B521EF9D27047064C074D96
:1002600006E0E06840F0010394E807009847103486
:10027000AC42F6D3FFF7C8FF84150000A4150000B8
:100280002DE9F043002589B0DFF84091A8464FF4EE
:10029000807601242F460695304600F0AFFD38B138
:1002A000D9F80403204203D0304600F09DFD2543D9
:1002B000361D64007F1CB6B2082FEDD34FF4BE7418
:1002C000204600F09BFD48B1204600F08DFD45F032
:1002D000004506AA0121002000F072FD3C4E15F0F9
:1002E000FF0F15D0012700242F420DD009EB840108
:1002F000D1F81005D1F81015C0F3042056F82420C9
:10030000C1F3014102B190477F00641C082CEBD37C
:10031000002D2DDA4FF0FF30CDF808804AE004A917
:10032000204600F003FD002822D04FEA9518204611
:1003300000F06CFC56F820501DB1B8F1030F03D04B
:1003400006E0B8F1030F13D102A9204600F0F6FC35
:100350004FF0A04000EB8400D0F8000706A9C0F3DE
:100360000149204600F0E2FC28B1B9F1020F05D0A6
:1003700009B0BDE8F083B9F1030FF9D1B8F1030F6B
:1003800007D1B9F1020F1FD00221204600F007FD6E
:10039000012715B141462046A847002FE8D06A46FC
:1003A0000121002000F00CFD069900988842DFD062
:1003B00006900298049096F84450002768B225F001
:1003C000C004401CABD1D3E70321DEE7006000404E
:1003D00040000020BFF34F8F05480168054A01F433
:1003E000E06111430160BFF34F8F00BFFDE70000E4
:1003F0000CED00E00400FA052DE9F041BA480023B5
:10040000021D0178101D01254FF0805406290BD1E3
:100410001678360708D10678C6F30316032E06D0E1
:10042000042E04D0052E02D0062907D00EE0B4F821
:100430002463AE4FC6F304263E6002E0167836070A
:1004400004D10678C6F30316032E02D0062904D081
:100450000FE0A84FA64E7E670EE01678360708D14B
:100460000678C6F30316032E06D0042E04D0052EFC
:1004700002D0062907D00EE0D4F844629E4FC6F39E
:1004800042363E6002E01678360704D10678C6F39D
:100490000316032E02D0062906D011E0974E3768C6
:1004A00027F0807737600EE01678360708D1067897
:1004B000C6F30316032E06D0042E04D0052E02D058
:1004C00006290AD011E04FF08046C6F80C31C6F874
:1004D0001031894E361F336002E01678360704D19A
:1004E0000678C6F30316032E02D0062905D00CE0C9
:1004F000814F032664373E600AE01678360704D140
:100500000678C6F30316032E02D006290DD014E098
:100510007B4F05263E607A4E78363560784E083639
:1005200033603F263F1D3E6002E01678360704D157
:100530000678C6F30316052E02D0062957D062E0CE
:10054000704E3668704F3E606E4E361D36683F1DE9
:100550003E606C4E083636683F1D3E60694E0C3674
:1005600036683F1D3E60674E103636683F1D3E6060
:10057000644E143636683F1D3E60624E183636684B
:10058000614F20373E605F4E1C3636683F1D3E602F
:100590005C4E203636683F1D3E605A4E2436366823
:1005A0003F1D3E60574E283636683F1D3E60554E13
:1005B0002C3636683F1D3E60524E30363668524FFC
:1005C00040373E604F4E343636683F1D3E604D4EDC
:1005D000383636683F1D3E604A4E3C3636683F1D11
:1005E0003E60484E403636683F1D3E6002E0167859
:1005F000360708D10678C6F30316032E06D0042E5C
:1006000004D0052E02D0062907D019E0D4F85812DC
:100610003E4A01F04F01116002E0117809070FD145
:100620000078C0F30310032803D0042801D0052864
:1006300006D137480168C90702D06FF00101016097
:10064000D4F83001062808D1D4F83401062804D1A2
:100650003048016841F480610160284874380168BD
:1006600041F470010160BFF34F8FBFF36F8F4FF004
:100670001020D0F80C12284ACC07284911D0156058
:100680000C68002CFCD0D0F80C4224F00104C0F817
:100690000C4208680028FCD0136008680028FCD0D1
:1006A0001AE0D0F80042002C03DBD0F80442002C02
:1006B00014DA15600C68002CFCD01524C0F8004238
:1006C0000D68002DFCD0C0F8044208680028FCD05A
:1006D000136008680028FCD0FFF77CFE1149104821
:1006E0000860BDE8F0810000E00F00F040350140F7
:1006F0000DF0ADBA00C007403C050040FCED00E045
:10070000105600400404001020C50040E40E0040D4
:10071000000400403C17004004E5014000E40140B3
:100720000090D0031800002004220249024800F083
:1007300075BA00008C0000200080004004220249AD
:10074000024800F06BBA00009800002000900040C2
:1007500002E008C8121F08C1002AFAD1704770478A
:10076000002001E001C1121F002AFBD170470000E8
:1007700072B609480068C00700D000BEBFF34F8FB3
:100780000548E4380168054A01F4E061114301605D
:10079000BFF34F8F00BFFDE7F0ED00E00400FA0566
:1007A0000EB500210091CDE901106A4644F2010026
:1007B000FFF7DEFF0EBD000030B542680B4C137929
:1007C000E15C0120FF290ED0FE290DD012684FF404
:1007D000A86505EB81015158054A52F82320914242
:1007E00002D1FF20E054002030BD00000D000020A9
:1007F000A400002003681B8B9BB253436422B3FB0D
:10080000F2F292B2AFF3008070B50446006816466B
:100810000D4690F8212001EB450100EB8101022AF1
:1008200001D0082070BD4968B14205D1C16909B342
:100830006068007988471DE02046FFF7BDFF08B1DA
:10084000112070BD61680C4AFE200979505432466F
:100850002946204600F008FE2068C06950B1616852
:10086000064A0220097902EB4101485502216068DD
:1008700000F0A4FC002070BD0D000020B800002096
:100880002DE9F84F07688946054601EB490897F8B6
:1008900021001E46924607EB880410B10820BDE8EF
:1008A000F88F4FF0000B3248C4F804B0A67200680D
:1008B00000900A22296802EB8800085C40B1002001
:1008C0008DF801006946504600F0F4FAB0B901E035
:1008D0000120F5E747F828A04FF001084FF0A041AC
:1008E00008FA0AF016B1C1F80C0501E0C1F80805D4
:1008F0000027E019083000F09BFB08B10420CEE788
:100900007F1CFFB2022FF4D3207A00F0E3FB607A61
:1009100000F0E0FB206836B100F07EFA0646206861
:1009200000F07AFB05E000F077FB0646206800F057
:1009300073FA07464946686800F031FC0146207AA0
:10094000324600F0A5FB0221686800F028FC014651
:10095000607A3A4600F09CFB84F80B806968054A8F
:10096000097902EB410202F809B0002097E7000084
:1009700078150000B80000202DE9F0470025DFF8C9
:10098000689007680446A846626805EB450007EBD7
:100990008006137909EB430202F80580F17A71B100
:1009A0000A22216802EB8000085CD8B1002130687F
:1009B00000F0F2FA306800F0DDFAC6F804806D1C31
:1009C000022DE1D36168094AFF200979505460681B
:1009D00000F0C4FB606800F011FC022087F82100E1
:1009E000BDE8F0870121E2E7B80000200D000020FB
:1009F0002DE9F74F84B00E00044607D0256895F81E
:100A0000210028B1082007B0BDE8F08F0B20FAE7DD
:100A100000F09EF918B1852801D00420F3E700F01A
:100A20003FFA20B900F004FA08B10320EBE74E4882
:100A3000DFF838A1002100784FF0010BC0F303105C
:100A4000032821D08AF800B0FF2285F8202000205A
:100A500091464FF0FF3C00BF00EB400705EB8703DA
:100A6000401CD97283F8089083F80990C0B245F809
:100A700027C00228F0D305F1200000F0D9FA30B1E8
:100A8000204600F08BFCC8E78AF80010DCE700275E
:100A900056F82720501C12D0F0193946037A204608
:100AA000FFF7EEFE5FEA000804D0204600F076FC77
:100AB0004046A8E7002239462046FFF7A5FE7F1CE6
:100AC000FFB2022FE4D3002009224FF48053316992
:100AD00001E04908401C994201D39042F9D39AF8A9
:100AE000001009B100B90120214AD2E90112CDE973
:100AF00001128DF8040060681E4A01A90079029075
:100B0000606800F09FFB070004D0204600F046FC20
:100B1000384678E7606831690068D0F810050E0142
:100B2000C640AE61606800F019FBCDF800B05F46CA
:100B3000042332460221606800F06EFB02216068E7
:100B400000F035FB0698E86160680B49074A0079B8
:100B5000521C41F820406168097902F8019085F83B
:100B6000217000204FE70000E80F00F00C0000208B
:100B70007815000011140000C400002000F002B835
:100B800000F008B872B602480168491C016070475D
:100B90001400002003490868401E086000D162B6B6
:100BA000704700001400002005494FF0FF3208286C
:100BB00041F8202002D3084480F83C207047000010
:100BC00040000020F0B54FF0FF3512B10023082699
:100BD00001E0082309260C4C05E000BF54F82370FF
:100BE0007F1C04D05B1CB342F8D32846F0BD261806
:100BF0005DB286F8245044F82310002AF5D1E1189C
:100C000081F83C00F1E70000400000200249084460
:100C100090F9240070470000400000202DE9F041C9
:100C2000174688460646002417E000BF4FF4A07020
:100C300000EB84054FF480307159A04059B1D6F8CB
:100C40000413014207D02946304600F0DFF8D8E906
:100C5000002128469047641CE4B2BC42E6D3BDE8BC
:100C6000F08100000121814003484068014201D029
:100C700001207047002070470400002001218140BE
:100C8000080300D00120704786B01422244968462A
:100C9000FFF7D2FA01208DF809002148214A694660
:100CA0000838FFF7A5FE08B1FFF77AFD1C480838A1
:100CB000FFF762FEDFF870800024A14601E0142CEB
:100CC00002D204EB840504E0C4F1140000EB8005BB
:100CD0006435464688F800901148AAB200210838C9
:100CE000FFF788FD1128F7D030780028FCD00C4899
:100CF000AAB201210838FFF77DFD08B1FFF750FDCA
:100D0000074D1926103D4FF47A47691C384688472D
:100D1000761EFAD1641CE4B2282CCDD2CFE70000B5
:100D2000601500000514000000000020C20800F05B
:100D300007030120895C98400840704710B5C2083D
:100D400000F00703885C01249C402043885410BDB8
:100D50000448017809B18520704701210170002005
:100D6000704700000100002070B541EA4201DDE952
:100D700004564FF0A04441EA830141EA052104EB07
:100D8000800041EA0641C0F8001770BD1CB5002183
:100D900000910B4601220191FFF7E6FF1CBD4FF0C9
:100DA000A04202EB8000D0F8002722F44032C0F8C5
:100DB0000027D0F8002742EA0141C0F80017704729
:100DC00018B5084B6C4601441B68009306E000BF51
:100DD00054F82030D3F81035401C08C28142F7D8AF
:100DE00018BD000074150000034908B5084400212F
:100DF00001600068009008BD006000400249405852
:100E0000012800D0002070470060004008B5002293
:100E100042504058009008BD10B5FFF7F7FE602122
:100E200001EB80000149C0B2084410BD00600040E1
:100E300070B5184D95F8490008B1082070BD002024
:100E4000411E2A18401CC0B282F824102028F8D372
:100E500000242046FFF7A8FE641CE4B2092CF8D356
:100E600000240D4945F8454FE02081F80004012693
:100E70004020891FC1F88002C1F800014FF4BE7004
:100E8000FFF7B2FF0549F007C1F804032E712046B1
:100E900070BD00004000002006E000E0006000405F
:100EA000034890F84900002800D001207047000056
:100EB000400000202DE9FC4104462B480F46204409
:100EC000002590F92410491C01D0082546E0B97886
:100ED000002651B3012200212046FFF773FE411C7A
:100EE00021D0830021483A7818447978D0F8103519
:100EF000DFF87CC003EA0C03C0F81035D0F81035D9
:100F00004FF4F85C0CEA042C43EA0C034FF4403C29
:100F10000CEA02424FF4801C0CEA01510A431343CD
:100F2000C0F8103504E0042518E0FE2180F82410F4
:100F30007A780120A0404FF0A041012A11D0C1F8D9
:100F40000C05012220460096002311460196FFF76A
:100F50000BFF054920464531FFF7F0FE2846BDE866
:100F6000FC81C1F80805ECE740000020006000406B
:100F7000FFE0ECFF0649084490F924008100054891
:100F80000844D0F8101541F00301C0F8101570475F
:100F9000400000200060004001B10121064A1044D9
:100FA00090F92400820005481044D0F8102561F320
:100FB0001452C0F810257047400000200060004027
:100FC00010B5044600F0DEF970B12046FFF71EFEB2
:100FD000C0B2FFF7E9FD2046FFF718FE0C4A0021DA
:100FE00002EB8000C0F810150A49FF20214481F867
:100FF0002400204600F0AEF9002807D02046FFF775
:10100000C5FE2046BDE8104000F0AEB910BD00009E
:10101000006000404000002010B5FFF7F7FD3021D0
:1010200001EB80000149C0B2084410BD00600040DF
:101030002DE9F0470427144E814600244FF00108A3
:101040000020FFF79BFD08FA04F5354203D0204647
:10105000FFF708FE58B10020FFF792FD27B104F119
:101060000104AE43E4B2EBD13846BDE8F08707494E
:1010700008FA04F000274A681043486089F80040E5
:101080003846FFF77DFDEFE7FFFF0F00040000206B
:101090002DE9F04114460D00074612D08CB1002610
:1010A000FFF7ECFD78B13846FFF7DCFD68B1084882
:1010B00000EBC700C0F81055C0F814453046BDE835
:1010C000F0810E20FBE70726F8E70826F6E7000088
:1010D00000F0014070B5044601260025A640FFF748
:1010E000CDFD18B12046FFF7BDFD18B102480660DE
:1010F000284670BD0825FBE708F5014070B5044699
:1011000001260025A640FFF7B9FD18B12046FFF7DC
:10111000A9FD18B102480660284670BD0825FBE706
:1011200004F5014070B504460026FFF7A7FD78B12D
:1011300008480125A54005600020FFF71FFD06486F
:101140004168A94341600020FFF71AFD304670BD99
:101150000726FBE708F50140040000200068012194
:10116000C16070472DE9F04106460D464FF48034CA
:1011700000681746AC404BB14FF4A07101EB8501FC
:10118000FFF744FE3068C0F8044301E0C0F80843AC
:10119000306800EB8500C0F84075BDE8F08102685A
:1011A0004FF4A07000EB810080B2104470470268D9
:1011B0004FF480308840C2F80803704770B5054688
:1011C0000C464FF4A07000EB840081B22868FFF752
:1011D0001DFE29684FF48030A040C1F8040370BDA3
:1011E0000268012111610079034A00EB400002EB23
:1011F00080000172704700008C000020016801220D
:101200000A600079034A00EB400002EB80000221F3
:10121000017270478C000020F0B40468049E40F214
:101220000115D4F800728D40AF43C4F80072046811
:10123000D4F800521D43C4F800523346F0BCFFF707
:1012400091BF00002DE9F04104460E4600792C497B
:1012500000EB400001EB8007387A10B10820BDE8B0
:10126000F0813A60706800254FF4A078786006E05D
:1012700008EB85012068FFF7C9FD6D1CEDB26079B0
:10128000A842F5D82068F17840F3073000284FEAEB
:10129000411106DA00F00F0000F1E02080F8141D83
:1012A00003E000F1E02080F800142068012240F300
:1012B000073000F01F0302FA03F14009800000F13B
:1012C000E020C0F88012C0F8001120687178D0F8D2
:1012D000043561F30103C0F804352068B178D0F813
:1012E000083561F30103C0F8083520683178D0F87B
:1012F000103561F30303C0F810353A720020AEE7F1
:101300008C00002010B50346006840F3073101F05F
:101310001F02012090404909890001F1E021C1F834
:10132000800119684FF0FF30D1F800220024C1F885
:1013300000421968C1F808031846FFF751FF1879F1
:10134000034900EB400001EB8000047210BD000077
:101350008C00002010B50349FFF7E8FC002800D0FE
:10136000012010BD8500002010B50549C20800F01D
:1013700007008B5C01248440A3438B5410BD000004
:10138000850000200449084490F92400082801D26F
:101390000120704700207047400000202DE9F05FD9
:1013A0000668834696F82000FFF7BCFE002505EB93
:1013B000450800244FF0FF0A06EB880707EB0409F5
:1013C00099F80800FF2803D0FFF7ACFE89F808A0C1
:1013D000641CE4B2022CF1D356F82800411C05D05D
:1013E000FFF7EEFD4FF0FF3146F8281000206D1C8E
:1013F000EDB2F872022DDAD3DBF80400BDE8F05F3D
:10140000FFF780BF014901200870704700000020ED
:101410002DE9F04113480D460127002400F10C0886
:1014200000EB4506305D28B1305D401E3055305D23
:1014300070B10027641CE4B2022CF3D3002F0ED04D
:1014400058F8250002214068BDE8F041FFF7AFBE23
:1014500058F825000068C16928468847EAE7BDE8D2
:10146000F0810000B80000202DE9F04788460546CD
:10147000076801EB480007EB8004164697F8200048
:10148000FFF728FEDFF8B0904FF0FF0A7EB1B86991
:10149000B04211D886B2207AFFF71CFE94F80900FA
:1014A000FFF72CFE69680A7909F802A040E0607A2B
:1014B000FFF710FE207AF3E76268824228D03AB341
:1014C000B24225D9002303216868FFF74BFEA07ABA
:1014D0000028206802D0FFF79FFC01E0FFF79CFD89
:1014E000824603216868FFF75AFE014617F8200F6D
:1014F0005246FFF7CDFD3878FFF700FE69680A799C
:1015000009F8028068680D49007941F8206003E01D
:1015100069680A7909F802A00023324641466868E2
:10152000FFF720FE207AFFF7E9FD607AFFF7E6FD7E
:101530006660BDE8F08700000D000020A4000020D8
:1015400000900040010400000000000000000000C6
:101550000338FDD8704700001C0000204015000033
:101560001400000012000000000000000200000053
:101570008813000000000050030001000000000775
:1015800000000000A4150000000000201C00000066
:1015900050070000C01500001C000020BC20000007
:1015A00060070000000000000000000000000000D4
:1015B0000000000000000000000000000090D003C8
:0400000500000201F4
:00000001FF
