:020000040002F8
:10600000905C0020C1630200C9630200CB63020000
:10601000CD630200CF630200D163020000000000E4
:10602000000000000000000000000000D363020038
:10603000D563020000000000D7630200D9630200AC
:106040005D670200DB6302000D6B0200D96702008E
:10605000DB630200DB63020095650200DB63020084
:10606000DB630200DB630200DB630200DB63020030
:10607000DB630200DB630200DB630200DB63020020
:10608000DB630200B5670200DB630200DB63020032
:10609000E9670200DB630200ED670200DB630200D8
:1060A000DB630200DB630200DB630200DB630200F0
:1060B000DB630200DB630200000000000000000060
:1060C000DB630200DB630200DB630200DB630200D0
:1060D000DB630200DB630200DB6302000000000000
:1060E00000000000000000000000000000000000B0
:1060F00000000000000000000000000000000000A0
:10610000000000000000000000000000000000008F
:10611000000000000000000000000000000000007F
:10612000000000000000000000000000000000006F
:10613000000000000000000000000000000000005F
:10614000000000000000000000000000000000004F
:10615000000000000000000000000000000000003F
:10616000000000000000000000000000000000002F
:10617000000000000000000000000000000000001F
:10618000000000000000000000000000000000000F
:1061900000000000000000000000000000000000FF
:1061A00000000000000000000000000000000000EF
:1061B00000000000000000000000000000000000DF
:1061C00000000000000000000000000000000000CF
:1061D00000000000000000000000000000000000BF
:1061E00000000000000000000000000000000000AF
:1061F000000000000000000000000000000000009F
:10620000DFF80CD000F088F90048004701AB02002D
:10621000905C002030B450E8012F93B2C48923442D
:106220008489A34228BF1B1B0489A34202BFBFF37A
:106230002F8F002007E0C3EA020340E80134002C5E
:10624000E9D14FF001000A6030BC704750E8012FDF
:10625000C2EA024240E801210029F7D1704730B478
:1062600050E8022F1FFAA2F3C488A34202BFBFF373
:106270002F8F00200DE0C48923448489A34228BFC6
:106280001B1BC2EA034340E80234002CE8D14FF064
:1062900001000A6030BC704750E8022FC2EA224277
:1062A00040E802210029F7D17047034653E8022F46
:1062B000D988B2EB324F4FF0000017BF92B241EADB
:1062C000014142EA014104E05A68B2EB324F08BF93
:1062D000012043E80212002AE8D1704730B4044696
:1062E00054E8000F0D4644E80053002BF8D1156028
:1062F00030BC704730B4044654E8000F40EA010552
:1063000044E80053002BF7D1156030BC704730B41F
:10631000044654E8000F00EA010544E80053002B4E
:10632000F7D1156030BC704730B4044654E8000F14
:1063300080EA010544E80053002BF7D1156030BC1A
:10634000704730B4044654E8000F00EB010544E800
:106350000053002BF7D1156030BC704730B40446B1
:1063600054E8000FA0EB010544E80053002BF7D1DF
:10637000156030BC704770B404464FF0000054E81C
:10638000006F0D68AE4207BF44E80023012044E8D7
:1063900000630E60002B1CBF0020F0E770BC70474C
:1063A00030B4044654E8000F88422CBF451A054615
:1063B00044E80053002BF5D1156030BC7047000055
:1063C0000648804706480047FEE7FEE7FEE7FEE78F
:1063D000FEE7FEE7FEE7FEE7FEE7FEE7F167020005
:1063E000016202002DE9F05F0546002092469B46BF
:1063F00088460646814640241BE0284641464746DB
:10640000224600F079F853465A46C01A914110D3FB
:1064100011461846224600F016F82D1A67EB0108BF
:106420004F4622460120002100F00DF817EB00092D
:106430004E41201EA4F10104DFDC484631462A46C5
:106440004346BDE8F09F202A04DB203A00FA02F11F
:10645000002070479140C2F1200320FA03F3194352
:1064600090407047004870478414030010B5431AE9
:10647000934209D28318881803E010F8011D03F82D
:10648000011D521EF9D210BD40EA01039B0703D043
:1064900009E008C9121F08C0042AFAD203E011F863
:1064A000013B00F8013B521EF9D210BDD2B201E00F
:1064B00000F8012B491EFBD270470022F6E710B509
:1064C00013460A4604461946FFF7F0FF204610BD62
:1064D000421C10F8011B0029FBD1801A704730B50F
:1064E00004460020034600E05B1C934203D2E05CBC
:1064F000CD5C401BF8D030BD202A04DB203A21FAC5
:1065000002F00021704721FA02F3D040C2F12002CC
:106510009140084319467047064C074D06E0E06875
:1065200040F0010394E8070098471034AC42F6D3DA
:10653000FFF76AFEBC1E0300DC1E030070B58C185A
:1065400010F8015B15F0070301D110F8013B2A1187
:1065500006D110F8012B03E010F8016B01F8016B74
:106560005B1EF9D12B0705D40023521E0DD401F870
:10657000013BFAE710F8013BCB1A921C03E013F839
:10658000015B01F8015B521EF9D5A142D8D300206E
:1065900070BD00002DE9F04700268AB0DFF8509169
:1065A000B0464FF48075012437460696284605F01C
:1065B00049FC38B1D9F80403204203D0284605F03D
:1065C00037FC26432D1D64007F1CADB2082FEDD390
:1065D0004FF4BE74204605F035FC48B1204605F066
:1065E00027FC46F0004606AA0121002005F00CFC1D
:1065F000404D16F0FF0F15D00127002437420DD073
:1066000009EB8401D1F81005D1F81015C0F304206E
:1066100055F82420C1F3014102B190477F00641C6A
:10662000082CEBD3002E5FDA4FF0FF30CDF810804E
:1066300054E0281910F8507F90F9000027F0C008A6
:10664000401C3BD007A9404604F0D3FD10B34FEAED
:106650009719404602F05CFA55F820701FB1B9F165
:10666000030F03D006E0B9F1030F27D104A9404678
:1066700004F0C7FD4FF0A04101EB8800D0F80007FF
:1066800006A9C0F3014A404604F0B3FD18B1BAF1BF
:10669000020F03D012E0BAF1030F0FD1B9F1030FCB
:1066A00008D1BAF1020F1DD00221404605F088FB47
:1066B000761CF6B217B149464046B847641C042C14
:1066C000B7D3002E10D06A460121002005F09CFBB4
:1066D00006990098884207D0069004980026344610
:1066E0000790A6E70321E0E70AB0BDE8F0870000C5
:1066F00000600040C833002000F01F0201219140DB
:106700004009800000F1E020C0F88012704700F0DE
:106710001F02012191404009800000F1E020C0F8F3
:106720000011704700F01F020121914040098000D4
:1067300000F1E020C0F8001270474907090E002858
:1067400006DA00F00F0000F1E02080F8141D704719
:1067500000F1E02080F800147047000070B54FF49D
:106760008076304604F088FE114CB50560B13046A5
:1067700004F089FE0120C5F80803607920B90120E2
:1067800060712168002088474FF48276304604F01B
:1067900073FE00280AD0304604F075FE0220C5F8CA
:1067A00008032168BDE870400120084770BD000063
:1067B0009C2C002007480021C0F84011C0F844116B
:1067C000C0F84811C0F84C11C0F80011C0F804110D
:1067D00009F08ABB001001400149024809F094BC4D
:1067E000743400200030004009F0CCBA06F036B90D
:1067F000F0B5B5480023021D0178101D01254FF0AA
:10680000805406290BD11678360708D10678C6F3CE
:106810000316032E06D0042E04D0052E02D006291E
:1068200007D00EE0B4F82463A84FC6F304263E60F8
:1068300002E01678360704D10678C6F30316032E55
:1068400002D0062904D00FE0A24FA14E7E670EE0D1
:106850001678360708D10678C6F30316032E06D03D
:10686000042E04D0052E02D0062907D00EE0D4F85D
:106870004462994FC6F342363E6002E0167836070E
:1068800004D10678C6F30316032E02D0062906D0DB
:1068900011E0924E376827F0807737600EE0167867
:1068A000360708D10678C6F30316032E06D0042E49
:1068B00004D0052E02D006290AD011E04FF0804600
:1068C000C6F80C31C6F81031834E361F336002E033
:1068D0001678360704D10678C6F30316032E02D0C5
:1068E000062905D00CE07C4F032664373E600AE0A1
:1068F0001678360704D10678C6F30316032E02D0A5
:1069000006290DD014E0764F05263E60744E783689
:106910003560734E083633603F263F1D3E6002E00F
:106920001678360704D10678C6F30316052E02D072
:10693000062957D062E06B4E36686B4F3E60694E59
:10694000361D36683F1D3E60664E083636683F1D70
:106950003E60644E0C3636683F1D3E60614E103618
:1069600036683F1D3E605F4E143636683F1D3E6000
:106970005C4E183636685C4F20373E60594E1C36E8
:1069800036683F1D3E60574E203636683F1D3E60DC
:10699000544E243636683F1D3E60524E28363668C7
:1069A0003F1D3E604F4E2C3636683F1D3E604D4EBB
:1069B000303636684C4F40373E604A4E3436366883
:1069C0003F1D3E60474E383636683F1D3E60454E9F
:1069D0003C3636683F1D3E60424E403636683F1DAD
:1069E0003E6002E01678360708D10678C6F3031633
:1069F000032E06D0042E04D0052E02D0062907D07F
:106A000019E0D4F85812394A01F04F01116002E040
:106A1000117809070FD10078C0F30310032803D0C1
:106A2000042801D0052806D131480168C90702D0E1
:106A30006FF001010160D4F83001062808D1D4F8C4
:106A40003401062804D12B48016841F480610160BB
:106A500022487438016841F470010160BFF34F8F20
:106A6000BFF36F8F4FF01021D1F80002002803DB35
:106A7000D1F80402002822DA1F4A15601F48046872
:106A8000002CFCD01524C1F800420568002DFCD074
:106A9000C1F8044201680029FCD013600168002994
:106AA000FCD0BFF34F8F0D48F0380168144A01F451
:106AB000E06111430160BFF34F8F00BFFDE7124952
:106AC00010480860F0BD0000E00F00F040350140C4
:106AD0000DF0ADBA00C007403C050040FCED00E001
:106AE000105600400404001020C50040E40E004091
:106AF000000400403C17004004E5014000E4014070
:106B00000400FA050090D003D42D0020014800684D
:106B100000470000A42C002002E008C8121F08C192
:106B2000002AFAD170477047002001E001C1121F0E
:106B3000002AFBD1704700000121202803DA8140A0
:106B40000548014003E0402802DA2038814009B1BD
:106B50000120704700207047FC06FFBD082806D2C0
:106B600028B1012803D0042801D00120704700205B
:106B7000704710B560B159B102780B785208B2EB8A
:106B8000530F05D10622401C491CFFF7A8FC08B191
:106B9000002010BD012010BD800701D000207047EB
:106BA00001207047C3688B4206D811440069491E12
:106BB000814201D8012070470020704710B50122A2
:106BC0000221002001F0B4FD08B1072810D10722EE
:106BD0000221012001F0ACFD08B1072808D10021F5
:106BE0000A22084601F0A4FD08B1072800D10020C0
:106BF00010BD00000E4910B503220988002802EBE1
:106C00000142104605D00BA105F00CFB07F0FAFD80
:106C100006E00C4905F006FB03210B4800F0D1FD0E
:106C2000002803D0BDE8104000F0CEB810BD000031
:106C3000282E0020457261736520626F6E64732197
:106C400000000000881403003C2F002070B58CB0B9
:106C500015460E4600236C46C3F10F01415CE1541A
:106C60005B1C102BF8D30D2104F11000FFF725FC5D
:106C70000020C0F10F02315C2244401C1174032833
:106C8000F7D3684646DF0020C0F10F01214491F898
:106C900020102954401C0328F6D30CB070BD0220EC
:106CA00001F050BC0149097901F01EB8282C0020E0
:106CB00070B50024064D06E06868012110F8340024
:106CC00005F0CAFF641C28788442F5D3002070BD0B
:106CD000C02C0020F8B515460C460646052A01D200
:106CE0000720F8BD06F0B4F818B906F079F80028C6
:106CF000F7D1124900224E600C708D60C1E9042268
:106D0000C1E906220E4D0DE006EBC4002968009192
:106D100081788DF8011000780A4A694605F0EEFF87
:106D20000028DED1641EE4B2EED2BDE8F84004488B
:106D30000021054A001D00F053B80000C02C0020BF
:106D400004110300CD9C02004190020072B605F0D0
:106D50001FFB00BF05F056F90028FBD1104C0121A4
:106D6000208801EB00400FA105F05CFA1048006894
:106D7000C00700D000BE2088022101EB00400DA119
:106D800005F050FABFF34F8F0948E43801680D4A07
:106D900001F4E06111430160BFF34F8F00BFFDE7D5
:106DA000282E0020466174616C206572726F72003B
:106DB000F0ED00E053797374656D2072657365744E
:106DC000000000000400FA050EB500210091CDE995
:106DD00001106A4644F20100FFF7B8FF0EBD000043
:106DE000084B9B7823B12AB120B10068037C1BB10A
:106DF00008207047072070470023037441744261E4
:106E000018467047C434002070B508F0C1F8104827
:106E100000240B21047044700E4D817014206C60AE
:106E20002C706C70FFF768FC07211420FFF785FCBD
:106E30001420FFF76CFC0848046007211120FFF7BD
:106E40007CFC0548001F0068A860002070BD0000A1
:106E5000C4340020E02C0020081501402DE9FC4737
:106E6000DFF8789099F8023073B368B3052902D23D
:106E70000720BDE8FC87436933B3437C012B25D051
:106E8000002704460025884616468DF800506846BF
:106E900000F038F801A809F0B1FDC8B10121017076
:106EA0000F4944600968C0E90218C0E904769DF8FA
:106EB000040089F801009DF8000000F047F8142054
:106EC000FFF730FC2846D4E70820D2E70F46D8E782
:106ED00004259DF8000000F039F8F3E7C4340020E1
:106EE000041501400649897839B130B1416921B1B1
:106EF00000210174022108F0D3BF08207047000070
:106F0000C434002030B5EFF3108172B60D4A946896
:106F1000012324B10370002900D162B630BD936013
:106F20004FF0E023D3F88051074C25401560C3F89B
:106F30008041D3F8844154605A17C3F88421002259
:106F40000270E8E7D0350020FC06FFBD0B498A68D7
:106F5000002A11D000280FD1EFF3108072B60B6811
:106F60004FF0E022C2F800314B68C2F80431002231
:106F70008A60002800D162B670470000D03500203A
:106F800070B5204E00224FF400413068FFF766FFD5
:106F900008B1FFF719FF1C4C03251C49208805EB9D
:106FA000004005F03FF9002240F28F217068FFF7A2
:106FB00055FF08B1FFF708FF2088154905EB004091
:106FC00005F030F9002242F26661B068FFF746FF33
:106FD00008B1FFF7F9FE20880E4905EB004005F0E7
:106FE00021F900224FF42031F068FFF737FF08B194
:106FF000FFF7EAFE2088084905EB0040BDE8704035
:1070000005F010B9500F0300282E0020B81503001A
:10701000D01403001C150300681503002DE9F0418E
:10702000064608680C46411C4FF0A0474FF001058A
:1070300006D005FA00F1C7F80815206804F0ACFE88
:107040006068411C02D0002104F094FE3168A06900
:10705000C1F82405607D227D31681043C1F86C05BC
:10706000D4E900123068C0F81425C0F80C15207D52
:10707000012815D1A068411C02D0002104F07AFE3D
:10708000E068411C05D08540C7F80855E06804F069
:1070900083FED4E902123068C0F80825C0F8101544
:1070A000BDE8F0812DE9F041064608680C46411C18
:1070B0004FF0A0474FF0010506D005FA00F1C7F8E0
:1070C0000815206804F072FE6068411C02D000219F
:1070D00004F059FE3168A069C1F82405607D217D66
:1070E00032680843C2F86C05D4E900123068C0F871
:1070F0000C15C0F81425207D012815D1A068411C6D
:1071000002D0002104F03FFEE068411C05D085401C
:10711000C7F80855E06804F049FED4E90212306867
:10712000C0F80825C0F81015BDE8F08103F044BC94
:107130002DE9F047074600888EB0804603F030F90D
:10714000824604462D4800252A460178404600F034
:10715000E3FD7879400734D501254FF6FF7603AB80
:107160002A460721504606F093FD010004D0404610
:1071700008F028F900252BE0B1463146049803F0C9
:1071800063F8064648450FD004460146404603F0E2
:10719000F1F84046FFF786FD30B9404608F0E4F8C4
:1071A0004046FFF77FFD48B122460721504606F0D2
:1071B000E5FD010003D0404608F004F900254E45E6
:1071C00006D0404606F048FF10B1504603F0D4F810
:1071D00002208DF81800ADF81A807879400701D5A3
:1071E000012000E002208DF820008DF8215006A833
:1071F00002F09AF80EB0BDE8F0870000282C0020BD
:107200002DE9F0430546407C93B00E460024A0B122
:1072100007949DF81C0020F00F00401C20F0F000A7
:1072200010308DF81C00707B8DF81D009DF81E003D
:1072300020F00600801C8DF81E001C216846FFF718
:107240003CF99DF8000040F002008DF80000697CD8
:1072500011B140F0100001E020F010008DF80000A6
:10726000019403940494687C00B107A8CDE9050457
:1072700001278DF8427042F61920ADF840000D94B8
:10728000B07B8DF83400F07B8DF835009DF836002A
:10729000142120F00600801C20F019008DF8360023
:1072A000307B8DF8440008A8FFF707F90DF140087E
:1072B0000DF13409ADF8287011A8CDE90889ADF8B1
:1072C0002A40ADF82C700C90A888AB1D08AA69461E
:1072D000AADF002838D1B06898B38DF8427042F622
:1072E0000810ADF840000D94307C8DF834009DF806
:1072F000350020F0FF008DF835009DF8360020F0B5
:107300000600801C20F019008DF836000EA8B16828
:1073100001F08FF80646142108A8FFF7CEF8ADF863
:1073200028600EA8CDE90889ADF82A40ADF82C6098
:107330000C90E88805F10E0208A9ABDF002803D104
:1073400001E0FFE7EC81002013B0BDE8F08300000E
:1073500010B50E490E4808F0ACF8C1B20B484FF614
:10736000FE72EC3800F048FB00280DD008280BD046
:10737000132809D0112807D043F20141884203D0D5
:10738000BDE81040FFF720BD10BD0000F42F002025
:10739000AC2B002070B50D4601462846AEDF040038
:1073A0000A48008809D0042101EB00402B46224600
:1073B000074904F042FF204670BD032101EB004065
:1073C0002A4604A104F032FFF5E70000F02D00206A
:1073D0004017030042617474657279206E6F74699E
:1073E0006669636174696F6E2068617320626565A8
:1073F0006E2073656E74207573696E6720636F6E9F
:107400006E5F68616E646C653A2030782530345860
:10741000000000002DE9FC4700251788064615806E
:1074200090F82D001446894630B13A462146484628
:1074300000F09CFC051E09D1B0784FF00C0A18B37F
:107440002088C846001DB84202D95046BDE8FC87D6
:10745000684679DF0028F9D12088032108F8001058
:1074600020881921401C80B2208008F80010208854
:10747000401C80B2208000EB0801BDF8000009F03C
:10748000EBF9218808442080F0780222C8B12188D5
:1074900096F9033001F1030C4846BC45D5D8425457
:1074A00021884FF0010C491C89B2218000F801C0ED
:1074B0002188491C89B2218009F801302088401CAC
:1074C00020807068B8B1218890F9003001F1030C78
:1074D0004846BC45B9D8425421880A22491C89B281
:1074E000218042542188491C89B2218009F8013049
:1074F0002088401C2080308950B1CDE900474B46A0
:107500000622022106F1080009F090FA051E9DD11D
:10751000308A50B1CDE900474B460722032106F1DE
:10752000100009F083FA051E90D1308B50B1CDE9DF
:1075300000474B461522142106F1180009F076FA8F
:10754000051E83D1306A30B13B462246494601F0E0
:10755000EAFB051EDBD1706A30B13B462246494644
:1075600003F0C6FB051ED2D196F82C0038B13B467D
:1075700022464946304608F03BF8051EC7D1307810
:1075800038B13B4622464946304603F073FC051E9F
:10759000BDD128465AE718B504460020ADF80000D2
:1075A00013466A46204600F006F8002802D0BDF8CF
:1075B0000000204418BD70B588B182B10024158840
:1075C00003E0065D641C3444A4B2A54203D8061946
:1075D00076789E4201D08C42F3D38C4201D30020B6
:1075E00070BDA11C1180005D401E80B270BD80F88E
:1075F000301070472DE9F0410D00044606D02CB143
:1076000095F87A000026012803D006E00E20BDE898
:10761000F08195F89800012829D0D5F8A000042819
:1076200025D0D5F89C00042821D04FF00108A67081
:107630002C2205F17801201DFEF718FF84F8306038
:10764000D5F8A4006063D5F8A800A0634FF6FF70DA
:10765000A4F8A80004F19400C4F8A400C4F8AA6037
:10766000A4F8AE6084F8B060207810B104E0072080
:10767000CDE7FF2084F8540004F155011F27C4F81A
:107680009410A4F8987004F198022846FFF7C2FEFF
:107690000028BCD115F13C0F0ED004F17401C4F8E0
:1076A0009C10A4F8A07004F1A00205F13C00FFF7C3
:1076B000B1FE0028ABD103E0C4F89C60A4F8A06040
:1076C00084F85180208BA4F8480084F83C8026641C
:1076D00084F8506060696064454604F13C02002112
:1076E00004F1540072DF002891D125708FE710B5A6
:1076F0000288102A1BD0112A20D0262A1DD1007AF8
:107700000C46012801D0022817D1A0780521401C81
:10771000B0FBF1F201FB1201204600F052F8002804
:107720000BD0A16B002908D0BDE810400847C27BF0
:10773000012A02D18088A1F8A80010BD0C460021C2
:1077400084F8B2108088B4F8A8108842F5D1207966
:107750000028F2D10121DFE710B50C46022801D044
:10776000032810D1607800280DD000206070A17827
:10777000204600F026F8002805D0A16B002902D091
:10778000BDE81040084710BD10B5044690F85400FD
:1077900074DF012084F8B200002084F8B40084F87B
:1077A00050000621204601F0DBFF002808D1A17817
:1077B000204600F006F810B1A16B01B18847002007
:1077C00010BD2DE9F05F044600780F4638B1A77070
:1077D000002004F0E3F8012620B1667007E10820DC
:1077E000BDE8F09F0025C4F8AA50A4F8AE5084F874
:1077F000B050A07910B1A078012806D0E07968B126
:10780000A078012801D0022808D1616B21B184F849
:10781000B1600820884701E084F8B15004F1AB0161
:1078200000200A5C0AB1304603E0401C0628F8D369
:1078300000204FF002084FF0030B012F06D0022F5B
:107840000CD0032F0FD0042F15D110E0A17929B14E
:1078500094F8241011B908B130460DE0E17911B166
:1078600008B1404608E0207A08B1584604E0607A42
:1078700008B1042000E02846A070616B41B10328E4
:1078800001D0042804D1607910B194F8B200A0B1FD
:1078900084F8B35004F13C0018210746FEF70DFEB2
:1078A00004F12C0084F83C60814606F009FD58B1D3
:1078B00094F82C0084F8510008E084F8B45084F85F
:1078C000B36007208847E5E784F8516094F8240006
:1078D00050B1484606F0F4FC20B194F8280084F832
:1078E000520001E084F8526084F85050A27804F10C
:1078F000AA0104F194094FF0060A052A60D2DFE8D4
:1079000002F078030F223F0084F83160C4F8A450DD
:10791000C4E9101584F83C808020A4F8480051E0A8
:1079200084F8318094F82420384612B1072202707E
:1079300001E080F800B0228A8281C4F8A45041603E
:10794000E168B9603EE06069B860208BB88194F866
:1079500024003D4610B184F83CA001E084F83C606E
:10796000204609F027F840B185F81480042120460C
:1079700001F0F6FE20BB05211EE084F831B01DE0C9
:10798000E069B860208CB88194F824003D4610B1BD
:1079900084F83CA001E084F83C60204609F00AF835
:1079A00048B185F814800421204601F0D9FE38B989
:1079B00084F831A002E0042184F83110C4F8A490C6
:1079C000A07878B13A4604F15400D4F8A41072DFDC
:1079D00000287FF405AF94F8301094F8540073DF5A
:1079E0000028F6D1616B11B194F83100884700206E
:1079F000F6E684F83150F5E72DE9F74195B0904669
:107A000005001FD0287C9DF858100024884264D0BF
:107A1000002601270D9616A8ADF834700E90ADF82B
:107A20003660E9880DAA4FF6FF70ACDF04002C48E1
:107A300000880BD0042101EB0040224629A104F06C
:107A4000F5FB4AE00E2018B0BDE8F081032101EB00
:107A500000409DF858202EA104F0E8FB9DF8580046
:107A60002874687C98B30F96109611961296E88841
:107A7000ADF83C00BDF83600ADF840000DA81190FF
:107A80000E981290A8F57F418DF83E704046FE3961
:107A900005D001460FA8FFF77DFC04461DE06846AF
:107AA00000F0C6F800256F460DE000BF07EB450665
:107AB000B08800F0FBF8022804D1B1880FA83CB1CF
:107AC000FFF768FC6D1C0098A842EFD805E003E0C2
:107AD000FFF760FC0446F5E708242046B3E7000002
:107AE000F02D00204572726F7220647572696E67A6
:107AF0002062617474657279206C6576656C20759E
:107B000070646174653A2030782530385800000080
:107B100042617474657279206C6576656C20686169
:107B200073206265656E20757064617465643A20C7
:107B3000256425250000000038B50D46040018D046
:107B4000BDB12868206028796074FF20207401206E
:107B50008DF8020041F60F00ADF80000221D6946C5
:107B60000120A8DF002803D129462046FFF748FB63
:107B700038BD0E2038BD38B5002924D0002822D0C9
:107B80000288502A1FD10546487C0C4600281AD08E
:107B9000E9886289A81D914215D14189022912D133
:107BA000216800290FD00C3000F03FFC08B1002004
:107BB00000E001208DF80000A888ADF802002268DE
:107BC00069462046904738BD70B5040012D0014682
:107BD0001C221448FEF74AFC1248134D0560206829
:107BE00050B17ADF002806D120680168296040681A
:107BF000686005E00E2070BD0B487BDF0028FAD1DD
:107C000008484FF6FF711438084A20F8041B05494C
:107C1000343901600021FFF7E3F80028EBD003209E
:107C200070BD0000C4300020E82B00204D09030087
:107C30000149496801F058B8E030002010B5044609
:107C400000F08AF8002805D02146BDE8104002481F
:107C500003F033BA10BD0000F030002070B51546B7
:107C60000E46044608F0B2FE002809D0054800EB95
:107C7000840080692A463146BDE8704001F0AEBDFF
:107C800070BD0000E030002070B50546002400F013
:107C900063F838B12946044803F00FFA08B102240A
:107CA00000E00124204670BDEC30002070B5054690
:107CB000002400F051F838B12946044803F0FDF9DA
:107CC00008B1022400E00124204670BDE830002005
:107CD00010B51821034803F0CBF9182800D0C0B222
:107CE00010BD0000E030002070B505460C46084687
:107CF00008F06CFE60B1284600F02EF840B105484F
:107D0000294600EB8400BDE87040183003F0D5B977
:107D1000002070BDE030002070B5054614460E46C8
:107D2000084608F053FE002812D0284600F014F848
:107D300000280DD00748294600EB860018301CB1FA
:107D4000BDE8704003F0C4B9BDE8704003F075B9F8
:107D500070BD0000E0300020142801D300207047DF
:107D60000146014803F0A9B9E43000207CB505467E
:107D700008880C460930904201D90C207CBD684629
:107D80006DDF0028FAD121880820685420881B2143
:107D9000401C80B2208029542088401C80B2208062
:107DA0002844DDF801100160BDF8051081802088AD
:107DB000801D80B220809DF80010490800D001216C
:107DC00029542088401C208000207CBD7FB50446BB
:107DD00001208DF8060041F60A00ADF80400454A7E
:107DE00001A90120A8DF00287ED1228804F13C05EA
:107DF00052B140482B46801C009042F62920616811
:107E000000F08EFE002873D1228952B139482B46EA
:107E10000A30009042F62420E16800F081FE00283C
:107E200066D1228A52B133482B461230009042F676
:107E30002520616900F074FE002859D1228B52B1CF
:107E40002C482B461A30009042F62720E16900F0BA
:107E500067FE00284CD1228C52B126482B46223096
:107E6000009042F62620616A00F05AFE00283FD1B9
:107E7000228D52B11F482B462A30009042F628200E
:107E8000E16A00F04DFE002832D1216B71B102A8E9
:107E900007F056FF17482B4632300090082202A9FF
:107EA00042F6232000F03CFE002821D1606B58B13F
:107EB00010492B463A3100910279016842F62A2096
:107EC00000F02EFE002813D1A16B81B102A806F0AC
:107ED000F2FC08482B4642300090072202A942F6E5
:107EE000502000F01DFE00E002E0002800D100203C
:107EF00004B070BD462C002038B5044602882748DF
:107F00000421212A008801EB004032D012DC2349F1
:107F10004FF00300224D0988102A00EB014014D0D5
:107F2000112A06D1227A1FA104F080F94FF6FF70C2
:107F3000A88038BD3B2A29D0562AFAD120A104F0C6
:107F400071F9A088132176DF0DE023A104F06AF90E
:107F5000072000F00FFC08B1FEF736FFA188A980CA
:107F6000204803F011FA0028E3D0BDE83840FEF7BE
:107F70002BBF1DA104F056F900200090A08869468F
:107F80008FDF0028D5D0FEF71FFF38BD1BA104F0FE
:107F900049F9A088132176DFE5E70000282E0020AC
:107FA000902B0020446973636F6E6E656374656423
:107FB0002C20726561736F6E2025642E0000000016
:107FC00047415454205365727665722054696D653B
:107FD0006F75742E00000000436F6E6E65637465EC
:107FE000642E0000302F00205048592075706461C5
:107FF000746520726571756573742E004741545421
:1080000020436C69656E742054696D656F75742EBC
:108010000000000010B51A4C0188606810290ED0CD
:1080200011292BD1401E606028D1FEF7C7FD002822
:1080300024D02168002921D0BDE810400847D0B9DC
:1080400000210122084600F073FB08B107280FD178
:1080500007220221012000F06BFB08B1072807D19D
:1080600004220221002000F063FB20B1072802D087
:10807000216801B188476068401C606010BD000045
:10808000E02B00202DE9F04701883B4E40F2F31928
:108090004FF6FF7510291BD011293ED0122954D05C
:1080A000502946D1C188F289841D914241D161890C
:1080B00002293ED18688304602F01EFA050038D0EB
:1080C00004F10C0000F0B1F9A8B3294630464EE0A7
:1080D000C17B8788044601292BD1A846284602F097
:1080E0000BFA050017D02F80002028722348434642
:1080F0004A460168C5F80A104068C5F80E0004F148
:10810000100105F10A0002F0C3FA6872F089002834
:108110000FD129462AE0042013E0808802F0ECF910
:10812000040006D06068FEF7DDFE08B107F02EF906
:108130002580BDE8F087FFE76868FEF7D3FE0028DA
:10814000F7D0BDE8F04707F021B9878806463846E2
:1081500002F0D2F90400ECD02B464A4606F10801A1
:1081600004F10A0002F094FA607221463846BDE834
:10817000F04700F01FBE0000C4300020E82B0020B4
:108180002DE9F04F0746858802883D48012197B0C8
:108190008346102A09D0112A49D01A2A6CD1387A7C
:1081A000B1EB101F45D2012244E0354C083CA068D9
:1081B000C0430B9061680BA802F0A3FF0B990CA8B9
:1081C00000F092FD2C220CA96846FEF74FF900261C
:1081D000E946A04610E000BF09EB46005FF000044E
:1081E000B0F804A008EB84005146001D02F025FF02
:1081F000641C1D2CF6D3761C0098B042ECD8142DCC
:1082000005D317B00420BDE8F04FFEF7DDBD2946C9
:10821000584602F05DFF294608F1040002F058FFBD
:10822000F87B012828D016482946001D15E029466C
:108230001AE000220221B1EB101F01D2012600E05A
:1082400000260F49083901F11000041D294682B1AA
:1082500002F03EFF36B12946204617B0BDE8F04F88
:1082600002F036BF2946204617B0BDE8F04F02F0B5
:10827000E4BE02F0E2FEF5E717B0BDE8F08F0000C3
:10828000E830002010B504460748007800280AD0DE
:10829000204601F05FFF204607F0B0FA2046BDE817
:1082A000104001F015BC10BD182C0020028CC2B08B
:1082B000A2F57F43FF3B2AD08DF803100A0A8DF800
:1082C00002200A0C8DF80120090E8DF800100421FF
:1082D000ADF8F41000213E913F9140914191028907
:1082E000ADF8FC10ADF8F8203DA9012240918DF8C1
:1082F000FA20CDF804D1008C3EA9AEDF002804D1CD
:10830000BDF8F410042900D00C2042B070470820BA
:10831000FBE738B5044608682060087960714FF6BD
:10832000FF702084002084F82200A4F84C00F42080
:1083300084F84E0001208DF8020041F60D000D4634
:10834000ADF80000A21D69460120A8DF00280ED16B
:108350002946204601F014FE002808D1A86828B15B
:108360002946204600F06BF8002800D1002038BDD7
:1083700038B50288102A15D0112A15D0502A16D1E6
:1083800030F8062F8B899A4211D10C464189022977
:108390000DD1216800290AD00C3000F046F838B120
:1083A000002006E0808801E04FF6FF70088438BDA9
:1083B00001208DF80000226869462046904738BDAC
:1083C000028C4B889A4208D10A88A2F52063773B39
:1083D00003D10979C91E80F84E10704770B5044664
:1083E000B0F84C000D4614280AD104F126012622CB
:1083F000881EFEF73BF8B4F84C00401EA4F84C0071
:10840000B4F84C0004EB4001401CA4F84C008D84EF
:1084100070BD80F82210704770B504460D460846BE
:10842000FEF756F82080656070BD007800F001000E
:1084300070470A7802704978417002207047F0B5A1
:108440008FB00D4606461C216846FEF736F800241C
:108450009DF80000039440F002008DF80000012711
:1084600001948DF8367042F63820049405940694F1
:10847000ADF834000C94E87B8DF83000287C8DF842
:1084800031009DF83200142120F00600801C20F0FD
:1084900019008DF8320007A8FEF70FF80DA8079015
:1084A0000CA8ADF824700890ADF82640ADF82870FF
:1084B000A8680B90F08806F1100307AA6946AADFA6
:1084C0000FB0F0BD0149085C704700008C0F03003D
:1084D0000649095C4FF0A040D0F81005C84010F0E4
:1084E000010000D0012080F0010070478C0F0300D4
:1084F0002DE9FC410646C0074FF000050ED0104F95
:1085000000240122385D009500231146019503F0F7
:10851000C5FB641C042CF4D300F046F8B0070DD55D
:10852000074E0024361D0022305D032300951146BE
:10853000019503F0B3FB641C042CF4D3BDE8FC816B
:10854000880F030007490B5C4FF0A041D1F80425C8
:108550000120984020EA0203C1F808351040C1F814
:108560000C057047880F03000249085C012103F0E5
:108570003FBC0000880F03000249085C002103F0A3
:1085800037BC0000880F03000649095C4FF0A0408B
:10859000D0F80405C84010F0010000D0012080F0A0
:1085A00001007047880F030010B500242046FFF734
:1085B000DBFF641C042CF9D310BD10B50024204649
:1085C000FFF7DAFF641C042CF9D310BD10B5024686
:1085D000064B4FF0FF3000215C5C944201D108460D
:1085E00010BD491C0429F7D310BD00008C0F0300F7
:1085F00070B50C4E0C004FF0000530600BD0012020
:1086000000F06AF808B1022004E0002000F064F8ED
:1086100000B10B202070706810B9FEF7CFFA054644
:10862000284670BDE02B002010B5002000F0D4F9E2
:1086300008B1062806D1012000F0CEF908B10628BD
:1086400000D1002010BD00002DE9F0470D46814605
:10865000FFF7BCFF0446042836D2DFF874801B48BD
:108660001C4EA8F10C0725B3012D0ED0022D2BD1E5
:1086700004EB440030444578002D25D0B96800292A
:1086800022D02846BDE8F047084704EB4401755C5A
:108690000E44717849B10E4A4FF40041093A80689E
:1086A000FEF7DCFB08B987F80390B17808F80410EE
:1086B000E2E78068FEF716FC04EB4401314418F849
:1086C00004008D78A842D7D0BDE8F087900F030052
:1086D000DC2B002064300020042801D2FFF7F8BE14
:1086E000002070470146104810B58088042907D043
:1086F00007290ED00A2915D1BDE8104007F06AB845
:10870000132176DF0CE000280CD0BDE81040FEF706
:108710005BBBA0F57F41FF3904D10448FFF734F873
:108720000828F0D110BD0000902B00203C2F002025
:1087300070B50023042810D20D4D00EB4004012A2F
:1087400002D101290CD00022094E00EB4000304438
:1087500061B1012906D0022906D00723184670BD51
:108760000E30C2B22A55F9E74270F7E78270F5E79A
:1087700064300020044A014600201279D20702D05A
:10878000084600F04DB87047D02B002070B5064663
:108790001E480024C0E90161B00720D50025012250
:1087A00011462846FFF7C4FF6D1C0446042D02D273
:1087B000002CF4D013E094B940F26662042114480E
:1087C000FEF788FA04000AD1FEF772FA040006D117
:1087D0000F48104A0021001FFEF702FB0446F00775
:1087E00012D00120FFF784FE74B909480A4A00211B
:1087F0000C38FEF7F5FA040006D10548074A0121B6
:108800000838FEF7EDFA0446204670BDD02B002054
:108810009C0F0300A58A020025A702009F6C02009E
:108820002DE9F05F6A4C054600266078B34618B122
:1088300084F801B001F05EFF664F4FF47A694FF49F
:10884000C87A4FF00108182D62D2DFE805F0AC0CB1
:108850000C31404D62676B746B74BE7D7D7D7D7D98
:10886000ACAFB2B5BEBE0020FFF78EFE00284FF0C1
:10887000000008D0FFF778FE022D02D14FF4E1602E
:1088800008E0484606E0FFF777FE022D01D1C82038
:1088900000E05046410CC0034FF4FA72801841F1D9
:1088A0000001257052000023FDF79CFD01462AE0DF
:1088B0000020FFF769FE00284FF0000004D0FFF70A
:1088C00053FE4FF44870E5E7FFF756FEDFE7002060
:1088D000FFF75AFE00284FF0000002D0FFF744FED9
:1088E000CFE7FFF749FED4E70020FFF74DFE002851
:1088F0004FF0000002D0FFF737FE01E0FFF73CFE2B
:10890000257041F69A1100223868FEF7A7FA06464C
:1089100046E00020FFF716FE257008E0002051E039
:1089200025703DE084F801800120FFF70BFE002256
:1089300040F6CD41E8E784F801800120FFF702FE10
:1089400000224FF48041DFE77868FEF7CBFA064655
:10895000D5F1110000D02EB10220FFF705FE84F8FA
:1089600002B01DE0012816D980B2C8214843C117C2
:10897000C90341EA5041C0034FF4FA72801841F133
:10898000000152000023FDF72DFD0146002278680A
:10899000FEF764FA06460220FFF7EEFD84F8028037
:1089A0003046BDE8F09F01F0A5FEB9E701F0A2FE58
:1089B000B4E701F09FFE04E001F09CFE0020FFF709
:1089C000DBFD0120FFF7D8FDAAE7FFF7F6FDA7E7DB
:1089D000D02B0020900F0300012108F08EB800007A
:1089E0002DE9F8430546861C00208DF800009046CE
:1089F0000F464FF001096846FEF784FA1B4C2068C9
:108A00003860D4E90001401AA16804F21C47081A32
:108A10000EE00121384602F06EFB02F023F8014619
:108A2000384602F068FBD4E90001401AA168081A30
:108A3000401C8642EDD8B8F1000F03D0052065F345
:108A4000891002E0062065F39F50A268216811405A
:108A500004EB8101C8602068304420609DF800006C
:108A6000FEF774FA4846BDE8F88300006838002035
:108A700030B482680468531C8360A154D0E90112A9
:108A80008A4202D330BC02F0B6BD30BC7047000051
:108A9000034803C8814201D101207047002070477C
:108AA0006838002000780221FFF7CEBD05494FF05D
:108AB000FF32082841F8202002D3084480F84820DB
:108AC00070470000C8330020F0B54FF0FF3512B1F9
:108AD0000023082601E008230C260C4C05E000BF0B
:108AE00054F823707F1C04D05B1CB342F8D3284693
:108AF000F0BD26185DB286F8305044F82310002AE5
:108B0000F5D1E11881F84800F1E70000C8330020F2
:108B10000249084490F9300070470000C833002033
:108B20002DE9F0438FB01E46DDF8589015460F0032
:108B3000804602D10020FEF747F915B90020FEF764
:108B400043F91C216846FDF7B8FC00249DF800009D
:108B5000039440F002008DF80000012001948DF88C
:108B60003600049405940694ADF834800C94307863
:108B70008DF8300070788DF831009DF832001421A6
:108B800020F00600801C20F019008DF8320007A8A4
:108B9000FDF793FC0DA807900CA808900748ADF8C6
:108BA0002450ADF82640ADF828500B974B4607AA45
:108BB00069460088AADF0FB0BDE8F083462C00208C
:108BC00070B504464FF6FF750A462846AC4208D1F8
:108BD0004FF480742146104605F0DEFCA04209D017
:108BE00070BDFF2CFCD82146104605F0C8FC08B12A
:108BF000204670BD284670BD70B5084C050009D0F0
:108C000010342168002907D0086820604968284688
:108C10008847F6E70834F4E770BD0000B43300205D
:108C2000054A012120B1012805D19170FFF7E4BF69
:108C300051700020FAE77047B43300202DE9F05F4F
:108C400026484168F1B3DFF898B00E688146DBF83A
:108C5000004087688078E11B21F07F45ED1CB0B9AA
:108C6000DFF880804FF48030C8F84403C8F804036C
:108C70001120FDF741FD1120FDF749FD4FF0010ADC
:108C8000C8F800A02F2003F0DFFF89F802A0B5424A
:108C900000D23546124BE8193C3320F07F40186073
:108CA000DBF800105A46091B21F07F41001B20F021
:108CB0007F40C91C81420FD9106818602F2003F033
:108CC000C3FF00E004E0BDE8F05F1120FDF72ABD1E
:108CD000BDE8F05F06F05CB9BDE8F09FE02C002035
:108CE000041501400010014073B58CB00646002009
:108CF00000900D9880B100246D4621460DA802F029
:108D0000DCF930B1009805EB400084800098401CED
:108D10000090641C142CF0D32C2269463046FDF7D9
:108D2000A5FB0EB070BD2DE9F04117880646B81DB1
:108D300014460D46984202D90C20BDE8F0813188D6
:108D4000072206290AD34FF4486C4FF6FF7361459A
:108D500001D9994202D17088062801D21046ECE769
:108D6000604501D99842F9D1994203D0984201D087
:108D70008142F3D80520E85520881221401C80B29A
:108D8000208029542088401C80B2208041193088DE
:108D900007F062FD2188084480B220804119708864
:108DA00007F05AFD2188084420800020C5E7FEF71F
:108DB0000BB8000038B54A7A0F4B62B100220A7234
:108DC0005969002906D001228DF80020ADF8020073
:108DD0006846884738BD0A7A62B19B684C6802468B
:108DE00019462046FEF73AF80028F3D0BDE838408F
:108DF00006F0CCBA5B68F1E7C4300020F0B585B06E
:108E000016460F4604461D4614220B496846FDF7D8
:108E10002DFB0A488DF80870ADF80240ADF80A60E5
:108E20008DF80C50017800222046FEF775FF684649
:108E300000F07AFA05B0F0BDA8100300282C00203D
:108E4000F0B5204C0D4606462088042101EB004079
:108E500087B033462A461CA103F0EFF900200490A6
:108E60000590ADF8105001900290ADF8125001AA93
:108E700004A9304690DF070021D003F077FE0346B7
:108E80002088012505EB004032461B4903F0D5F947
:108E9000BDF8042012B9BDF8060038B12088BDF82D
:108EA000063005EB004015A103F0C7F9BDF8082016
:108EB0002AB12088214905EB004003F0B7F907B03B
:108EC0003846F0BDEC2D00205570646174696E6702
:108ED0002064617461206C656E67746820746F2013
:108EE0002575206F6E20636F6E6E656374696F6E9B
:108EF00020307825782E000048160300546865203D
:108F00007265717565737465642054582F525820CA
:108F10007061636B6574206C656E6774682069733B
:108F200020746F6F206C6F6E672062792025752F1B
:108F30002575206F63746574732E0000941603000A
:108F400030B5044685B000211B4805F018FB002809
:108F50002FD00025204600F048FF68B1112812D01C
:108F600086281BD0A0F54051023903D00146204687
:108F700006F014FA294607E005B029462046BDE868
:108F8000304001F04DBD0121204601F049FD05B002
:108F90000021BDE83040084805F025BB14220749F0
:108FA0006846FDF763FAADF80240684600F098F9AC
:108FB000E0E705B030BD0000F12B0020D00F03002A
:108FC0007FB50C4610B1012004B070BD2079002699
:108FD00038B141F61D5501281BD0022826D00F209C
:108FE000F2E70220207102960396E068019069463C
:108FF00001A805F0E5FE50B102988188E180008863
:109000002081BDF80010029805F058FFDCE70A2027
:10901000DAE70A4B6A460021A01D05F08DFE38B143
:10902000064918398E61CE610A28CDD12846CBE792
:1090300002488188019805F041FFF5E7202D0020C6
:109040002DE9F0470025DFF88C803CE060680021C6
:1090500000EBC506012032789146FDF7F4F9D4E91A
:10906000062300EA020701EA030C57EA0C0728D09E
:1090700082438B434846C4E9062303F0A7FE3278B7
:109080008246914601200021FDF7DDF9D4E9042351
:1090900000EA020401EA03074A4650460021FDF7B0
:1090A000D2F944404F403C430BD17078012801D0A5
:1090B000012100E00021726881EA0A010AB14846F4
:1090C00090476D1CEDB298F8000044468542BDD330
:1090D000BDE8F087C02C002010B50021024802F046
:1090E00025F880F3100010BD843C00200E4910B517
:1090F0000A784C780023A24212D0521CD2B20A70D5
:10910000022A00D10B70084A0B780C3252F8232047
:1091100002608868104420F07F408860012010BD04
:109120000360002010BD0000E02C002013460A461A
:109130000021FFF763BE00002DE9F843104D0F46F4
:1091400080461E4691466946286801F04AFF0400A1
:1091500014D01C21FDF7B1F901202071C4F814903E
:10916000380BC4F80080C4E902606946286801F041
:1091700059FF05F0FFFC0020BDE8F8830420FBE761
:10918000A011030010B503780022072B06D2DFE8F8
:1091900003F005040610202930000A7010BD0123D9
:1091A0000B7003898B818388CB81C06888600A74C7
:1091B00010BD02220A7002898A818288CA81C2682F
:1091C0008A60807D062802D00020087410BD01202E
:1091D000FBE703220A70C2888A810289CA81C068BB
:1091E000886010BD04230B70C0888881CA818A60A2
:1091F00010BD0520087010BD70B5064D0646002450
:1092000055F8241009B130468847641C042CF7D364
:1092100070BD0000E835002030B50446006887B016
:109220000D46806800281FD018216846FDF745F9D3
:109230000195A0680590207910B1012810D107E0B0
:1092400001208DF8000020690290E068039005E09D
:1092500002208DF80000E06800030290606904902D
:10926000206881686846884707B030BD70B586B011
:1092700015460C00064619D0112C17D0082C15D015
:1092800014216846FDF719F9ADF80260304601F087
:1092900087F8ADF804000D2C0AD0862C1CD00720CE
:1092A0008DF800000294684600F04CF806B070BDDE
:1092B00003208DF8000025B12878C00701D00120D7
:1092C00000E002208DF8080000208DF80C0041F22B
:1092D0000110ADF80A00E6E706208DF80000E2E78D
:1092E00010B50446408801F05BF8A0800248016890
:1092F0002046BDE810400847F82B00202DE9F0413A
:1093000007460024064E074D05E000BF56F824101E
:1093100038468847641CE8788442F7DBBDE8F08172
:1093200068330020182C002010B50446408801F056
:1093300037F8A080024801682046BDE81040084781
:109340007C1003000149096808470000D0100300A1
:109350000078052807D104480421008801EB00406B
:1093600002A102F05FBF7047282E00204743206310
:109370006F6D706C657465640A00000070B586B02E
:10938000044614216846FDF798F8A0890125A0F548
:109390004040ADF8040020782A4E062833D2DFE89A
:1093A00000F0320303032C48A08900F0BDF930B966
:1093B000E08943F6FE71A0F54040884223D8A07BA7
:1093C0008DF80800207803280FD000208DF80900C0
:1093D000A0680390606850B109208DF800006068B3
:1093E0000490684604F012FD0DE00120EEE708202D
:1093F0008DF800008DF81050F3E7A08900F094F983
:1094000008B1E08930B17078002801D004F02EFE58
:1094100006B070BD606820B10B208DF8000075703B
:10942000DFE70A208DF80000BDF8040004F0A8FE74
:10943000F5E713208DF800004FF6FF70ADF804003B
:10944000CFE70000082C002038B504460E4800780D
:10945000A8B1A4F57F40FF380FD0684605F0BCFAEC
:1094600078B10521017001210171C480684605F0C1
:10947000C1FA05F071FB002038BD042038BD022080
:1094800038BD082038BD0000282D00200C4808B544
:10949000007888B1684605F09FFA78B1062101701E
:1094A000684605F0A7FA0748017809B10121017360
:1094B00005F052FB002008BD022008BD082008BDB1
:1094C000282D0020AC360020F0B587B01421684666
:1094D000FCF7F3FF2B4C207818B16846FFF78CFEA1
:1094E0004EE0201D01F004FEB8BB4FF01020416992
:1094F0000004026940694B1C01D100FB02F12248C3
:1095000000220161A1F54051C160204902F002FA38
:10951000002820D11F481C238C221D49006801F01F
:109520004DFD04F063FA051E14D0022812D0002766
:109530000126062D12D005A805F04EFA88B1067056
:109540000C2D18D2DFE805F0170F170F1716171696
:10955000171113110B2007B0F0BD11E026706760E2
:10956000BBE70820F7E7077105E0032100E00221CF
:10957000017100E0067105A805F03CFA05F0ECFA6F
:109580000020E8E7282D0020D82D0020B01103008E
:10959000F83500201811030038B5040014D06946CE
:1095A00005F00EFCA0B1BDF8000000EB80010948F9
:1095B00000EB8100C16849B1A17A39B1C168491E87
:1095C000C1600020A07238BD052038BD062038BD1E
:1095D0000A2038BD843600201FB501A9684605F071
:1095E000ABFB04B010BD07B513460A466946002020
:1095F00005F0A2FB0EBD07B513460A4600216846DA
:1096000005F09AFB0EBD20B119B10068086000207A
:109610007047052070470000F8B50D46040018D0CB
:10962000BDB1694605F0CCFBA8B1BDF800000B49FF
:1096300000EB800001EB800001210C30666801F036
:109640005AFD2E6060680C3068600120A072002016
:10965000F8BD0520F8BD0A20F8BD000084360020C2
:1096600018B10323002207F04BBB052070470223EB
:10967000002207F045BB12B1022307F041BB0520D1
:1096800070470000084910B50A69042A0AD0074A41
:10969000096942F8210004480121103001F02BFD36
:1096A000002010BD0C2010BD082D0020E835002042
:1096B00038B5044609480D46007858B164B169468A
:1096C000284607F017FC002803D1BDF800102180C0
:1096D000658038BD022038BD052038BD282D00200A
:1096E00010B504460E48007898B1A4B1218802292B
:1096F00013D80C4A01EB810002EB8002608852898A
:10970000C31C934209D807F0E9FB00202080608049
:1097100010BD022010BD052010BD042010BD0000AA
:10972000282D00208436002043F6FE71A0F540402D
:10973000884201D8012070470020704710B50446C8
:109740000078182802D1FEF7C3FA207010BD10B5BA
:1097500004460078182802D1FEF7BAFA207010BD2E
:1097600070B50D460446B0F89810D0F89400012268
:10977000FDF711FF00B1057004F13C0204F1940102
:1097800004F1540072DF70BD70B513460022064626
:109790001546862902D0112902D002E0012200E0FC
:1097A00001250D4C73B1A179FEF7B6FA2A4661790D
:1097B0003046FEF7B1FA0022A1783046FEF7ACFA47
:1097C000002203E0A178FEF7A7FA2A466178304626
:1097D000BDE87040FEF7A0BA302C0020F7B5174660
:1097E0000E0011D00098002560B100242146684683
:1097F00001F063FC18B1A0B23946B0476D1C641C7F
:10980000142CF3D32846FEBD0020FEBD406805F0B1
:1098100003B900000EB517A19DF8080020F00F0055
:10982000401C20F0F00010308DF808000A2202A839
:109830007CDF08B1FDF7C8FA40F2413078DF08B1AB
:10984000FDF7C2FA0020009001900821ADF8040055
:10985000ADF800104FF4C8704FF40271ADF8060077
:10986000ADF8021068467ADF002801D0FDF7ACFAA7
:109870000EBD00004E6F726469635F48524D000078
:1098800010B508880C46A0F52061773909D1084841
:109890000321A3880088628801EB004005A102F043
:1098A000CCFC2146BDE810400E48FEF789BD000003
:1098B000282E00204741545420415454204D5455E3
:1098C000206F6E20636F6E6E656374696F6E2030FB
:1098D000782578206368616E67656420746F202541
:1098E000642E0000B82E002070B508B1012070BDB4
:1098F0001B4C0025207B08B1257301E000F0A4F883
:10990000207808282AD2DFE800F02904080C102962
:109910001422BDE8704000F025B8BDE8704000F0AA
:1099200081B8BDE8704000F063B8BDE8704000F059
:109930003FB8062020706088094900EB8000283974
:1099400001EB80004068BDE8704004F02FB80720AC
:1099500020706560BDE8704004F036B80F2070BD1F
:10996000AC3600201149F0B48A1C00200346A1F156
:1099700028050C18A67A4EB1A37200EB800405EB03
:109980008404E66816B9247C012C0AD0401C80B2FD
:109990000228EED30B704B804B60F0BC41F61D509B
:1099A00070471080F0BC00F03DB80000AC360020DD
:1099B0000C48418801EB8102A0F1280101EB8201F2
:1099C000CA6852B1052101700748022181800168EF
:1099D00000230122054801F007BF042202704968F4
:1099E000F6E70000AC360020302D0020D82D0020F6
:1099F00038B50A49084803240B684268898803EB94
:109A0000810153880470DB1C00201B0400909B0B19
:109A1000034802F059F838BDAC360020302D002044
:109A2000D82D0020074910B54888091D05F018FAFF
:109A300018B1BDE81040FFF7DBBFBDE81040FFF7ED
:109A4000B7BF0000AC360020F0B51F481F49012504
:109A5000067802248B88A0F12802082E19D2DFE8AC
:109A600006F00418181B222F2F170189491C0181A9
:109A70000021418080F80C1001EB810312F82330A3
:109A800043B100234418491C89B2A3720229F3D3BD
:109A90000570F0BD0123F5E742685288D21C1A44D4
:109AA0008A800470F0BD46880D6806EB860602EBDE
:109AB000860256680E60556013818C80062100E096
:109AC00007210170F0BD0000AC360020302D0020D1
:109AD00030B501888488224D85B0502924D0522980
:109AE00002D0542931D103E0204600F065FF2CE07C
:109AF00014221C496846FCF7B9FCADF80240204628
:109B000000F04EFCADF8040000F022F90022697963
:109B10002046FEF701F9002229792046FEF7FCF8DD
:109B20006846FFF7DDFB10E0017B01290DD1817A4A
:109B300001290AD10089A0F52451023905D101215A
:109B4000204600F06DFF06F0F7FE00220649E87897
:109B5000FEF784F805B0BDE8304005F0D7BC000042
:109B6000F02B0020F80F03002D71020010B5044601
:109B7000007800280FD1608800F01EFF608800F098
:109B800081F9002807D00449608801220979BDE8DD
:109B90001040FEF7C1B810BDF02B002010B5124CDC
:109BA00000202070FEF794F8A070FEF791F8E070A6
:109BB000FEF78EF82071FEF78BF86071A1781829F6
:109BC0000FD0E17818290CD02179182909D018284C
:109BD00007D00121601C04F0CBFC01202070002084
:109BE00010BD032010BD0000F02B00207CB5044602
:109BF000007808282FD1607A38BB207A4FF6FF759D
:109C000001280DD0072802D0082824D11EE0A08802
:109C100000F004FBA8421ED0012100F001FF1AE071
:109C2000A0886A46012104F009F870B9019800780B
:109C300058B1A08800F0F2FAA8420CD008490122DD
:109C40000979FEF769F805F061FC04E00448002199
:109C5000401C04F0C8FCBDE87C4006F06DBE00006E
:109C6000F02B002010B504460A4841782046FEF744
:109C70003BF868B10848002101EB410200EB820289
:109C80005288A24201D1C8B210BD491C1429F3D395
:109C9000FF2010BD022C00205831002070B5094D66
:109CA000094E002404EB440005EB800071784088E5
:109CB000FEF71AF820B1641C142CF3D3FF2070BDFA
:109CC000E0B270BD58310020022C00202DE9F04197
:109CD0008046024601200021FCF7B5FB1A4F0546DD
:109CE0000E467868FDF7FEF800280CD1174CD4E931
:109CF000062110462A4001EA06031A4305D0A8436C
:109D0000B143C4E90601BDE8F081404603F05EF8C6
:109D100030B1D4E9040128433143C4E9040105E02A
:109D2000D4E90410A943B043C4E90410D4E90601FE
:109D300028433143C4E90601A1687868BDE8F041D1
:109D40000022FDF78BB8000004110300C02C002096
:109D50001CB5054AD2E90212CDE90012002269467B
:109D600003F091FF1CBD00001010030003484FF6E4
:109D7000FF7181800121017000207047FC2B0020C1
:109D80002DE9FC41804600F00BFB00240325012750
:109D9000A0F57F412646FF3908D06A46082103F026
:109DA0004DFF18B90198841D8688056832462B46F8
:109DB00021464046B1DF042804D0082804D00B28EF
:109DC00008D002E0112000E00020002F00D10B207D
:109DD000BDE8FC810027A80701D50125E6E734434B
:109DE000F5D0002426460325E0E72DE9FC41804616
:109DF00000F0D6FA0646A0F57F40FF380ED00125C8
:109E00002A466D1C0027ADB26B460821304603F090
:109E10003FFF040006D0072C25D025E043F20200C6
:109E2000BDE8FC81019903230A1D0B604046891D92
:109E3000B2DF040004D00C2C09D0052C09D009E0B5
:109E400032460821104603F099FF04460CE0012732
:109E500000E000240821304603F07CFF00B1032419
:109E6000002FCDD100E00C242046D9E7044880889B
:109E7000A0F57F41FF3901D005F052BB70470000CB
:109E8000FC2B00200EB502A9019100F089FA6A4668
:109E9000012103F0D3FE08B100200EBD0198007827
:109EA0000EBD00002DE9F04107464FF6FF760A4847
:109EB000B3DF10B10320BDE8F081074C43F2030586
:109EC000A41E324661883846AFDFA842F3D16088CD
:109ED000401C6080F5E70000FE2B0020428800EB6C
:109EE00082020C328A4201D9022070478188A1F592
:109EF0007F42FF3A03D0008808B10020704701205C
:109F00007047884204D20068401C01D0012070478D
:109F10000020704770B5144C14480325E26800888F
:109F2000164605EB004012A102F080F92069314687
:109F3000401C20611148FEF7B9F958B1082809D032
:109F4000132807D0112805D043F20141884201D0DF
:109F5000FCF73AFF2069B0FBF5F105FB110000B1F9
:109F60000120207070BD0000902B0020282E0020C2
:109F700049525F4C4544203A20255800B82E002015
:109F800070B5CCB00024054644949DF810010E46EF
:109F900020F00F00401C20F0F00010308DF8100170
:109FA000087B8DF811019DF812011C2120F006009C
:109FB000801C8DF812013DA8FCF77FFA9DF8F40093
:109FC0003E9440F010008DF8F40044A84094CDE990
:109FD000414001208DF82E0142F637204394ADF820
:109FE0002C014A94707B8DF82801B07B8DF82901F3
:109FF0009DF82A01142120F00600801C20F0180092
:10A0000040F001008DF82A0145A8FCF756FA4BA84C
:10A0100045904AA846906A460021284600F012F86A
:10A02000ADF81C01F420ADF81E41ADF82001CDF8CB
:10A0300024D1E88805F1080345AA3DA9AADF4CB060
:10A0400070BD00002DE9F04104464079904600259E
:10A0500000B1042594F8220008B145F00205CAB207
:10A06000FF2908D9090A88F8012045F0010588F878
:10A070000210032602E088F801200226B4F84C0002
:10A0800008B145F0100500271BE000BF94F84E1002
:10A09000B21C91420BD2B4F84C0004EB4701C01B38
:10A0A000420004F124002431FCF7E0F90DE004EB58
:10A0B000470008EB0601808C0870000A4870D6B291
:10A0C0007F1CB4F84C00B842E0DC34F84C0FC01BE5
:10A0D000208088F800503046BDE8F0813EB5027817
:10A0E00002230C46B3EB520F17D1B0F80110ADF8B4
:10A0F0000010C1788DF802108188ADF804108079C5
:10A100008DF8060002AA01A92046FCF79FFD032254
:10A1100002A96846FCF7E3F908B100203EBD012022
:10A120003EBD000010B50C46FFF79CFDFF280CD08B
:10A13000074900EB400001EB800041682160018984
:10A14000A180807AA071002010BD052010BD000004
:10A150005831002070B5018890B0102959D1011DE7
:10A160002C226846FCF782F99DF804004FF6FF7632
:10A17000032134466D46B1EB500F2AD003F0B4FEF4
:10A180009DF8040040080ED001280CD0022820D1F0
:10A1900018E00D99281D1131FCF7EBFC18B100BF38
:10A1A000BDF82C4015E00CAA0BA9072003F070FEA7
:10A1B0000028EED10DE00D99281D491CFFF78EFFF8
:10A1C0000028EDD10CAA0BA9072003F061FE00289E
:10A1D000F1D1BDF80000291D00F09AFEB44218D05C
:10A1E000BDF80000214600F0C5F8BDF80000ADF84C
:10A1F0002E000020ADF83040074E8DF82C000BAD3E
:10A20000044600BF56F8241028468847641C022CD8
:10A21000F8D310B070BD000024100300094A0021DB
:10A2200001EB410332F82330834205D101EB4100B9
:10A2300002EB800040887047491C1429F0D34FF688
:10A24000FF707047583100203EB50C46054603F0BC
:10A250004BFE0BE0BDF80000A04207D02846029953
:10A2600000F02EF810B1BDF800003EBD01AA69460D
:10A27000072003F00DFE0028ECD14FF6FF703EBD25
:10A2800010B50D4C18200D4A607000204FF6FF717C
:10A2900000EB400302EB8303401C59801428F7D3E2
:10A2A000FDF716FD6070182803D0012020700020F3
:10A2B00010BD032010BD0000022C002058310020EA
:10A2C0002DE9F0410C46054600F1110701F1110698
:10A2D0001022491C401CFCF702F948B9681C00F028
:10A2E000F9F928B1601C00F0F5F908B1012400E08B
:10A2F000002431463846FCF73CFC3B780222B2EBA6
:10A30000530F0CD00321B1EB530F08D03378B2EBCD
:10A31000530F04D0B1EB530F01D0012100E0002115
:10A32000084201D18C4302D00120BDE8F081002019
:10A33000FBE7018811B9421892780AB101207047F1
:10A34000491C0829F7D30020704710B50C46034676
:10A35000FFF7EFFF00280AD018882188884205D12E
:10A360000822A11C981CFCF7BAF808B1002010BD07
:10A37000012010BD03F058BF70B50446FFF74EFF33
:10A380000546204603F05DFC4FF6FF7104468D4202
:10A3900003D014B9284603F047FF204670BD0000E3
:10A3A00010B5FFF75FFCFF2805D0044900EB400023
:10A3B00031F8200010BD4FF6FF7010BD583100205D
:10A3C0003EB5044603F090FD0EE00199204646316B
:10A3D000FFF7BBFF28B9019920462A31FFF7B5FFE7
:10A3E00010B1BDF808003EBD6A4602A9072003F07F
:10A3F0004FFD0028E9D14FF6FF703EBD10B50A4968
:10A4000041600A4800F074FE58B902F039FB074970
:10A410001C238C22087404488C39001F006800F04B
:10A42000CDFD002010BD0000A4110300483700201E
:10A430002DE9F0412D4F002518B17D600120BDE8C8
:10A44000F0810879012258B1294E01280CD0274CFF
:10A450004FF002080834022821D0032842D128E016
:10A460000A7103F0B1FA3BE05FF0000000EB8001FD
:10A4700016F82110022908D0401C80B20228F5D31A
:10A480003A707D6041F61D50D9E700EB800006F878
:10A49000205006EB8000406803F088FA20E00D7140
:10A4A000A4F80480002301221248216801F09CF9DD
:10A4B00016E00D71206803F079FA0D492368283100
:10A4C000498801EB810206EB8201D1F804C0C4F88F
:10A4D00000C04B60A3880B81A4F8048006F82250CA
:10A4E0000028ACD07D600E20A9E70000282D0020B8
:10A4F00084360020D82D00200146034802888A4275
:10A5000000D0002070470000B03000202DE9FC5F33
:10A510000E008346DDE90C47C6F1000098469246DE
:10A52000814600D40846012503E000BF90FBFAF005
:10A530006D1C5045FADAA84500D9454624B1002ED5
:10A5400001DB780700D5641EB80702D5B8F1000F0B
:10A550000AD0F80708D13CB1A54205D220215846BF
:10A56000641EFEF785FAF6E7002E02DA4E462D212C
:10A5700002E0780703D52B215846FEF779FA07F059
:10A58000030002280BD1B8F1000F08D13CB1A5425D
:10A5900005D230215846641EFEF76AFAF6E7CDE987
:10A5A0000047434652463146584606F06BF9BDE82F
:10A5B000FC9F000070B50D46044600684FF488719A
:10A5C00002F0FFFA4FF49071206802F0FAFA4FF4AB
:10A5D0009271206802F0F5FA4FF4A271206802F03F
:10A5E000F0FA20681249C0F8041320686907000BCC
:10A5F00040B2090E002806DA00F00F0000F1E0205A
:10A6000080F8141D03E000F1E02080F800142068B9
:10A610000121000B40B200F01F0291404009800070
:10A6200000F1E020C0F88012C0F8001170BD0000F9
:10A6300010030200024600201268930702D053075D
:10A6400002D47047500714D502F00300012802D04D
:10A6500002280CD105E0C2F383100B68801C18445B
:10A6600004E00223086803EB9252104408600120C2
:10A670007047086800EB9253C2F38910401CEEE764
:10A680000248007A002800D0012070474837002097
:10A69000F0B58488A518944200D82246A41AC2882E
:10A6A000D6189A4200D81346D21A4B880788BB4264
:10A6B0000CD34088834209D88888A04206D3A84298
:10A6C00004D8C888904201D3B04201D90020F0BD1F
:10A6D0000120F0BD0021425C0AB101207047491CF5
:10A6E0001029F8D300207047800701D00020704760
:10A6F000012070470A4810B5807860B1002401E05D
:10A70000022C06D02046FDF72FFF641C042CF7D343
:10A7100010BD0324F6E7BDE81040FDF745BF00007B
:10A72000D02B002003480179C90702D00078FEF73A
:10A7300077B87047D02B0020F72101801721418086
:10A74000002101714171FB2181711B21C171704791
:10A750002DE9FE4F2B4D984691460F00824601D0C1
:10A7600000260DE0684600F0FFFB6A4600215046D7
:10A7700003F0D3F92878009E10B99DF8090098B12C
:10A780004A463146504605F095F9044601460022F6
:10A790005046FEF7F9FF0D2C32D008DC84B3082CAC
:10A7A0002ED00B2C0BD12BE00520BDE8FE8F112CF9
:10A7B00010D0862C1AD0A4F54050023820D00325A2
:10A7C000B8F1000F04D0324621465046FEF74EFD48
:10A7D0002846EAE73A4629795046FDF79DFA4A4667
:10A7E000E9785046FDF798FA0025E9E73A462979D5
:10A7F0005046FDF791FA4A46E9785046FDF78CFA43
:10A800002546DDE7302C00202DE9F041204F0E4693
:10A81000154604463978FDF767FA002835D02046FA
:10A8200003F072F950B32046FFF7BAFD8046204688
:10A83000B978FDF759FA08B1012700E00227204650
:10A8400003F00AFC0028404602D0FFF795FD0DE01A
:10A85000A8F57F41FF3909D0072103F07BFA0100F9
:10A8600004D0052902D0204604F0ACFD2B46324628
:10A8700039462046BDE8F041FEF7C0BA2A463146C7
:10A880002046BDE8F041FEF751BCBDE8F081000074
:10A89000282C002070B5094D0646E978FDF724FA0A
:10A8A000044629793046FDF71FFA01462246304614
:10A8B000BDE870400123FFF74BBF0000302C0020A3
:10A8C0002DE9F047394E002780463D46DFF8E090FD
:10A8D000D6F804A057E003D00446D0F81C8035E039
:10A8E00099F8002002EB4201521CD2B289F80020F4
:10A8F00009EBC10199F80230091D9A4201D189F88A
:10A90000005048680A780446012A12D0022A02D070
:10A91000032A3BD108E005F093FA00B10127257422
:10A9200034E00574C06900E070680028F9D17060F7
:10A930002CE0207C50BB88686060C868A060086913
:10A94000E0604869A061F07800B165606268B16854
:10A95000184B501A20F07F40984202D2A168084458
:10A9600006E0881AA16820F07F40814202D9081AC7
:10A97000206000E0256065600120A560207420460D
:10A98000E56105F03FFAB8F10000A4D199F8001094
:10A9900099F801008142A3D117B97168514502D0DD
:10A9A0000120BDE8F0870020FBE70000E02C00203C
:10A9B000C4340020FFFF7F0030B585B00546002479
:10A9C00014216846FBF779FDA5F57F40ADF80250EC
:10A9D000FF3815D02846FFF7D3F998B10B2815D0CA
:10A9E000112811D0A0F54051023903D00146284664
:10A9F00004F0D4FC09482246C1782846FDF78CF9BA
:10AA000005B030BD0E2002E00124F3E70F208DF8E1
:10AA100000006846FEF764FCECE70000F02B002025
:10AA20000A4602498978FDF777B90000F02B00202B
:10AA3000F8B5054600780C46002620420FD10020CC
:10AA40008DF800006846FCF75DFA2878204202D1B4
:10AA50002043287001269DF80000FCF777FA304665
:10AA6000F8BD00002DE9FF410026234800F03DFB22
:10AA70002148001F074600F038FB204C606800901A
:10AA8000A56800E000986946284004EB80000C307F
:10AA9000FFF7D0FD0028F5D101AA009901EA0503CE
:10AAA00004EB8303491CDB6842F82030401C009112
:10AAB0000228F2D3019800F0030001280BD00228ED
:10AAC00010D10198032101EB90500099BDF80A6064
:10AAD00001EB900005E00198BDF80A60C0F3831017
:10AAE00008440090384600F0FDFA08B10098606014
:10AAF00004B03046BDE8F081803C0020683800207A
:10AB0000ACB04FF40041002001F0FEFB08B1FCF7AF
:10AB10005BF901F069FA05F021FA624B0FCB8DE881
:10AB20000F0060480023604A6946103800F0F8FCC6
:10AB300008B1FCF749F95B480C3802F0C1F900F0A4
:10AB400009F95A490320FDF721FE08B1FCF73CF949
:10AB500069460020FDF74CFD08B1FCF735F99DF87A
:10AB6000000002287ED0002601F0ECFC08B1FCF7C2
:10AB70002BF901F02BFF08B1FCF726F900246946F8
:10AB80000120009401F020FD08B1FCF71DF9684692
:10AB900001F0C6FD08B1FCF717F9FEF73BFE44498A
:10ABA000444800F038FB08B1FCF70EF9AC216846C8
:10ABB000FBF783FC02208DF8000001208DF80200D5
:10ABC000062103258DF87C008DF80310ADF8105098
:10ABD0004FF4967038492290059144F250602390CA
:10ABE00036482990334869462030FCF703FD08B108
:10ABF000FCF7EAF82F4801212030FCF7F8FC04F0BC
:10AC00003BFD04F0FFFB1C216846FBF756FC4FF4AC
:10AC10002030CDE900404FF47020029025488DF897
:10AC20000C5064388089ADF80E0025480590254801
:10AC300006908DF810406846FCF7C6FF08B1FCF797
:10AC4000C3F803F0FFFA204820A1008805EB00407C
:10AC500001F0E8FAFCF794F93046FBF7CBFF164D0C
:10AC6000343D00E006E0142000F016FC01F0CAF9C3
:10AC700010B103E0012677E701F078FC687800283E
:10AC8000F4D06C700C4A07480623203A572110383C
:10AC900000F066FC08B1FCF797F801F0B3F9002862
:10ACA000FBD1DEE7780F0300B9000300E586020060
:10ACB000819802001C2F0020C42B002081D40200A8
:10ACC000CDD40200AF8D0200282E002048656172AD
:10ACD0007420526174652053656E736F72206578BD
:10ACE000616D706C6520737461727465642E000010
:10ACF00070B5144682880E4605462088111D014411
:10AD0000921C994201D8FE2A01D90C2070BD521C18
:10AD100032542088FF21401C80B22080315420888A
:10AD2000401C80B220808119288805F095FD21887B
:10AD3000084480B22080AA8842B1A96841B1304459
:10AD4000FBF794FB2088A98808442080002070BD70
:10AD5000072070BD10B54021092005F015FFC02166
:10AD6000022005F011FF0021032005F00DFF002156
:10AD7000042005F009FF0021052005F005FF002152
:10AD8000062005F001FF0F21082005F0FDFE03213C
:10AD9000092005F0F9FE27210A2005F0F5FE2421FF
:10ADA0000C2005F0F1FE24210D2005F0EDFE7F21A1
:10ADB000102005F0E9FE002003F012FF012003F04F
:10ADC0000FFFBDE81040072003F040BF2DE9F0471A
:10ADD000C7880446181D16468946B0FBF7F1B0FB3C
:10ADE000F7F207FB12009A193A44D21CB2FBF7F2B1
:10ADF000DDF820A001E02468491E0029FBD13D1A9E
:10AE00008846B54216D818E0BAF1000F05D02118CF
:10AE100009EB08002A46091D04E0204409EB08015B
:10AE20002A46001DFBF722FB00202468761BA8445D
:10AE3000B74201D9354600E03D46002EE4D1BDE8D9
:10AE4000F087000030B5024659B101F089FA0021BF
:10AE5000074C09E004EB810315685B88AB4202D123
:10AE60001160002030BD491C8142F3D3052030BD64
:10AE7000EC2D0020F8B50F4601781446054601294F
:10AE800001D1687830B12088821C9A422DD80129DE
:10AE900002D006E00720F8BD69780144891C994278
:10AEA00023D8181A801E86B2ADF800602188B81C1D
:10AEB000084469467DDF0028EDD12878022805D1B5
:10AEC000BDF80010B14201D809210AE0082101288B
:10AED00005D16878B04202D8ADF8000001E0ADF8C5
:10AEE0000060BDF80000FE2801D90C20F8BD2288C2
:10AEF000401CB8542088401C80B2208039542088DF
:10AF0000401C2080BDF80010084420800020F8BDBF
:10AF100070B505460C004FF0FF0020D04FF6FF76CD
:10AF2000B5421CD00E48012241782846FCF7F4FEB9
:10AF30002846FEF797FEFF2803D1FEF7AFFEFF2855
:10AF40000DD0084B00EB400203EB82014D8023F84B
:10AF5000226022684A60A2880A81A2798A7270BD42
:10AF6000022C002058310020034A00219268C0E9D9
:10AF70000021816070470000302C002070B54FF632
:10AF8000FF750E46A84201D1002000E0401C84B2AB
:10AF900008E02146304603F01AFB08B1204670BD98
:10AFA000641CA4B2FF2CF4D9284670BD10B5FBF781
:10AFB0007CF908B1002010BD112010BD10B531B1D1
:10AFC000B2FBF3F403FB14241CB1092010BD0E20C6
:10AFD00010BD01600021416081608281C38108460B
:10AFE00010BD70B50C460546FBF714F9002802D0D9
:10AFF00021882868084470BD10B50A8849888A42AB
:10B0000003D1FBF749F9012010BD002010BD70B538
:10B010000C460546FBF723F9002802D06188286812
:10B02000084470BD10B50A8849888A4203D1FBF7ED
:10B030000DF9012010BD002010BD01F01F030122F9
:10B040009A40D243490900EB8100114600F059B8FB
:10B050000A4601F01F030121994010B552090C4620
:10B0600000EB820000F05DF8204000D0012010BD10
:10B070002DE9F04180460D460024481E012101EBD8
:10B08000501716E058F82400C04390FAA0F0B0FA28
:10B0900080F020280CD200EB4416AE4208D2314694
:10B0A0004046FFF7D5FF0028ECD13046BDE8F081DF
:10B0B000641CA742E6D82846F8E74A0950F822005F
:10B0C00001F01F0201219140084000D0012070478B
:10B0D00001F01F0301229A40490900EB810011464B
:10B0E00000F029B8002100F017B8012100F023B8C2
:10B0F000012100F016B808B56A46FBF722F900985E
:10B1000008BD08B56A46FBF702F9009808BD08B506
:10B110006A46FBF716F908BD08B56A46FBF7F7F86B
:10B1200008BD08B56A46FBF7E5F808BD08B56A46EC
:10B13000FBF7D4F808BD08B56A46FBF7DBF80098C2
:10B1400008BD08B56A46FBF709F9009808BD38B58F
:10B15000044600258DF800506846FBF7D3FE2168B1
:10B160006268086890420ED9401E08600178A38A80
:10B17000E26801FB0325227A2168101AC0B20A791D
:10B18000824200D208719DF80000FBF7DFFE2846DE
:10B1900038BD38B5054600208DF800000C466846DD
:10B1A000FBF7B0FEE868A98A201AB0FBF1F12A6823
:10B1B0001068431C136001709DF80000FBF7C6FE89
:10B1C00038BD10B530B1017A42680368891AC9B236
:10B1D0001A6006E00E2010BD03681A68541C1C603B
:10B1E0001170491EC9B2F7D20068002101710846EA
:10B1F00010BDC20800F007030120895C9840084098
:10B20000704710B5C20800F00703885C01249C4019
:10B210002043885410BD10B560B10161F72120F8BA
:10B22000021B20F8021BFB2100F8021BFFF784FA27
:10B23000002010BD0E2010BD2DE9F047B0F804909D
:10B240000C465FEA09025FD10188304E4FF0040AD4
:10B2500024291FD006DC102909D011290CD023295C
:10B2600031D11CE03A290BD055292CD10DE00146F3
:10B27000204602F039F926E0A01DFFF75DFA22E032
:10B280000146204602F0EAFA1DE00146204602F09F
:10B290003DFA18E00146204602F0A8F913E0057ACD
:10B2A0003188071D0AEB014004F106082B4618A15E
:10B2B00000F0C3FF98F80600A84200D205462946D0
:10B2C0003888FDF7BDFDA07A00281DD0E1884846EA
:10B2D000A5DF012560B1112816D001F047FC024618
:10B2E00030881BA105EB0040BDE8F04700F09EBF91
:10B2F0000023A372E5723188E2880AEB0140BDE8C1
:10B30000F047204900F099BFBDE8F087EC2D002000
:10B3100050656572206F6E20636F6E6E6563746931
:10B320006F6E20307825782072657175657374654D
:10B330006420612064617461206C656E67746820AC
:10B340006F662025752062797465732E00000000F9
:10B3500073645F626C655F67617474635F65786373
:10B3600068616E67655F6D74755F72657175657331
:10B370007428292072657475726E65642025732E99
:10B38000000000000016030020B10278DE2A03D07E
:10B39000082070470E20704741800020704760B140
:10B3A00059B10278DE2A0AD009684160DE210170B5
:10B3B0004FF6FF714180002070470E207047082033
:10B3C00070477FB5054600294DD0002D4BD0087839
:10B3D0000C46DE2847D1A8886188884202D12046E1
:10B3E00005F0FAFA2888012825D002283BD0112838
:10B3F0003AD0512837D135F8040F6188884232D1CC
:10B40000A978A81C02292ED1017A042903D0062983
:10B4100001D0052927D10021009102228DF80020BA
:10B4200001914FF4C07202910391ADF80420007AAB
:10B4300005280FD010E0297A2046012913D1A988C8
:10B44000428891420FD10121017204B0BDE87040E1
:10B4500005F0C2BAADF8041028886946B0DF0028AC
:10B4600001D0616888477FBDA88861888842FAD189
:10B470004FF6FF7060807FBD00F1804000680028BB
:10B4800000D00120704708B500F180400021016024
:10B490000068009008BD00002DE9F041040007D0CD
:10B4A000044E4FF47A47751C3846A847641EFAD1FB
:10B4B000BDE8F081600F030070B50B4C207808B137
:10B4C00085250FE00020A06060602061E0600748F3
:10B4D00001F094FB054601F0D3FA08B901F078FBBE
:10B4E00001202070284670BDB4330020218C02005A
:10B4F00038B500258DF800506846FBF703FD074C72
:10B50000E068401EE060E06810B901F087FBA570BC
:10B510009DF80000FBF71AFD38BD0000B433002091
:10B520002DE9F041064604780B4815460F4640F8D1
:10B530002420083040F82430487B10B1084604F03D
:10B5400045FD0DB1054A00E0002223463946301D75
:10B55000BDE8F04101F0C4BCAC2C00207900030030
:10B56000001D01F02DBD38B5001D049C009401F0B4
:10B570003FFD38BDF0B505460478154889B016463C
:10B5800040F82420124A0869121DA2F1080742F867
:10B590002400487F385520226846FAF767FF049454
:10B5A0002878385C48B10EB10A4A00E000226946AA
:10B5B000281D01F081FE09B0F0BD0EB1064A00E081
:10B5C0000022694605F10C0001F048FDF3E7000098
:10B5D000942C002035070300810503000FB408B543
:10B5E0000399002904D004AA00926A4600F00FF8DB
:10B5F00001B05DF814FB10B582680446002A05D03E
:10B60000D4E90403216898470020A06010BD2DE90B
:10B61000FC4791460C00804676D014F8011B39B1E6
:10B6200025290ED04046FDF723FA20780028F4D1D2
:10B6300098F80C00002867D04046BDE8FC47FFF7AB
:10B64000DABF0020012221782B291BD02D2902D01E
:10B65000302908D102E040F0010001E040F0020092
:10B66000641C002AEFD100252A290ED02178A1F1EF
:10B6700030020A2A11D205EB850201EB4205641C57
:10B68000303DF1E740F00400EAE7D9F800100B1D67
:10B69000C9F800300968641C0D44217800232E2964
:10B6A0000BD114F8011FA1F130020A2A05D203EBD5
:10B6B000830201EB4203303BF3E76C290DD068298C
:10B6C0000BD0692921D00BDC252918D0582931D07D
:10B6D00063290ED0642915D117E014F8011FECE797
:10B6E000702969D0732932D075291BD0782909D1E6
:10B6F00020E0D9F80000011DC9F80010017840468B
:10B70000FDF7B6F9641C90E76CE0D9F800100A1D4B
:10B71000C9F800200968CDE900500A224046FEF72A
:10B72000F5FEEFE7D9F800100A1DC9F800200968F6
:10B730000A2206E0D9F800100A1DC9F8002009689D
:10B740001022CDE90050404605F09CF8DAE7D9F820
:10B75000001000270A1DC9F800200E68C00705D197
:10B7600012E04046761C7F1CFDF782F931780029F3
:10B77000F7D104E0202140466D1EFDF779F9BD4266
:10B78000C0D9002DF6D1BDE74EB13046FAF7A0FE84
:10B79000074604E0202140466D1EFDF769F9BD42D1
:10B7A00006D9002DF6D103E04046761CFDF760F97E
:10B7B00031780029F8D1A5E7D9F80000011DC9F8B2
:10B7C0000010056830214046FDF752F978214046C7
:10B7D000FDF74EF908200021CDE9000103461022B3
:10B7E0002946B0E7BDE8FC872DE9F84F2B4E040051
:10B7F0009A4630884FF001031546894603EB004016
:10B8000024D0216800292BD0002D32D0626849460F
:10B810004FF010071268A2F1010C1CEA090F11D1B8
:10B8200098466A432046FBF7BDF900282AD02068D5
:10B8300053462A46066901B049462046B446BDE84B
:10B84000F04F6047164B17A2009721E00E210091A0
:10B85000134B1EA21FA100F0F8FC0E20BDE8F88FCC
:10B86000082100910E4B26A21AA100F0EEFC082040
:10B87000F4E7092100910A4B24A216A100F0E5FC8F
:10B880000920EBE700973188054B214A08EB01407E
:10B8900010A100F0DAFC1020E0E70000182E0020D4
:10B8A0008B110300616464725F69735F7061676527
:10B8B0005F616C69676E656428705F66732C2070C9
:10B8C0006167655F6164647229000000705F667380
:10B8D00000000000257320636865636B2066616962
:10B8E0006C656420696E2025732829207769746847
:10B8F0002076616C756520307825782E0000000078
:10B90000705F66732D3E705F617069006C656E00DC
:10B910008417030038B503000F484FF001054FF0BE
:10B920000E04008805EB004009D061B119600C6875
:10B9300001B0A446BDE83040114618466047074BA9
:10B9400007A2009402E0054B07A2009408A100F0B2
:10B950007CFC0E2038BD0000182E00204011030092
:10B96000705F667300000000705F61706900000026
:10B97000257320636865636B206661696C6564206C
:10B98000696E202573282920776974682076616C98
:10B99000756520307825782E000000002DE9F041F3
:10B9A00028B1016819B1C969BDE8F04108470D4DDA
:10B9B0000D480024461B14270DE000BF04EB840053
:10B9C00005EB8000016829B1C969884710B10120E1
:10B9D000BDE8F081641CB6FBF7F0A042EED8002071
:10B9E000F6E70000D82D0020EC2D002004480121AE
:10B9F0004174007A08B100207047012070470000B0
:10BA000048370020012801D0032808D1044900222A
:10BA100001284A7400D00020087403F04DB8704724
:10BA20004837002070B50246022801D0032A45D1CC
:10BA3000234C207A002841D0012833D0022831D16C
:10BA400020480023022A006802D0032A2AD11BE0E2
:10BA5000E360017911B1012924D10DE0D0E9056538
:10BA6000711B4FF48056B14200D3314629448161A5
:10BA70004569A9420ED015E00169491C016142697E
:10BA800091420FD1237213E0E168491CE16008295B
:10BA900008D9E3602372022A0AD00D21FDF7BCFB0E
:10BAA00002F0B0FF607C28B1BDE8704000F0EEBF4E
:10BAB0000021F3E7BDE8704002F0FEBF70BD00005A
:10BAC000483700204C2D00202DE9F84F3A4D040056
:10BAD0008B4628884FF00106DDF828A0984691464D
